00278592222    0015TRIGO PAN                3062197317330537721274000000000001640500001000030400L                              180222818712      00NCWZ012  TOMAS HNOS. Y CIA. S.A.                 0000000000005673306406224486930548339312FERNANDEZ SABINO RAUL Y CIA S.H. DE FERN00                                        A. Alcorta S/N - Terminal de Embarque Luis Piedrabuena      0002406945C 00               0000020574DIRECTO                                 00000000000                                        30707386076WILLIANS ENTREGAS SA                    1617  
00278592231    0019MAIZ                     3062197317330537721274307140180821640500001000029320L                              180222818619      00NHQW900  TOMAS HNOS. Y CIA. S.A.                 0000000000005670533842448613930537721274TOMAS HNOS Y CIA S.A.                   0021110                                   A. Alcorta S/N - Terminal de Embarque Luis Piedrabuena      0002406945C 00               0000020574MAROUN S.A.                             00000000000                                        30707386076WILLIANS ENTREGAS SA                    1617  
00278592460    0019MAIZ                     3062197317330613985995306190201341800000001000030880L                              180222818611      00NTMJ140  LARTIRIGOYEN Y CIA. S.A.                0000000000005669522613508725630663322245ALEA Y CIA. S.A                         00                                        A. Alcorta S/N - Terminal de Embarque Luis Piedrabuena      0098106945C 00               0000020574VALCEREAL S.A.                          00000000000                                        20235741564PABLO WEIMAN                            1617  
00278592478    0019MAIZ                     3062197317330613985995306190201341800000001000030360L                              180222818613      00NEEN131  LARTIRIGOYEN Y CIA. S.A.                0000000000005669522642553149430663322245ALEA Y CIA. S.A                         00                                        A. Alcorta S/N - Terminal de Embarque Luis Piedrabuena      0098106945C 00               0000020574VALCEREAL S.A.                          00000000000                                        20235741564PABLO WEIMAN                            1617  
00278592486    0019MAIZ                     3062197317330613985995306190201341800000001000030860L                              180222818614      00NVBE407  LARTIRIGOYEN Y CIA. S.A.                0000000000005669522652521212530663322245ALEA Y CIA. S.A                         00                                        A. Alcorta S/N - Terminal de Embarque Luis Piedrabuena      0098106945C 00               0000020574VALCEREAL S.A.                          00000000000                                        20235741564PABLO WEIMAN                            1617  
00278592508    0019MAIZ                     3062197317320133235230305128230991633001001000029200L                              180222818615      00NDPA103  JORGE MARIA COLOMBATO                   0000000000005673016282638736430632251986JUAN ALBERTO SEGURA  S.R.L              0020908                                   A. Alcorta S/N - Terminal de Embarque Luis Piedrabuena      0233606945C 00               0000020574ENRIQUE R.ZENI SA.(BS.AS)               00000000000                                        30714868388LAL SH DE MENDIONDO Y CURRULEF          1617  
00278592516    0019MAIZ                     3062197317330710674570305596907551644101001000030740L                              180222818612      00NAA315KB AGRONEGOCIOS JEWELL S.R.L               0000000000005672689024326795130711841233TRABAJADORES UNIDOS COOPERATIVA DE TRABA0025667                                   A. Alcorta S/N - Terminal de Embarque Luis Piedrabuena      1264106945C 00               0000020574ROAGRO S.A.                             00000000000                                        30526730565AMATO Y CATALANO S.R.L                  1617  
00278592524    0019MAIZ                     3062197317330533342201305001208821817100001000030240L                              180222818616      00NUGP263  COOP.A.G.DE ESPARTILLAR                 0000000000005671907066135123230533342201COOP AGRC GAN LDA  DE ESPARTILLAR       0020485                                   A. Alcorta S/N - Terminal de Embarque Luis Piedrabuena      0561906945C 00               0000020574A.C.A. (BS.AS.)                         00000000000                                        20235741564PABLO WEIMAN                            1617  
00278592541    0019MAIZ                     3062197317330533342201305001208821817100001000030100L                              180222818617      00NCWK703  COOP.A.G.DE ESPARTILLAR                 0000000000005671907286149578030533342201COOP AGRC GAN LDA  DE ESPARTILLAR       0020485                                   A. Alcorta S/N - Terminal de Embarque Luis Piedrabuena      0561906945C 00               0000020574A.C.A. (BS.AS.)                         00000000000                                        20235741564PABLO WEIMAN                            1617  
00278592583    0019MAIZ                     3062197317330511355040307140180821636502001000029000L                              180222818618      00NTLI484  SUC.DE ANTONIO MORENO SA                0000000000005670471954460141320170875754ARIAGNO ARIEL                           00                                        A. Alcorta S/N - Terminal de Embarque Luis Piedrabuena      0453606945C 00               0000020574MAROUN S.A.                             00000000000                                        30709298700BILBAO CEREALES DE A E Y G D SRL        1617  
00278592591    0019MAIZ                     3062197317330613985995306190201341800000001000031100L                              180222818621      00NEAF162  LARTIRIGOYEN Y CIA. S.A.                0000000000005669522676595944530663322245ALEA Y CIA. S.A                         00                                        A. Alcorta S/N - Terminal de Embarque Luis Piedrabuena      0098106945C 00               0000020574VALCEREAL S.A.                          00000000000                                        20235741564PABLO WEIMAN                            1617  
00278592605    0019MAIZ                     3062197317330613985995306190201341800000001000030980L                              180222818622      00NEBX216  LARTIRIGOYEN Y CIA. S.A.                0000000000005669522666524848630663322245ALEA Y CIA. S.A                         00                                        A. Alcorta S/N - Terminal de Embarque Luis Piedrabuena      0098106945C 00               0000020574VALCEREAL S.A.                          00000000000                                        20235741564PABLO WEIMAN                            1617  
00278592621    0019MAIZ                     3062197317330685141694305289817001810301001000029600L                              180222818620      00NRYD170  FEDEA S.A.                              0000000000005672645528976877130683031239ACONDICIONADORA DE CEREALES EL DESVIO S.0023139                                   A. Alcorta S/N - Terminal de Embarque Luis Piedrabuena      0694506945C 00               0000020574GRANAR S.A.C. Y F.(BS.AS)               23214296799ESTEBAN MARIO VICTOR                    30714676314LC&OH MARZOLA SRL                       1617  
00278592630    0019MAIZ                     3062197317330613985995307036051051647104001000030260L                              180222818628      00NPBW577  LARTIRIGOYEN Y CIA. S.A.                0000000000005671260915415519030637300764EL BOYERO SA                            00                                        A. Alcorta S/N - Terminal de Embarque Luis Piedrabuena      1282906945C 00               0000020574FUTUROS Y OPCIONES COM SA               00000000000                                        20235741564PABLO WEIMAN                            1617  
00278592648    0019MAIZ                     3062197317330613985995307036051051647104001000030040L                              180222818624      00NAYJ981  LARTIRIGOYEN Y CIA. S.A.                0000000000005671260893445449330637300764EL BOYERO SA                            00                                        A. Alcorta S/N - Terminal de Embarque Luis Piedrabuena      1282906945C 00               0000020574FUTUROS Y OPCIONES COM SA               00000000000                                        20235741564PABLO WEIMAN                            1617  
00278592656    0019MAIZ                     3062197317330685141694305289817001627110001000029320L                              180222818623      00NRPI483  FEDEA S.A.                              0000000000005672766853040188830511857690ORTIZ DE URBINA S.A                     00                                        A. Alcorta S/N - Terminal de Embarque Luis Piedrabuena      1234706945C 00               0000020574GRANAR S.A.C. Y F.(BS.AS)               00000000000                                        30714676314LC&OH MARZOLA SRL                       1617  
00278592681    0019MAIZ                     3062197317330711756716307036051051810301001000030740L                              180222818625      00NJES953  SEMILLERO CATRIEL S.R.L                 0000000000005672645474944558830683031239ACONDICIONADORA DE CEREALES EL DESVIO S.0023139                                   A. Alcorta S/N - Terminal de Embarque Luis Piedrabuena      0694506945C 00               0000020574FUTUROS Y OPCIONES COM SA               00000000000                                        30714868388LAL SH DE MENDIONDO Y CURRULEF          1617  
00278592699    0019MAIZ                     3062197317330613985995305289817001800000001000029880L                              180222818627      00NERC505  LARTIRIGOYEN Y CIA. S.A.                0000000000005669522682590334530663322245ALEA Y CIA. S.A                         00                                        A. Alcorta S/N - Terminal de Embarque Luis Piedrabuena      0098106945C 00               0000020574GRANAR S.A.C. Y F.(BS.AS)               00000000000                                        20235741564PABLO WEIMAN                            1617  
00278592711    0019MAIZ                     3062197317330613985995307036051051647104001000030640L                              180222818626      00NFVC658  LARTIRIGOYEN Y CIA. S.A.                0000000000005671260875431020530637300764EL BOYERO SA                            00                                        A. Alcorta S/N - Terminal de Embarque Luis Piedrabuena      1282906945C 00               0000020574FUTUROS Y OPCIONES COM SA               00000000000                                        20235741564PABLO WEIMAN                            1617  
00278592737    0019MAIZ                     3062197317330537721274305289817001640302001000028540L                              180222818629      00NDRN964  TOMAS HNOS. Y CIA. S.A.                 0000000000005664676968357021730511740483RIMASA S.A.A.C.F.I                      00                                        A. Alcorta S/N - Terminal de Embarque Luis Piedrabuena      0621606945C 00               0000020574GRANAR S.A.C. Y F.(BS.AS)               00000000000                                        30707386076WILLIANS ENTREGAS SA                    1617  
00278592745    0019MAIZ                     3062197317330613985995307036051051647104001000032060L                              180222818631      00NUUF226  LARTIRIGOYEN Y CIA. S.A.                0000000000005671260883499010230637300764EL BOYERO SA                            00                                        A. Alcorta S/N - Terminal de Embarque Luis Piedrabuena      1282906945C 00               0000020574FUTUROS Y OPCIONES COM SA               00000000000                                        20235741564PABLO WEIMAN                            1617  
00278592753    0019MAIZ                     3062197317330537721274305289817001640302001000029580L                              180222818630      00NFAB200  TOMAS HNOS. Y CIA. S.A.                 0000000000005664676989368311630511740483RIMASA S.A.A.C.F.I                      00                                        A. Alcorta S/N - Terminal de Embarque Luis Piedrabuena      0621606945C 00               0000020574GRANAR S.A.C. Y F.(BS.AS)               00000000000                                        30707386076WILLIANS ENTREGAS SA                    1617  
00278592761    0019MAIZ                     3062197317330511993977305128230991630113001000029440L                              180222818632      00NEBZ651  SENDI S.E.C.P.A                         0000000000005672666076790926530511993977SENDI S.C.A                             00                                        A. Alcorta S/N - Terminal de Embarque Luis Piedrabuena      1393706945C 00               0000020574ENRIQUE R.ZENI SA.(BS.AS)               00000000000                                        30707093117CEREALES TIRABASSO                      1617  
00278592770    0019MAIZ                     3062197317320178354753305289817001750000001000028560L                              180222818635      00NAB022KI VAN DER HORST HORACIO                   0000000000005671092362366394520178354753VAN DER HORST HORACIO                   00                                        A. Alcorta S/N - Terminal de Embarque Luis Piedrabuena      1403706945C 00               0000020574GRANAR S.A.C. Y F.(BS.AS)               00000000000                                        30709298700BILBAO CEREALES DE A E Y G D SRL        1617  
00278592788    0019MAIZ                     3062197317333708839359305289817001750000001000029140L                              180222818633      00NAA547NL AGRO CER.TRES ARROYOS S.A               0000000000005671771326191143427200444391SKOU MARIANA                            00                                        A. Alcorta S/N - Terminal de Embarque Luis Piedrabuena      1403706945C 00               0000020574GRANAR S.A.C. Y F.(BS.AS)               00000000000                                        30709298700BILBAO CEREALES DE A E Y G D SRL        1617  
00278592800    0019MAIZ                     3062197317320178354753305289817001750000001000030060L                              180222818634      00NAA844IH VAN DER HORST HORACIO                   0000000000005671092372377249820178354753VAN DER HORST HORACIO                   00                                        A. Alcorta S/N - Terminal de Embarque Luis Piedrabuena      1403706945C 00               0000020574GRANAR S.A.C. Y F.(BS.AS)               00000000000                                        30709298700BILBAO CEREALES DE A E Y G D SRL        1617  
00278592818    0019MAIZ                     3062197317330537721274305289817001640302001000029120L                              180222818637      00NBSP798  TOMAS HNOS. Y CIA. S.A.                 0000000000005664677005359807530511740483RIMASA S.A.A.C.F.I                      00                                        A. Alcorta S/N - Terminal de Embarque Luis Piedrabuena      0621606945C 00               0000020574GRANAR S.A.C. Y F.(BS.AS)               00000000000                                        30707386076WILLIANS ENTREGAS SA                    1617  
00278592834    0019MAIZ                     3062197317330511993977305128230991630113001000030100L                              180222818636      00NAA684IX SENDI S.E.C.P.A                         0000000000005672666123792115230511993977SENDI S.C.A                             00                                        A. Alcorta S/N - Terminal de Embarque Luis Piedrabuena      1393706945C 00               0000020574ENRIQUE R.ZENI SA.(BS.AS)               00000000000                                        30707093117CEREALES TIRABASSO                      1617  
00278592842    0019MAIZ                     3062197317330537721274305289817001640302001000029780L                              180222818638      00NGFO464  TOMAS HNOS. Y CIA. S.A.                 0000000000005664677011371606130511740483RIMASA S.A.A.C.F.I                      00                                        A. Alcorta S/N - Terminal de Embarque Luis Piedrabuena      0621606945C 00               0000020574GRANAR S.A.C. Y F.(BS.AS)               00000000000                                        30707386076WILLIANS ENTREGAS SA                    1617  
00278592851    0019MAIZ                     3062197317330511993977305128230991630113001000030080L                              180222818639      00NHJS423  SENDI S.E.C.P.A                         0000000000005672666086752387030511993977SENDI S.C.A                             00                                        A. Alcorta S/N - Terminal de Embarque Luis Piedrabuena      1393706945C 00               0000020574ENRIQUE R.ZENI SA.(BS.AS)               00000000000                                        30707093117CEREALES TIRABASSO                      1617  
00278592869    0019MAIZ                     3062197317333708839359305289817001623102001000029400L                              180222818640      00NAA844II AGRO CER.TRES ARROYOS S.A               0000000000005671771336156034727200444391SKOU MARIANA                            00                                        A. Alcorta S/N - Terminal de Embarque Luis Piedrabuena      1403706945C 00               0000020574GRANAR S.A.C. Y F.(BS.AS)               00000000000                                        30709298700BILBAO CEREALES DE A E Y G D SRL        1617  
00278592877    0019MAIZ                     3062197317333708839359305289817001750000001000030980L                              180222818641      00NMDK731  AGRO CER.TRES ARROYOS S.A               0000000000005671771347195764927200444391SKOU MARIANA                            00                                        A. Alcorta S/N - Terminal de Embarque Luis Piedrabuena      1403706945C 00               0000020574GRANAR S.A.C. Y F.(BS.AS)               00000000000                                        30709298700BILBAO CEREALES DE A E Y G D SRL        1617  
00278592885    0017CEBADA CERVECERA         3062197317330507913411305001208821646901001000029520L                              180222818653      00NHSH447  COOP.AGR.EL PROGRESO DE H               0000000000005672799503136937730507913411COOP.AGROP. EL PROGRESO DE HENDERSON LT 0025236                                   A. Alcorta S/N - Terminal de Embarque Luis Piedrabuena      1002406945C 00               0000020574A.C.A. (BS.AS.)                         00000000000                                        30714868388LAL SH DE MENDIONDO Y CURRULEF          1718  
00278592893    0017CEBADA CERVECERA         3062197317330604456475306633808651647402001000030160L                              180222818649      00NAZP994  LOS GROBO AGROPECUARIA SA               0000000000005670550127676409630513687156ALFREDO MONTENOVO S.A. AGROPECUARIA Y CO00                                        A. Alcorta S/N - Terminal de Embarque Luis Piedrabuena      0720606945C 00               0000020574NEGOCIOS DE GRANOS S.A.                 00000000000                                        30707386076WILLIANS ENTREGAS SA                    1718  
00278592915    0019MAIZ                     3062197317323043831739307036051051631509001000029320L                              180222818642      00NAB630NU AYERZA ALEJANDRO                        0000000000005672021096970299623043831739AYERZA ALEJANDRO                        00                                        A. Alcorta S/N - Terminal de Embarque Luis Piedrabuena      1469406945C 00               0000020574FUTUROS Y OPCIONES COM SA               00000000000                                        30714868388LAL SH DE MENDIONDO Y CURRULEF          1617  
00278592923    0017CEBADA CERVECERA         3062197317330648731740306131997601815000001000024640L                              180222818647      00NWDL093  EL MALON S.A.                           0000000000005671540554015755430648731740EL MALON S.A                            00                                        A. Alcorta S/N - Terminal de Embarque Luis Piedrabuena      0408706945C 00               0000020574ALDACOUR DI MEGLIO S.A.                 00000000000                                        30709298700BILBAO CEREALES DE A E Y G D SRL        1718  
00278592931    0017CEBADA CERVECERA         3062197317330604456475306633808651647402001000029520L                              180222818650      00NCIO058  LOS GROBO AGROPECUARIA SA               0000000000005672695717641160630513687156ALFREDO MONTENOVO S.A. AGROPECUARIA Y CO00                                        A. Alcorta S/N - Terminal de Embarque Luis Piedrabuena      0720606945C 00               0000020574NEGOCIOS DE GRANOS S.A.                 00000000000                                        30707386076WILLIANS ENTREGAS SA                    1718  
00278592940    0017CEBADA CERVECERA         3062197317330695846912306079872771800000001000029000L                              180222818652      00NCGX576  VITTORI CEREALES S.R.L.                 0000000000005671654477200115230695846912VITTORI CEREALES SRL                    0021411                                   A. Alcorta S/N - Terminal de Embarque Luis Piedrabuena      0098106945C 00               0000020574MORGAN,GARCIA MANSILLA SA               00000000000                                        30714676314LC&OH MARZOLA SRL                       1718  
00278592958    0017CEBADA CERVECERA         3062197317330604456475306633808651647402001000030280L                              180222818648      00NOCE626  LOS GROBO AGROPECUARIA SA               0000000000005670550113693303030513687156ALFREDO MONTENOVO S.A. AGROPECUARIA Y CO00                                        A. Alcorta S/N - Terminal de Embarque Luis Piedrabuena      0720606945C 00               0000020574NEGOCIOS DE GRANOS S.A.                 00000000000                                        30707386076WILLIANS ENTREGAS SA                    1718  
00278592966    0017CEBADA CERVECERA         3062197317330695846912306079872771800000001000029980L                              180222818651      00NUMY739  VITTORI CEREALES S.R.L.                 0000000000005671654466246823230695846912VITTORI CEREALES SRL                    0021411                                   A. Alcorta S/N - Terminal de Embarque Luis Piedrabuena      0098106945C 00               0000020574MORGAN,GARCIA MANSILLA SA               00000000000                                        30714676314LC&OH MARZOLA SRL                       1718  
00278592974    0019MAIZ                     3062197317330537721274305289817001640302001000029160L                              180222818643      00NSAI095  TOMAS HNOS. Y CIA. S.A.                 0000000000005664676999367281130511740483RIMASA S.A.A.C.F.I                      00                                        A. Alcorta S/N - Terminal de Embarque Luis Piedrabuena      0621606945C 00               0000020574GRANAR S.A.C. Y F.(BS.AS)               00000000000                                        30707386076WILLIANS ENTREGAS SA                    1617  
00278592991    0019MAIZ                     3062197317330629494371307140180821750900001000031480L                              180222818645      00NAC148UO PORFIRI CEREALES S.A.                   0000000000005667607897050599020106475580THOMAS NESTOR LORENZO                   00                                        A. Alcorta S/N - Terminal de Embarque Luis Piedrabuena      1039806945C 00               0000020574MAROUN S.A.                             00000000000                                        20235741564PABLO WEIMAN                            1617  
00278593008    0019MAIZ                     3062197317330629494371307140180821750900001000032520L                              180222818646      00NTXN606  PORFIRI CEREALES S.A.                   0000000000005667608081097419220106475580THOMAS NESTOR LORENZO                   00                                        A. Alcorta S/N - Terminal de Embarque Luis Piedrabuena      1039806945C 00               0000020574MAROUN S.A.                             00000000000                                        20235741564PABLO WEIMAN                            1617  
00278593016    0019MAIZ                     3062197317330537721274305289817001640302001000029320L                              180222818644      00NAB255AA TOMAS HNOS. Y CIA. S.A.                 0000000000005664676979394218930511740483RIMASA S.A.A.C.F.I                      00                                        A. Alcorta S/N - Terminal de Embarque Luis Piedrabuena      0621606945C 00               0000020574GRANAR S.A.C. Y F.(BS.AS)               00000000000                                        30707386076WILLIANS ENTREGAS SA                    1617  
00278593024    0019MAIZ                     3062197317330629494371307140180821750900001000030620L                              180222818684      00NDXR695  PORFIRI CEREALES S.A.                   0000000000005667608094077132120106475580THOMAS NESTOR LORENZO                   00                                        A. Alcorta S/N - Terminal de Embarque Luis Piedrabuena      1039806945C 00               0000020574MAROUN S.A.                             00000000000                                        20235741564PABLO WEIMAN                            1617  
00278593032    0019MAIZ                     3062197317330679488666305175355711655503001000028540L                              180222818685      00NUCW840  ARIPAR CEREALES S.A.                    0000000000005672955044689372930679488666ARIPAR CEREALES SA                      0020356                                   A. Alcorta S/N - Terminal de Embarque Luis Piedrabuena      0437606945C 00               0000020574DUKAREVICH S.A.                         00000000000                                        30709298700BILBAO CEREALES DE A E Y G D SRL        1617  
00278593041    0019MAIZ                     3062197317330685141694305289817001627110001000026240L                              180222818686      00NDLY043  FEDEA S.A.                              0000000000005672766845044741930511857690ORTIZ DE URBINA S.A                     00                                        A. Alcorta S/N - Terminal de Embarque Luis Piedrabuena      1234706945C 00               0000020574GRANAR S.A.C. Y F.(BS.AS)               00000000000                                        30714676314LC&OH MARZOLA SRL                       1617  
00278593067    0019MAIZ                     3062197317330667343891305289817001750000001000028140L                              180222818687      00NAA602BR MORERO SEMILLAS Y CER. SA               0000000000005667834539163585630667343891MORERO SEMILLAS Y CEREALES S.A          0020887                                   A. Alcorta S/N - Terminal de Embarque Luis Piedrabuena      1406806945C 00               0000020574GRANAR S.A.C. Y F.(BS.AS)               00000000000                                        30709298700BILBAO CEREALES DE A E Y G D SRL        1617  
00278593075    0017CEBADA CERVECERA         3062197317330648731740306131997601815000001000029120L                              180222818661      00NRZB204  EL MALON S.A.                           0000000000005671540354009354830648731740EL MALON S.A                            00                                        A. Alcorta S/N - Terminal de Embarque Luis Piedrabuena      0408706945C 00               0000020574ALDACOUR DI MEGLIO S.A.                 00000000000                                        30709298700BILBAO CEREALES DE A E Y G D SRL        1718  
00278593083    0017CEBADA CERVECERA         3062197317330648731740306131997601815000001000028400L                              180222818658      00NUYW465  EL MALON S.A.                           0000000000005671540417057730230648731740EL MALON S.A                            00                                        A. Alcorta S/N - Terminal de Embarque Luis Piedrabuena      0408706945C 00               0000020574ALDACOUR DI MEGLIO S.A.                 00000000000                                        30709298700BILBAO CEREALES DE A E Y G D SRL        1718  
00278593105    0017CEBADA CERVECERA         3062197317330648731740306131997601815000001000030340L                              180222818655      00NBOC739  EL MALON S.A.                           0000000000005671540374094957030648731740EL MALON S.A                            00                                        A. Alcorta S/N - Terminal de Embarque Luis Piedrabuena      0408706945C 00               0000020574ALDACOUR DI MEGLIO S.A.                 00000000000                                        30709298700BILBAO CEREALES DE A E Y G D SRL        1718  
00278593113    0017CEBADA CERVECERA         3062197317330648731740306131997601815000001000027740L                              180222818657      00NVPY494  EL MALON S.A.                           0000000000005671540386071144130648731740EL MALON S.A                            00                                        A. Alcorta S/N - Terminal de Embarque Luis Piedrabuena      0408706945C 00               0000020574ALDACOUR DI MEGLIO S.A.                 00000000000                                        30709298700BILBAO CEREALES DE A E Y G D SRL        1718  
00278593121    0017CEBADA CERVECERA         3062197317330586447463305128230991818302001000028000L                              180222818660      00NGQY261  TEODORO TORRE S.A.                      0000000000005672189453305118430586447463TEODORO TORRE S.A.                      0020519                                   A. Alcorta S/N - Terminal de Embarque Luis Piedrabuena      0438406945C 00               0000020574ENRIQUE R.ZENI SA.(BS.AS)               00000000000                                        30709298700BILBAO CEREALES DE A E Y G D SRL        1718  
00278593130    0017CEBADA CERVECERA         3062197317330586447463305128230991818302001000028420L                              180222818659      00NJYV340  TEODORO TORRE S.A.                      0000000000005672189409325912530586447463TEODORO TORRE S.A.                      0020519                                   A. Alcorta S/N - Terminal de Embarque Luis Piedrabuena      0438406945C 00               0000020574ENRIQUE R.ZENI SA.(BS.AS)               00000000000                                        30709298700BILBAO CEREALES DE A E Y G D SRL        1718  
00278593148    0017CEBADA CERVECERA         3062197317330507913411305001208821646901001000029900L                              180222818656      00NAA751IW COOP.AGR.EL PROGRESO DE H               0000000000005672799538117240830507913411COOP.AGROP. EL PROGRESO DE HENDERSON LT 0025236                                   A. Alcorta S/N - Terminal de Embarque Luis Piedrabuena      1002406945C 00               0000020574A.C.A. (BS.AS.)                         00000000000                                        30714868388LAL SH DE MENDIONDO Y CURRULEF          1718  
00278593156    0017CEBADA CERVECERA         3062197317330695846912306079872771800000001000031600L                              180222818654      00NVBD073  VITTORI CEREALES S.R.L.                 0000000000005671654489247467630695846912VITTORI CEREALES SRL                    0021411                                   A. Alcorta S/N - Terminal de Embarque Luis Piedrabuena      0098106945C 00               0000020574MORGAN,GARCIA MANSILLA SA               00000000000                                        30714676314LC&OH MARZOLA SRL                       1718  
00278593202    0019MAIZ                     3062197317330667343891305289817001640902001000028880L                              180222818688      00NMTL504  MORERO SEMILLAS Y CER. SA               0000000000005667834522110549330667343891MORERO SEMILLAS Y CEREALES S.A          0020887                                   A. Alcorta S/N - Terminal de Embarque Luis Piedrabuena      1406806945C 00               0000020574GRANAR S.A.C. Y F.(BS.AS)               00000000000                                        30709298700BILBAO CEREALES DE A E Y G D SRL        1617  
00278593211    0019MAIZ                     3062197317330685141694305289817001627110001000030780L                              180222818690      00NLGL722  FEDEA S.A.                              0000000000005673245739034429230511857690ORTIZ DE URBINA S.A                     00                                        A. Alcorta S/N - Terminal de Embarque Luis Piedrabuena      1234706945C 00               0000020574GRANAR S.A.C. Y F.(BS.AS)               00000000000                                        30714676314LC&OH MARZOLA SRL                       1617  
00278593253    0019MAIZ                     3062197317330533342201305001208821817100001000029180L                              180222818689      00NCCN384  COOP.A.G.DE ESPARTILLAR                 0000000000005671907264188212430533342201COOP AGRC GAN LDA  DE ESPARTILLAR       0020485                                   A. Alcorta S/N - Terminal de Embarque Luis Piedrabuena      2163406945C 00               0000020574A.C.A. (BS.AS.)                         00000000000                                        20235741564PABLO WEIMAN                            1617  
00278593261    0019MAIZ                     3062197317330537721274307140180821754500001000030040L                              180222818691      00NAA074DZ TOMAS HNOS. Y CIA. S.A.                 0000000000005673469472445327720030281404DOUMA JACOBO                            00                                        A. Alcorta S/N - Terminal de Embarque Luis Piedrabuena      0679106945C 00               0000020574MAROUN S.A.                             00000000000                                        30707386076WILLIANS ENTREGAS SA                    1617  
00278593270    0019MAIZ                     3062197317330667343891305289817001640902001000028880L                              180222818692      00NAA602BQ MORERO SEMILLAS Y CER. SA               0000000000005667834463169717730667343891MORERO SEMILLAS Y CEREALES S.A          0020887                                   A. Alcorta S/N - Terminal de Embarque Luis Piedrabuena      1406806945C 00               0000020574GRANAR S.A.C. Y F.(BS.AS)               00000000000                                        30709298700BILBAO CEREALES DE A E Y G D SRL        1617  
00278593288    0019MAIZ                     3062197317330629494371307140180821750900001000030640L                              180222818694      00NFZJ967  PORFIRI CEREALES S.A.                   0000000000005667607954080352520106475580THOMAS NESTOR LORENZO                   00                                        A. Alcorta S/N - Terminal de Embarque Luis Piedrabuena      1039806945C 00               0000020574MAROUN S.A.                             00000000000                                        20235741564PABLO WEIMAN                            1617  
00278593296    0019MAIZ                     3062197317330707204660307140180821815600001000029640L                              180222818693      00NGSE032  RANCHO LARGO S.A                        0000000000005673436153058447930707204660RANCHO LARGO S A                        00                                        A. Alcorta S/N - Terminal de Embarque Luis Piedrabuena      0715706945C 00               0000020574MAROUN S.A.                             00000000000                                        30709289914WEIMAN JM Y ALDACOUR FG SH              1617  
00278593300    0019MAIZ                     3062197317330604456475307140180821643500001000029960L                              180222818695      00NWTM623  LOS GROBO AGROPECUARIA SA               0000000000005670975919595393530604456475LOS GROBO AGROPECUARIA S.A              0021420                                   A. Alcorta S/N - Terminal de Embarque Luis Piedrabuena      0657506945C 00               0000020574MAROUN S.A.                             00000000000                                        30707386076WILLIANS ENTREGAS SA                    1617  
00278593318    0019MAIZ                     3062197317330533342201305001208821817100001000029540L                              180222818696      00NEIH983  COOP.A.G.DE ESPARTILLAR                 0000000000005671907142127562730533342201COOP AGRC GAN LDA  DE ESPARTILLAR       0020485                                   A. Alcorta S/N - Terminal de Embarque Luis Piedrabuena      2163406945C 00               0000020574A.C.A. (BS.AS.)                         00000000000                                        20235741564PABLO WEIMAN                            1617  
00278593351    0019MAIZ                     3062197317330685141694305289817001627110001000029340L                              180222818700      00NFKF107  FEDEA S.A.                              0000000000005673245722071823530511857690ORTIZ DE URBINA S.A                     00                                        A. Alcorta S/N - Terminal de Embarque Luis Piedrabuena      1234706945C 00               0000020574GRANAR S.A.C. Y F.(BS.AS)               00000000000                                        30714676314LC&OH MARZOLA SRL                       1617  
00278593369    0019MAIZ                     3062197317330585699205305175355711740602001000031340L                              180222818701      00NLVQ231  PRODUC. GRAL.LAMADRID SA                0000000000005671305807577175430585699205PRODUCTORES DE GENERAL LAMADRID SA.     0020020                                   A. Alcorta S/N - Terminal de Embarque Luis Piedrabuena      0638206945C 00               0000020574DUKAREVICH S.A.                         00000000000                                        20235741564PABLO WEIMAN                            1617  
00278593377    0017CEBADA CERVECERA         3062197317330613985995306190201341754001001000029020L                              180222818672      00NAXO529  LARTIRIGOYEN Y CIA. S.A.                0000000000005672501817623852920042077926SANTAMARINA JOSE RAMON                  00                                        A. Alcorta S/N - Terminal de Embarque Luis Piedrabuena      0411906945C 00               0000020574VALCEREAL S.A.                          00000000000                                        30709289914WEIMAN JM Y ALDACOUR FG SH              1718  
00278593385    0017CEBADA CERVECERA         3062197317330507913411305001208821646901001000030000L                              180222818680      00NRGS732  COOP.AGR.EL PROGRESO DE H               0000000000005672799588195748530507913411COOP.AGROP. EL PROGRESO DE HENDERSON LT 0025236                                   A. Alcorta S/N - Terminal de Embarque Luis Piedrabuena      1002406945C 00               0000020574A.C.A. (BS.AS.)                         00000000000                                        30714868388LAL SH DE MENDIONDO Y CURRULEF          1718  
00278593393    0017CEBADA CERVECERA         3062197317330695846912305515186941816002001000030760L                              180222818677      00NRPL726  VITTORI CEREALES S.R.L.                 0000000000005671922649149695730526642631FUNDACION HOGAR RODOLFO FUNKE           00                                        A. Alcorta S/N - Terminal de Embarque Luis Piedrabuena      1395406945C 00               0000020574DIAZ RIGANTI CER.SRL (BA)               00000000000                                        30714676314LC&OH MARZOLA SRL                       1718  
00278593407    0017CEBADA CERVECERA         3062197317330648731740306131997601815000001000027260L                              180222818665      00NEQP397  EL MALON S.A.                           0000000000005671540348008805030648731740EL MALON S.A                            00                                        A. Alcorta S/N - Terminal de Embarque Luis Piedrabuena      0408706945C 00               0000020574ALDACOUR DI MEGLIO S.A.                 00000000000                                        30709298700BILBAO CEREALES DE A E Y G D SRL        1718  
00278593415    0017CEBADA CERVECERA         3062197317330507913411305001208821646901001000028880L                              180222818668      00NMTG727  COOP.AGR.EL PROGRESO DE H               0000000000005672799553134504730507913411COOP.AGROP. EL PROGRESO DE HENDERSON LT 0025236                                   A. Alcorta S/N - Terminal de Embarque Luis Piedrabuena      1002406945C 00               0000020574A.C.A. (BS.AS.)                         00000000000                                        30714868388LAL SH DE MENDIONDO Y CURRULEF          1718  
00278593423    0017CEBADA CERVECERA         3062197317330507913411305001208821646901001000030520L                              180222818667      00NUPP322  COOP.AGR.EL PROGRESO DE H               0000000000005672799545156932730507913411COOP.AGROP. EL PROGRESO DE HENDERSON LT 0025236                                   A. Alcorta S/N - Terminal de Embarque Luis Piedrabuena      1002406945C 00               0000020574A.C.A. (BS.AS.)                         00000000000                                        30714868388LAL SH DE MENDIONDO Y CURRULEF          1718  
00278593431    0017CEBADA CERVECERA         3062197317330695846912305515186941816002001000029300L                              180222818679      00NKYV606  VITTORI CEREALES S.R.L.                 0000000000005671922631178304030526642631FUNDACION HOGAR RODOLFO FUNKE           00                                        A. Alcorta S/N - Terminal de Embarque Luis Piedrabuena      1395406945C 00               0000020574DIAZ RIGANTI CER.SRL (BA)               00000000000                                        30714676314LC&OH MARZOLA SRL                       1718  
00278593440    0017CEBADA CERVECERA         3062197317320042077926306190201341754001001000030400L                              180222818671      00NEEG937  SANTAMARINA JOSE RAMON                  0000000000005672501825621707820042077926SANTAMARINA JOSE RAMON                  00                                        A. Alcorta S/N - Terminal de Embarque Luis Piedrabuena      0411906945C 00               0000020574VALCEREAL S.A.                          00000000000                                        30709289914WEIMAN JM Y ALDACOUR FG SH              1718  
00278593458    0017CEBADA CERVECERA         3062197317330586447463305128230991818302001000030820L                              180222818663      00NKHH817  TEODORO TORRE S.A.                      0000000000005672189438392596930586447463TEODORO TORRE S.A.                      0020519                                   A. Alcorta S/N - Terminal de Embarque Luis Piedrabuena      0438406945C 00               0000020574ENRIQUE R.ZENI SA.(BS.AS)               00000000000                                        30709298700BILBAO CEREALES DE A E Y G D SRL        1718  
00278593466    0017CEBADA CERVECERA         3062197317330507913411305001208821646901001000029140L                              180222818676      00NTVI303  COOP.AGR.EL PROGRESO DE H               0000000000005672799577172790630507913411COOP.AGROP. EL PROGRESO DE HENDERSON LT 0025236                                   A. Alcorta S/N - Terminal de Embarque Luis Piedrabuena      1002406945C 00               0000020574A.C.A. (BS.AS.)                         00000000000                                        30714868388LAL SH DE MENDIONDO Y CURRULEF          1718  
00278593474    0017CEBADA CERVECERA         3062197317330613985995306190201341754001001000030820L                              180222818675      00NWVR597  LARTIRIGOYEN Y CIA. S.A.                0000000000005672534967683574520042077926SANTAMARINA JOSE RAMON                  00                                        A. Alcorta S/N - Terminal de Embarque Luis Piedrabuena      0411906945C 00               0000020574VALCEREAL S.A.                          00000000000                                        30709289914WEIMAN JM Y ALDACOUR FG SH              1718  
00278593482    0017CEBADA CERVECERA         3062197317330695846912305515186941816002001000029380L                              180222818670      00NGVM129  VITTORI CEREALES S.R.L.                 0000000000005671922624164523630526642631FUNDACION HOGAR RODOLFO FUNKE           00                                        A. Alcorta S/N - Terminal de Embarque Luis Piedrabuena      1395406945C 00               0000020574DIAZ RIGANTI CER.SRL (BA)               00000000000                                        30714676314LC&OH MARZOLA SRL                       1718  
00278593491    0017CEBADA CERVECERA         3062197317320042077926306190201341754001001000030540L                              180222818673      00NFJO811  SANTAMARINA JOSE RAMON                  0000000000005672501789666426520042077926SANTAMARINA JOSE RAMON                  00                                        A. Alcorta S/N - Terminal de Embarque Luis Piedrabuena      0411906945C 00               0000020574VALCEREAL S.A.                          00000000000                                        30709289914WEIMAN JM Y ALDACOUR FG SH              1718  
00278593504    0017CEBADA CERVECERA         3062197317320073718768000000000001815000001000028180L                              180222818681      00NCEE444  RAUL H. PEREZ                           0000000000005672416637862331020073718768PEREZ RAUL HORACIO                      0021573                                   A. Alcorta S/N - Terminal de Embarque Luis Piedrabuena      0408706945C 00               0000020574DIRECTO                                 00000000000                                        30714868388LAL SH DE MENDIONDO Y CURRULEF          1718  
00278593512    0017CEBADA CERVECERA         3062197317330507913411305001208821646901001000029680L                              180222818666      00NHDN815  COOP.AGR.EL PROGRESO DE H               0000000000005672799595129691630507913411COOP.AGROP. EL PROGRESO DE HENDERSON LT 0025236                                   A. Alcorta S/N - Terminal de Embarque Luis Piedrabuena      1002406945C 00               0000020574A.C.A. (BS.AS.)                         00000000000                                        30714868388LAL SH DE MENDIONDO Y CURRULEF          1718  
00278593521    0017CEBADA CERVECERA         3062197317330648731740306131997601815000001000030940L                              180222818664      00NXBG927  EL MALON S.A.                           0000000000005671540336037948730648731740EL MALON S.A                            00                                        A. Alcorta S/N - Terminal de Embarque Luis Piedrabuena      0408706945C 00               0000020574ALDACOUR DI MEGLIO S.A.                 00000000000                                        30709298700BILBAO CEREALES DE A E Y G D SRL        1718  
00278593539    0017CEBADA CERVECERA         3062197317330586447463305128230991818302001000027700L                              180222818662      00NAB275AZ TEODORO TORRE S.A.                      0000000000005672189485366740130586447463TEODORO TORRE S.A.                      0020519                                   A. Alcorta S/N - Terminal de Embarque Luis Piedrabuena      0438406945C 00               0000020574ENRIQUE R.ZENI SA.(BS.AS)               00000000000                                        30709298700BILBAO CEREALES DE A E Y G D SRL        1718  
00278593547    0017CEBADA CERVECERA         3062197317320073718768000000000001815000001000029180L                              180222818683      00NEAU443  RAUL H. PEREZ                           0000000000005672416645806583820073718768PEREZ RAUL HORACIO                      0021573                                   A. Alcorta S/N - Terminal de Embarque Luis Piedrabuena      0408706945C 00               0000020574DIRECTO                                 00000000000                                        30714868388LAL SH DE MENDIONDO Y CURRULEF          1718  
00278593555    0017CEBADA CERVECERA         3062197317320073718768000000000001815000001000029800L                              180222818682      00NEXG856  RAUL H. PEREZ                           0000000000005672416653871045620073718768PEREZ RAUL HORACIO                      0021573                                   A. Alcorta S/N - Terminal de Embarque Luis Piedrabuena      0408706945C 00               0000020574DIRECTO                                 00000000000                                        30714868388LAL SH DE MENDIONDO Y CURRULEF          1718  
00278593563    0017CEBADA CERVECERA         3062197317330507913411305001208821646901001000030020L                              180222818674      00NXMU886  COOP.AGR.EL PROGRESO DE H               0000000000005672799524126352230507913411COOP.AGROP. EL PROGRESO DE HENDERSON LT 0025236                                   A. Alcorta S/N - Terminal de Embarque Luis Piedrabuena      1002406945C 00               0000020574A.C.A. (BS.AS.)                         00000000000                                        30714868388LAL SH DE MENDIONDO Y CURRULEF          1718  
00278593571    0017CEBADA CERVECERA         3062197317330507913411305001208821646901001000028660L                              180222818669      00NANU880  COOP.AGR.EL PROGRESO DE H               0000000000005672799513186428430507913411COOP.AGROP. EL PROGRESO DE HENDERSON LT 0025236                                   A. Alcorta S/N - Terminal de Embarque Luis Piedrabuena      1002406945C 00               0000020574A.C.A. (BS.AS.)                         00000000000                                        30714868388LAL SH DE MENDIONDO Y CURRULEF          1718  
00278593580    0017CEBADA CERVECERA         3062197317330507913411305001208821646901001000029660L                              180222818678      00NVKR901  COOP.AGR.EL PROGRESO DE H               0000000000005672799564133196330507913411COOP.AGROP. EL PROGRESO DE HENDERSON LT 0025236                                   A. Alcorta S/N - Terminal de Embarque Luis Piedrabuena      1002406945C 00               0000020574A.C.A. (BS.AS.)                         00000000000                                        30714868388LAL SH DE MENDIONDO Y CURRULEF          1718  
00278593598    0019MAIZ                     3062197317330585699205305175355711740602001000030660L                              180222818702      00NGBN573  PRODUC. GRAL.LAMADRID SA                0000000000005669606595506095030585699205PRODUCTORES DE GENERAL LAMADRID SA.     0020024                                   A. Alcorta S/N - Terminal de Embarque Luis Piedrabuena      0638206945C 00               0000020574DUKAREVICH S.A.                         00000000000                                        20235741564PABLO WEIMAN                            1617  
00278593601    0019MAIZ                     3062197317323043831739307036051051631509001000029080L                              180222818704      00NFSJ906  AYERZA ALEJANDRO                        0000000000005672021132996944923043831739AYERZA ALEJANDRO                        00                                        A. Alcorta S/N - Terminal de Embarque Luis Piedrabuena      1469406945C 00               0000020574FUTUROS Y OPCIONES COM SA               00000000000                                        30714868388LAL SH DE MENDIONDO Y CURRULEF          1617  
00278593610    0019MAIZ                     3062197317333581249549305289817001631500001000027120L                              180222818705      00NFHJ958  CEREALES QUEMU S.A.                     0000000000005673391992694488630671556336ROBERTO PABLO RAMOS S A                 00                                        A. Alcorta S/N - Terminal de Embarque Luis Piedrabuena      0323206945C 00               0000020574GRANAR S.A.C. Y F.(BS.AS)               00000000000                                        30709289914WEIMAN JM Y ALDACOUR FG SH              1617  
00278593628    0019MAIZ                     3062197317333581249549305289817001631500001000027620L                              180222818706      00NGFP823  CEREALES QUEMU S.A.                     0000000000005673391985608800130671556336ROBERTO PABLO RAMOS S A                 00                                        A. Alcorta S/N - Terminal de Embarque Luis Piedrabuena      0323206945C 00               0000020574GRANAR S.A.C. Y F.(BS.AS)               00000000000                                        30709289914WEIMAN JM Y ALDACOUR FG SH              1617  
00278593636    0019MAIZ                     3062197317330585699205305175355711740602001000029500L                              180222818709      00NFDM470  PRODUC. GRAL.LAMADRID SA                0000000000005671305819535658830585699205PRODUCTORES DE GENERAL LAMADRID SA.     0020020                                   A. Alcorta S/N - Terminal de Embarque Luis Piedrabuena      0638206945C 00               0000020574DUKAREVICH S.A.                         00000000000                                        20235741564PABLO WEIMAN                            1617  
00278593717    0015TRIGO PAN                3062197317330537721274307140180821640500001000028940L                              180222818729      00NAB927WN TOMAS HNOS. Y CIA. S.A.                 0000000000005670533883496269430537721274TOMAS HNOS Y CIA S.A.                   0021110                                   A. Alcorta S/N - Terminal de Embarque Luis Piedrabuena      0002406945C 00               0000020574MAROUN S.A.                             00000000000                                        30707386076WILLIANS ENTREGAS SA                    1718  
00278593733    0015TRIGO PAN                3062197317330537721274307140180821640500001000028020L                              180222818713      00NAB787RB TOMAS HNOS. Y CIA. S.A.                 0000000000005670533874492921830537721274TOMAS HNOS Y CIA S.A.                   0021110                                   A. Alcorta S/N - Terminal de Embarque Luis Piedrabuena      0002406945C 00               0000020574MAROUN S.A.                             00000000000                                        30707386076WILLIANS ENTREGAS SA                    1718  
00278593784    0015TRIGO PAN                3062197317330613985995305289817001642400001000029800L                              180222818714      00NXHZ181  LARTIRIGOYEN Y CIA. S.A.                0000000000005671669038698188930644861216DON OSVALDO SA                          00                                        A. Alcorta S/N - Terminal de Embarque Luis Piedrabuena      0147406945C 00               0000020574GRANAR S.A.C. Y F.(BS.AS)               00000000000                                        20235741564PABLO WEIMAN                            1718  
00278593792    0015TRIGO PAN                3062197317330537721274307140180821640500001000028520L                              180222818715      00NAB019YI TOMAS HNOS. Y CIA. S.A.                 0000000000005670533906430566030537721274TOMAS HNOS Y CIA S.A.                   0021110                                   A. Alcorta S/N - Terminal de Embarque Luis Piedrabuena      0002406945C 00               0000020574MAROUN S.A.                             00000000000                                        30707386076WILLIANS ENTREGAS SA                    1718  
00278593806    0015TRIGO PAN                3062197317330537721274307140180821640500001000029380L                              180222818716      00NLGX272  TOMAS HNOS. Y CIA. S.A.                 0000000000005670533915436407630537721274TOMAS HNOS Y CIA S.A.                   0021110                                   A. Alcorta S/N - Terminal de Embarque Luis Piedrabuena      0002406945C 00               0000020574MAROUN S.A.                             00000000000                                        30707386076WILLIANS ENTREGAS SA                    1718  
00278593814    0015TRIGO PAN                3062197317330537721274307140180821640500001000029100L                              180222818717      00NOZI512  TOMAS HNOS. Y CIA. S.A.                 0000000000005670533934431497030537721274TOMAS HNOS Y CIA S.A.                   0021110                                   A. Alcorta S/N - Terminal de Embarque Luis Piedrabuena      0002406945C 00               0000020574MAROUN S.A.                             00000000000                                        30707386076WILLIANS ENTREGAS SA                    1718  
00278593822    0015TRIGO PAN                3062197317330537721274307140180821640500001000028460L                              180222818718      00NAA732JA TOMAS HNOS. Y CIA. S.A.                 0000000000005670533894492311930537721274TOMAS HNOS Y CIA S.A.                   0021110                                   A. Alcorta S/N - Terminal de Embarque Luis Piedrabuena      0002406945C 00               0000020574MAROUN S.A.                             00000000000                                        30707386076WILLIANS ENTREGAS SA                    1718  
00278593831    0015TRIGO PAN                3062197317330537721274307140180821640500001000030240L                              180222818725      00NFXD286  TOMAS HNOS. Y CIA. S.A.                 0000000000005670533926402781130537721274TOMAS HNOS Y CIA S.A.                   0021110                                   A. Alcorta S/N - Terminal de Embarque Luis Piedrabuena      0002406945C 00               0000020574MAROUN S.A.                             00000000000                                        30707386076WILLIANS ENTREGAS SA                    1718  
00278593849    0015TRIGO PAN                3062197317330537721274307140180821640500001000030860L                              180222818719      00NFQF209  TOMAS HNOS. Y CIA. S.A.                 0000000000005670533957492384030537721274TOMAS HNOS Y CIA S.A.                   0021110                                   A. Alcorta S/N - Terminal de Embarque Luis Piedrabuena      0002406945C 00               0000020574MAROUN S.A.                             00000000000                                        30707386076WILLIANS ENTREGAS SA                    1718  
00278593857    0015TRIGO PAN                3062197317330537721274307140180821640302001000030160L                              180222818720      00NAA988AM TOMAS HNOS. Y CIA. S.A.                 0000000000005672177227467190630708114754AMADEO HERMANOS SOCIEDAD DE RESPONSABILI00                                        A. Alcorta S/N - Terminal de Embarque Luis Piedrabuena      0621606945C 00               0000020574MAROUN S.A.                             00000000000                                        30707386076WILLIANS ENTREGAS SA                    1718  
00278593865    0015TRIGO PAN                3062197317330537721274000000000001640500001000029640L                              180222818721      00NAB022DD TOMAS HNOS. Y CIA. S.A.                 0000000000005673306424221357630548339312FERNANDEZ SABINO RAUL Y CIA S.H. DE FERN00                                        A. Alcorta S/N - Terminal de Embarque Luis Piedrabuena      0002406945C 00               0000020574DIRECTO                                 00000000000                                        30707386076WILLIANS ENTREGAS SA                    1617  
00278593873    0015TRIGO PAN                3062197317330537721274307140180821640500001000031320L                              180222818722      00NVIO229  TOMAS HNOS. Y CIA. S.A.                 0000000000005670533947422072930537721274TOMAS HNOS Y CIA S.A.                   0021110                                   A. Alcorta S/N - Terminal de Embarque Luis Piedrabuena      0002406945C 00               0000020574MAROUN S.A.                             00000000000                                        30707386076WILLIANS ENTREGAS SA                    1718  
00278593881    0015TRIGO PAN                3062197317330537721274307140180821640500001000029220L                              180222818723      00NUJH946  TOMAS HNOS. Y CIA. S.A.                 0000000000005670533967432826430537721274TOMAS HNOS Y CIA S.A.                   0021110                                   A. Alcorta S/N - Terminal de Embarque Luis Piedrabuena      0002406945C 00               0000020574MAROUN S.A.                             00000000000                                        30707386076WILLIANS ENTREGAS SA                    1718  
00278593903    0015TRIGO PAN                3062197317330537721274307140180821640500001000029600L                              180222818724      00NEEI163  TOMAS HNOS. Y CIA. S.A.                 0000000000005670533973442126130537721274TOMAS HNOS Y CIA S.A.                   0021110                                   A. Alcorta S/N - Terminal de Embarque Luis Piedrabuena      0002406945C 00               0000020574MAROUN S.A.                             00000000000                                        30707386076WILLIANS ENTREGAS SA                    1718  
00278593911    0015TRIGO PAN                3062197317330537721274000000000001655000001000030080L                              180222818728      00NFDE241  TOMAS HNOS. Y CIA. S.A.                 0000000000005665264448462250530708291834DE CANALA ECHEVARRIA RICARDO RAUL Y DE C00                                        A. Alcorta S/N - Terminal de Embarque Luis Piedrabuena      0152606945C 00               0000020574DIRECTO                                 00000000000                                        30707386076WILLIANS ENTREGAS SA                    1718  
00278593920    0015TRIGO PAN                3062197317330537721274000000000001655000001000030480L                              180222818726      00NGYA580  TOMAS HNOS. Y CIA. S.A.                 0000000000005665264457464359230708291834DE CANALA ECHEVARRIA RICARDO RAUL Y DE C00                                        A. Alcorta S/N - Terminal de Embarque Luis Piedrabuena      0152606945C 00               0000020574DIRECTO                                 00000000000                                        30707386076WILLIANS ENTREGAS SA                    1718  
00278593938    0015TRIGO PAN                3062197317330613985995305289817001816403001000030620L                              180222818730      00NGQC488  LARTIRIGOYEN Y CIA. S.A.                0000000000005670293368997966233664877959MARIA MARTA Y MARIA AMALIA DUCOS SH     00                                        A. Alcorta S/N - Terminal de Embarque Luis Piedrabuena      0457706945C 00               0000020574GRANAR S.A.C. Y F.(BS.AS)               00000000000                                        20235741564PABLO WEIMAN                            1718  
00278594004    0015TRIGO PAN                3062197317330511355040307140180821655503001000031260L                              180222818733      00NOCE655  SUC.DE ANTONIO MORENO SA                0000000000005672413394475161930710498934FAMILIA SPORTELLI BONJOUR SA            00                                        A. Alcorta S/N - Terminal de Embarque Luis Piedrabuena      0437606945C 00               0000020574MAROUN S.A.                             00000000000                                        30709298700BILBAO CEREALES DE A E Y G D SRL        1617  
00278594021    0015TRIGO PAN                3062197317330613985995305289817001642400001000030640L                              180222818727      00NEML376  LARTIRIGOYEN Y CIA. S.A.                0000000000005671669063615638430644861216DON OSVALDO SA                          00                                        A. Alcorta S/N - Terminal de Embarque Luis Piedrabuena      0147406945C 00               0000020574GRANAR S.A.C. Y F.(BS.AS)               00000000000                                        20235741564PABLO WEIMAN                            1718  
00278594055    0015TRIGO PAN                3062197317330604456475307140180821740602001000029960L                              180222818731      00NFDR775  LOS GROBO AGROPECUARIA SA               0000000000005673351677686388630509283016LOS YUYOS SRL                           00                                        A. Alcorta S/N - Terminal de Embarque Luis Piedrabuena      0638206945C 00               0000020574MAROUN S.A.                             00000000000                                        30707386076WILLIANS ENTREGAS SA                    1718  
00278594063    0015TRIGO PAN                3062197317330604456475307140180821740602001000031340L                              180222818732      00NRJL583  LOS GROBO AGROPECUARIA SA               0000000000005673340844603690930509283016LOS YUYOS SRL                           00                                        A. Alcorta S/N - Terminal de Embarque Luis Piedrabuena      0638206945C 00               0000020574MAROUN S.A.                             00000000000                                        30707386076WILLIANS ENTREGAS SA                    1718  
00278594071    0019MAIZ                     3062197317330585699205305175355711740602001000030880L                              180222818711      00NLPW864  PRODUC. GRAL.LAMADRID SA                0000000000005669606609576356430585699205PRODUCTORES DE GENERAL LAMADRID SA.     0020024                                   A. Alcorta S/N - Terminal de Embarque Luis Piedrabuena      0638206945C 00               0000020574DUKAREVICH S.A.                         00000000000                                        20235741564PABLO WEIMAN                            1617  
00278594080    0015TRIGO PAN                3062197317330585699205305175355711740602001000030120L                              180222818734      00NEVF250  PRODUC. GRAL.LAMADRID SA                0000000000005671306484505662630585699205PRODUCTORES DE GENERAL LAMADRID SA.     0020021                                   A. Alcorta S/N - Terminal de Embarque Luis Piedrabuena      0638206945C 00               0000020574DUKAREVICH S.A.                         00000000000                                        20235741564PABLO WEIMAN                            1718  
00278594098    0015TRIGO PAN                3062197317330604456475307140180821740602001000018160L                              180222818735      00NUPN080  LOS GROBO AGROPECUARIA SA               0000000000005673589245615236230509283016LOS YUYOS SRL                           00                                        A. Alcorta S/N - Terminal de Embarque Luis Piedrabuena      0638206945C 00               0000020574MAROUN S.A.                             00000000000                                        30707386076WILLIANS ENTREGAS SA                    1718  
00278594101    0015TRIGO PAN                3062197317330585699205305175355711740602001000029980L                              180222818736      00NGPU514  PRODUC. GRAL.LAMADRID SA                0000000000005671306463559294230585699205PRODUCTORES DE GENERAL LAMADRID SA.     0020021                                   A. Alcorta S/N - Terminal de Embarque Luis Piedrabuena      0638206945C 00               0000020574DUKAREVICH S.A.                         00000000000                                        20235741564PABLO WEIMAN                            1718  
00278594110    0015TRIGO PAN                3062197317330511355040307140180821753000001000031660L                              180222818750      00NVZX256  SUC.DE ANTONIO MORENO SA                0000000000005673004409413168430595244494GUILLERMO A Y JOSE A CASTELLUCCI        00                                        A. Alcorta S/N - Terminal de Embarque Luis Piedrabuena      0411306945C 00               0000020574MAROUN S.A.                             00000000000                                        30709298700BILBAO CEREALES DE A E Y G D SRL        1718  
00278594128    0015TRIGO PAN                3062197317330585699205305175355711740602001000030340L                              180222818737      00NGIZ812  PRODUC. GRAL.LAMADRID SA                0000000000005671306471525972130585699205PRODUCTORES DE GENERAL LAMADRID SA.     0020021                                   A. Alcorta S/N - Terminal de Embarque Luis Piedrabuena      0638206945C 00               0000020574DUKAREVICH S.A.                         00000000000                                        20235741564PABLO WEIMAN                            1718  
00278594136    0015TRIGO PAN                3062197317330681135959305175355711810907001000026880L                              180222818739      00NLYR909  ARGENTIERRA S.A.                        0000000000005672545282950978330681135959ARGENTIERRA S.A                         00                                        A. Alcorta S/N - Terminal de Embarque Luis Piedrabuena      1098206945C 00               0000020574DUKAREVICH S.A.                         00000000000                                        30714868388LAL SH DE MENDIONDO Y CURRULEF          1718  
00278594144    0015TRIGO PAN                3062197317330681135959305175355711810907001000027780L                              180222818738      00NKKL147  ARGENTIERRA S.A.                        0000000000005672545274973946330681135959ARGENTIERRA S.A                         00                                        A. Alcorta S/N - Terminal de Embarque Luis Piedrabuena      1098206945C 00               0000020574DUKAREVICH S.A.                         00000000000                                        30714868388LAL SH DE MENDIONDO Y CURRULEF          1718  
00278594152    0015TRIGO PAN                3062197317330681135959305175355711810907001000027620L                              180222818741      00NFXW758  ARGENTIERRA S.A.                        0000000000005672545291942880930681135959ARGENTIERRA S.A                         00                                        A. Alcorta S/N - Terminal de Embarque Luis Piedrabuena      1098206945C 00               0000020574DUKAREVICH S.A.                         00000000000                                        30714868388LAL SH DE MENDIONDO Y CURRULEF          1718  
00278594161    0015TRIGO PAN                3062197317330681135959305175355711810907001000028460L                              180222818740      00NGKQ421  ARGENTIERRA S.A.                        0000000000005672545309983205030681135959ARGENTIERRA S.A                         00                                        A. Alcorta S/N - Terminal de Embarque Luis Piedrabuena      1098206945C 00               0000020574DUKAREVICH S.A.                         00000000000                                        30714868388LAL SH DE MENDIONDO Y CURRULEF          1718  
00278594179    0015TRIGO PAN                3062197317330613985995305289817001642400001000029080L                              180222818743      00NWPE445  LARTIRIGOYEN Y CIA. S.A.                0000000000005671669076635672130644861216DON OSVALDO SA                          00                                        A. Alcorta S/N - Terminal de Embarque Luis Piedrabuena      0147406945C 00               0000020574GRANAR S.A.C. Y F.(BS.AS)               00000000000                                        20235741564PABLO WEIMAN                            1718  
00278594187    0015TRIGO PAN                3062197317330527196422305175355711750000001000029840L                              180222818742      00NAB461DS COOP.RURAL LTDA. ALFA                   0000000000005670122978223712830527196422COOPERATIVA RURAL LIMITADA ALFA         0020168                                   A. Alcorta S/N - Terminal de Embarque Luis Piedrabuena      1403706945C 00               0000020574DUKAREVICH S.A.                         00000000000                                        30707711708AGRO MORALEJO S.R.L                     1718  
00278594209    0015TRIGO PAN                3062197317330613985995305289817001642400001000028700L                              180222818744      00NUXG653  LARTIRIGOYEN Y CIA. S.A.                0000000000005671537613607532930644861216DON OSVALDO SA                          00                                        A. Alcorta S/N - Terminal de Embarque Luis Piedrabuena      0147406945C 00               0000020574GRANAR S.A.C. Y F.(BS.AS)               00000000000                                        20235741564PABLO WEIMAN                            1718  
00278594217    0015TRIGO PAN                3062197317330613985995305289817001642400001000028740L                              180222818745      00NEIV961  LARTIRIGOYEN Y CIA. S.A.                0000000000005671669025663190630644861216DON OSVALDO SA                          00                                        A. Alcorta S/N - Terminal de Embarque Luis Piedrabuena      0147406945C 00               0000020574GRANAR S.A.C. Y F.(BS.AS)               00000000000                                        20235741564PABLO WEIMAN                            1718  
00278594233    0015TRIGO PAN                3062197317330613985995305289817001816403001000031040L                              180222818746      00NHFP371  LARTIRIGOYEN Y CIA. S.A.                0000000000005672796736940332333664877959MARIA MARTA Y MARIA AMALIA DUCOS SH     00                                        A. Alcorta S/N - Terminal de Embarque Luis Piedrabuena      0457706945C 00               0000020574GRANAR S.A.C. Y F.(BS.AS)               00000000000                                        20235741564PABLO WEIMAN                            1718  
00278594250    0015TRIGO PAN                3062197317330511355040307140180821753000001000032300L                              180222818749      00NWFV811  SUC.DE ANTONIO MORENO SA                0000000000005673004416476341030595244494GUILLERMO A Y JOSE A CASTELLUCCI        00                                        A. Alcorta S/N - Terminal de Embarque Luis Piedrabuena      0411306945C 00               0000020574MAROUN S.A.                             00000000000                                        30709298700BILBAO CEREALES DE A E Y G D SRL        1718  
00278594268    0015TRIGO PAN                3062197317330511355040307140180821753000001000032160L                              180222818748      00NWIZ287  SUC.DE ANTONIO MORENO SA                0000000000005673004397406623430595244494GUILLERMO A Y JOSE A CASTELLUCCI        00                                        A. Alcorta S/N - Terminal de Embarque Luis Piedrabuena      0411306945C 00               0000020574MAROUN S.A.                             00000000000                                        30709298700BILBAO CEREALES DE A E Y G D SRL        1718  
00278594276    0015TRIGO PAN                3062197317330511355040307140180821655503001000030540L                              180222818747      00NLLX474  SUC.DE ANTONIO MORENO SA                0000000000005672413403408868030710498934FAMILIA SPORTELLI BONJOUR SA            00                                        A. Alcorta S/N - Terminal de Embarque Luis Piedrabuena      0437606945C 00               0000020574MAROUN S.A.                             00000000000                                        30709298700BILBAO CEREALES DE A E Y G D SRL        1617  
00278594373    0015TRIGO PAN                3062197317330527196422305175355711750000001000029340L                              180222818751      00NKJQ757  COOP.RURAL LTDA. ALFA                   0000000000005670122989258893230527196422COOPERATIVA RURAL LIMITADA ALFA         0020168                                   A. Alcorta S/N - Terminal de Embarque Luis Piedrabuena      1403706945C 00               0000020574DUKAREVICH S.A.                         00000000000                                        30707711708AGRO MORALEJO S.R.L                     1718  
00278594390    0015TRIGO PAN                3062197317330613985995305289817001816403001000029200L                              180222818752      00NAA607EK LARTIRIGOYEN Y CIA. S.A.                0000000000005672796748926672133664877959MARIA MARTA Y MARIA AMALIA DUCOS SH     00                                        A. Alcorta S/N - Terminal de Embarque Luis Piedrabuena      0457706945C 00               0000020574GRANAR S.A.C. Y F.(BS.AS)               00000000000                                        20235741564PABLO WEIMAN                            1718  
00278594403    0015TRIGO PAN                3062197317330613985995305289817001632600001000028420L                              180222818754      00NCDK022  LARTIRIGOYEN Y CIA. S.A.                0000000000005673190362225335527063907192RINAUDO ANA MARIA                       00                                        A. Alcorta S/N - Terminal de Embarque Luis Piedrabuena      0058206945C 00               0000020574GRANAR S.A.C. Y F.(BS.AS)               00000000000                                        20235741564PABLO WEIMAN                            1718  
00278594411    0019MAIZ                     3062197317330707204660307140180821815600001000029420L                              180222818757      00NWWI105  RANCHO LARGO S.A                        0000000000005673436166031313330707204660RANCHO LARGO S A                        00                                        A. Alcorta S/N - Terminal de Embarque Luis Piedrabuena      0715706945C 00               0000020574MAROUN S.A.                             00000000000                                        30709289914WEIMAN JM Y ALDACOUR FG SH              1617  
00278594420    0019MAIZ                     3062197317330537721274307140180821800000001000028140L                              180222818759      00NEKO899  TOMAS HNOS. Y CIA. S.A.                 0000000000005671654505258264430695846912VITTORI CEREALES SRL                    0021411                                   A. Alcorta S/N - Terminal de Embarque Luis Piedrabuena      0098106945C 00               0000020574MAROUN S.A.                             30712020659AGROANGUS S.A                           30707386076WILLIANS ENTREGAS SA                    1617  
00278594438    0019MAIZ                     3062197317330708524197306131997601646901001000031020L                              180222818758      00NAB962LR GRANO SUR S.R.L.                        0000000000005673552989779254130572208687EL GRANERO S.A                          0020126                                   A. Alcorta S/N - Terminal de Embarque Luis Piedrabuena      1002406945C 00               0000020574ALDACOUR DI MEGLIO S.A.                 00000000000                                        30709298700BILBAO CEREALES DE A E Y G D SRL        1617  
00278594446    0019MAIZ                     3062197317330708524197306131997601646901001000030100L                              180222818761      00NIYO811  GRANO SUR S.R.L.                        0000000000005673552976741413830572208687EL GRANERO S.A                          0020126                                   A. Alcorta S/N - Terminal de Embarque Luis Piedrabuena      1002406945C 00               0000020574ALDACOUR DI MEGLIO S.A.                 00000000000                                        30709298700BILBAO CEREALES DE A E Y G D SRL        1617  
00278594454    0019MAIZ                     3062197317330537721274307140180821800000001000029540L                              180222818764      00NLKV179  TOMAS HNOS. Y CIA. S.A.                 0000000000005671654495224239730695846912VITTORI CEREALES SRL                    0021411                                   A. Alcorta S/N - Terminal de Embarque Luis Piedrabuena      0098106945C 00               0000020574MAROUN S.A.                             30712020659AGROANGUS S.A                           30707386076WILLIANS ENTREGAS SA                    1617  
00278594462    0019MAIZ                     3062197317330585699205305175355711740602001000031260L                              180222818760      00NMDO950  PRODUC. GRAL.LAMADRID SA                0000000000005671305856504098230585699205PRODUCTORES DE GENERAL LAMADRID SA.     0020020                                   A. Alcorta S/N - Terminal de Embarque Luis Piedrabuena      0638206945C 00               0000020574DUKAREVICH S.A.                         00000000000                                        20235741564PABLO WEIMAN                            1617  
00278594471    0019MAIZ                     3062197317330667343891305289817001640902001000028600L                              180222818763      00NKGB335  MORERO SEMILLAS Y CER. SA               0000000000005672973254138172530667343891MORERO SEMILLAS Y CEREALES S.A          0020887                                   A. Alcorta S/N - Terminal de Embarque Luis Piedrabuena      1406806945C 00               0000020574GRANAR S.A.C. Y F.(BS.AS)               00000000000                                        30709298700BILBAO CEREALES DE A E Y G D SRL        1617  
00278594489    0019MAIZ                     3062197317330537721274307140180821816002001000031120L                              180222818762      00NCBZ547  TOMAS HNOS. Y CIA. S.A.                 0000000000005673096117712646230657083417USTUA S.A.                              0022655                                   A. Alcorta S/N - Terminal de Embarque Luis Piedrabuena      1395406945C 00               0000020574MAROUN S.A.                             30678098759LOS JACARANDAES S.A                     30707386076WILLIANS ENTREGAS SA                    1617  
00278594578    0015TRIGO PAN                3062197317330613985995305289817001632600001000029640L                              180222818753      00NEDV527  LARTIRIGOYEN Y CIA. S.A.                0000000000005673190359220438027063907192RINAUDO ANA MARIA                       00                                        A. Alcorta S/N - Terminal de Embarque Luis Piedrabuena      0058206945C 00               0000020574GRANAR S.A.C. Y F.(BS.AS)               00000000000                                        20235741564PABLO WEIMAN                            1718  
00278594586    0015TRIGO PAN                3062197317330613985995305289817001632600001000030360L                              180222818755      00NAC330NX LARTIRIGOYEN Y CIA. S.A.                0000000000005673190347288950527063907192RINAUDO ANA MARIA                       00                                        A. Alcorta S/N - Terminal de Embarque Luis Piedrabuena      0058206945C 00               0000020574GRANAR S.A.C. Y F.(BS.AS)               00000000000                                        20235741564PABLO WEIMAN                            1718  
00278594594    0015TRIGO PAN                3062197317330604456475307140180821754001001000029100L                              180222818756      00NBPX915  LOS GROBO AGROPECUARIA SA               0000000000005673415844066910720133233300GALLARDO ERNESTO RAUL                   00                                        A. Alcorta S/N - Terminal de Embarque Luis Piedrabuena      0411906945C 00               0000020574MAROUN S.A.                             00000000000                                        30707386076WILLIANS ENTREGAS SA                    1718  
00278594624    0019MAIZ                     3062197317330613985995307036051051647104001000030500L                              180222818768      00NTPZ405  LARTIRIGOYEN Y CIA. S.A.                0000000000005671260968443157530637300764EL BOYERO SA                            00                                        A. Alcorta S/N - Terminal de Embarque Luis Piedrabuena      1282906945C 00               0000020574FUTUROS Y OPCIONES COM SA               00000000000                                        20235741564PABLO WEIMAN                            1617  
00278594632    0019MAIZ                     3062197317330710674570305596907551644101001000030900L                              180222818767      00NAA247WS AGRONEGOCIOS JEWELL S.R.L               0000000000005672689067364733830711841233TRABAJADORES UNIDOS COOPERATIVA DE TRABA0025667                                   A. Alcorta S/N - Terminal de Embarque Luis Piedrabuena      1264106945C 00               0000020574ROAGRO S.A.                             00000000000                                        30526730565AMATO Y CATALANO S.R.L                  1617  
00278594641    0019MAIZ                     3062197317330679488666307140180821655503001000028860L                              180222818770      00NUQA454  ARIPAR CEREALES S.A.                    0000000000005672955057665563030679488666ARIPAR CEREALES SA                      0020356                                   A. Alcorta S/N - Terminal de Embarque Luis Piedrabuena      0437606945C 00               0000020574MAROUN S.A.                             00000000000                                        30709298700BILBAO CEREALES DE A E Y G D SRL        1617  
00278594659    0019MAIZ                     3062197317330537721274307140180821816002001000029660L                              180222818769      00NOYZ786  TOMAS HNOS. Y CIA. S.A.                 0000000000005673096072789849730657083417USTUA S.A.                              0022655                                   A. Alcorta S/N - Terminal de Embarque Luis Piedrabuena      1395406945C 00               0000020574MAROUN S.A.                             30678098759LOS JACARANDAES S.A                     30707386076WILLIANS ENTREGAS SA                    1617  
00278594667    0019MAIZ                     3062197317330537721274307140180821655101001000029980L                              180222818771      00NUXK320  TOMAS HNOS. Y CIA. S.A.                 0000000000005673173373823624820041593718PEREYRA IRAOLA IGNACIO RAFAEL           00                                        A. Alcorta S/N - Terminal de Embarque Luis Piedrabuena      1117706945C 00               0000020574MAROUN S.A.                             00000000000                                        30707386076WILLIANS ENTREGAS SA                    1617  
00278594675    0019MAIZ                     3062197317330537721274307140180821816002001000030840L                              180222818772      00NFEW285  TOMAS HNOS. Y CIA. S.A.                 0000000000005673096082710816230657083417USTUA S.A.                              0022655                                   A. Alcorta S/N - Terminal de Embarque Luis Piedrabuena      1395406945C 00               0000020574MAROUN S.A.                             30678098759LOS JACARANDAES S.A                     30707386076WILLIANS ENTREGAS SA                    1617  
00278594691    0019MAIZ                     3062197317330613985995307036051051647104001000028940L                              180222818773      00NTBY318  LARTIRIGOYEN Y CIA. S.A.                0000000000005671260928490182430637300764EL BOYERO SA                            00                                        A. Alcorta S/N - Terminal de Embarque Luis Piedrabuena      1282906945C 00               0000020574FUTUROS Y OPCIONES COM SA               00000000000                                        20235741564PABLO WEIMAN                            1617  
00278594705    0019MAIZ                     3062197317330511993977305128230991630113001000030740L                              180222818774      00NGZC452  SENDI S.E.C.P.A                         0000000000005672666167717501730511993977SENDI S.C.A                             00                                        A. Alcorta S/N - Terminal de Embarque Luis Piedrabuena      1393706945C 00               0000020574ENRIQUE R.ZENI SA.(BS.AS)               00000000000                                        30707093117CEREALES TIRABASSO                      1617  
00278594713    0019MAIZ                     3062197317330511993977305128230991630113001000029880L                              180222818775      00NGNB247  SENDI S.E.C.P.A                         0000000000005672666146768460930511993977SENDI S.C.A                             00                                        A. Alcorta S/N - Terminal de Embarque Luis Piedrabuena      1393706945C 00               0000020574ENRIQUE R.ZENI SA.(BS.AS)               00000000000                                        30707093117CEREALES TIRABASSO                      1617  
00278594721    0019MAIZ                     3062197317330585699205305175355711740602001000028980L                              180222818778      00NAYQ319  PRODUC. GRAL.LAMADRID SA                0000000000005671305864586938630585699205PRODUCTORES DE GENERAL LAMADRID SA.     0020020                                   A. Alcorta S/N - Terminal de Embarque Luis Piedrabuena      0638206945C 00               0000020574DUKAREVICH S.A.                         00000000000                                        20235741564PABLO WEIMAN                            1617  
00278594730    0019MAIZ                     3062197317330685141694305289817001627110001000028540L                              180222818776      00NDAY305  FEDEA S.A.                              0000000000005673245759097703630511857690ORTIZ DE URBINA S.A                     00                                        A. Alcorta S/N - Terminal de Embarque Luis Piedrabuena      1234706945C 00               0000020574GRANAR S.A.C. Y F.(BS.AS)               00000000000                                        30714676314LC&OH MARZOLA SRL                       1617  
00278594748    0019MAIZ                     3062197317330585699205305175355711740602001000030040L                              180222818777      00NGPF666  PRODUC. GRAL.LAMADRID SA                0000000000005673382929572360730585699205PRODUCTORES DE GENERAL LAMADRID SA.     0020020                                   A. Alcorta S/N - Terminal de Embarque Luis Piedrabuena      0638206945C 00               0000020574DUKAREVICH S.A.                         00000000000                                        20235741564PABLO WEIMAN                            1617  
00278592362    0019MAIZ                     3062197317333581249549305289817001800000001000053820L                              180222337291      00N        CEREALES QUEMU S.A.                     0000000000005673155680000000030604136489ACONDICIONADORA  SAN CAYETANO  SRL      0020818                                   A. Alcorta S/N - Terminal de Embarque Luis Piedrabuena      0098106945V 07895995         0000020574GRANAR S.A.C. Y F.(BS.AS)               00000000000                                        20235741564PABLO WEIMAN                            1718  
00278592371    0019MAIZ                     3062197317333581249549305289817001800000001000054400L                              180222337291      00N        CEREALES QUEMU S.A.                     0000000000005673155680000000030604136489ACONDICIONADORA  SAN CAYETANO  SRL      0020818                                   A. Alcorta S/N - Terminal de Embarque Luis Piedrabuena      0098106945V 07887281         0000020574GRANAR S.A.C. Y F.(BS.AS)               00000000000                                        20235741564PABLO WEIMAN                            1718  
00278592397    0019MAIZ                     3062197317333581249549305289817001800000001000054420L                              180222337291      00N        CEREALES QUEMU S.A.                     0000000000005673155680000000030604136489ACONDICIONADORA  SAN CAYETANO  SRL      0020818                                   A. Alcorta S/N - Terminal de Embarque Luis Piedrabuena      0098106945V 07890335         0000020574GRANAR S.A.C. Y F.(BS.AS)               00000000000                                        20235741564PABLO WEIMAN                            1718  
00278592401    0019MAIZ                     3062197317330613985995305515186941810301001000050760L                              180222337289      00N        LARTIRIGOYEN Y CIA. S.A.                0000000000005672018240000000030712470999LA PLANTA SRL EN FORMACION DE SOULE CANA00406441                                  A. Alcorta S/N - Terminal de Embarque Luis Piedrabuena      0694506945V 02838862         0000020574DIAZ RIGANTI CER.SRL (BA)               00000000000                                        20235741564PABLO WEIMAN                            1718  
00278592419    0019MAIZ                     3062197317330613985995305515186941810301001000049440L                              180222337289      00N        LARTIRIGOYEN Y CIA. S.A.                0000000000005672018240000000030712470999LA PLANTA SRL EN FORMACION DE SOULE CANA00406441                                  A. Alcorta S/N - Terminal de Embarque Luis Piedrabuena      0694506945V 02844852         0000020574DIAZ RIGANTI CER.SRL (BA)               00000000000                                        20235741564PABLO WEIMAN                            1718  
00278592427    0019MAIZ                     3062197317330500120882305001208821810301001000046720L                              180222337286      00N        A.C.A. (BS.AS.)                         0000000000005672018220000000030712470999LA PLANTA SRL EN FORMACION DE SOULE CANA00406441                                  A. Alcorta S/N - Terminal de Embarque Luis Piedrabuena      0694506945V 03822346         0000020574A.C.A. (BS.AS.)                         00000000000                                        30707386076WILLIANS ENTREGAS SA                    1617  
00278592435    0019MAIZ                     3062197317330500120882305001208821810301001000048100L                              180222337286      00N        A.C.A. (BS.AS.)                         0000000000005672018220000000030712470999LA PLANTA SRL EN FORMACION DE SOULE CANA00406441                                  A. Alcorta S/N - Terminal de Embarque Luis Piedrabuena      0694506945V 03838615         0000020574A.C.A. (BS.AS.)                         00000000000                                        30707386076WILLIANS ENTREGAS SA                    1617  
00278592702    0019MAIZ                     3062197317330557748551305989737801623700001000044520L                              180222337287      00N        PRUNDER S.A.                            0000000000005670592470000000030557748551PRUNDER S.A                             0020077                                   A. Alcorta S/N - Terminal de Embarque Luis Piedrabuena      0050506945V 34837419         0000020574CORTINA BERUATTO S.A.                   00000000000                                        30707386076WILLIANS ENTREGAS SA                    1617  
00278592729    0019MAIZ                     3062197317330557748551305989737801623700001000043480L                              180222337287      00N        PRUNDER S.A.                            0000000000005670592470000000030557748551PRUNDER S.A                             0020077                                   A. Alcorta S/N - Terminal de Embarque Luis Piedrabuena      0050506945V 34852996         0000020574CORTINA BERUATTO S.A.                   00000000000                                        30707386076WILLIANS ENTREGAS SA                    1617  
00278592796    0019MAIZ                     3062197317330557748551305989737801623700001000044220L                              180222337287      00N        PRUNDER S.A.                            0000000000005670592470000000030557748551PRUNDER S.A                             0020077                                   A. Alcorta S/N - Terminal de Embarque Luis Piedrabuena      0050506945V 34805721         0000020574CORTINA BERUATTO S.A.                   00000000000                                        30707386076WILLIANS ENTREGAS SA                    1617  
00278592826    0019MAIZ                     3062197317330557748551305989737801623700001000043380L                              180222337287      00N        PRUNDER S.A.                            0000000000005670592470000000030557748551PRUNDER S.A                             0020077                                   A. Alcorta S/N - Terminal de Embarque Luis Piedrabuena      0050506945V 34901942         0000020574CORTINA BERUATTO S.A.                   00000000000                                        30707386076WILLIANS ENTREGAS SA                    1617  
00278592907    0019MAIZ                     3062197317330557748551305989737801623700001000042620L                              180222337287      00N        PRUNDER S.A.                            0000000000005670592470000000030557748551PRUNDER S.A                             0020077                                   A. Alcorta S/N - Terminal de Embarque Luis Piedrabuena      0050506945V 34889014         0000020574CORTINA BERUATTO S.A.                   00000000000                                        30707386076WILLIANS ENTREGAS SA                    1617  
00278592982    0019MAIZ                     3062197317330557748551305989737801623700001000043940L                              180222337287      00N        PRUNDER S.A.                            0000000000005670592470000000030557748551PRUNDER S.A                             0020077                                   A. Alcorta S/N - Terminal de Embarque Luis Piedrabuena      0050506945V 34821843         0000020574CORTINA BERUATTO S.A.                   00000000000                                        30707386076WILLIANS ENTREGAS SA                    1617  
00278593059    0019MAIZ                     3062197317330557748551305989737801623700001000043880L                              180222337287      00N        PRUNDER S.A.                            0000000000005670592470000000030557748551PRUNDER S.A                             0020077                                   A. Alcorta S/N - Terminal de Embarque Luis Piedrabuena      0050506945V 34854026         0000020574CORTINA BERUATTO S.A.                   00000000000                                        30707386076WILLIANS ENTREGAS SA                    1617  
00278593091    0019MAIZ                     3062197317330557748551305989737801623700001000042060L                              180222337287      00N        PRUNDER S.A.                            0000000000005670592470000000030557748551PRUNDER S.A                             0020077                                   A. Alcorta S/N - Terminal de Embarque Luis Piedrabuena      0050506945V 34889667         0000020574CORTINA BERUATTO S.A.                   00000000000                                        30707386076WILLIANS ENTREGAS SA                    1617  
00278593164    0019MAIZ                     3062197317330557748551305989737801623700001000043880L                              180222337287      00N        PRUNDER S.A.                            0000000000005670592470000000030557748551PRUNDER S.A                             0020077                                   A. Alcorta S/N - Terminal de Embarque Luis Piedrabuena      0050506945V 34837575         0000020574CORTINA BERUATTO S.A.                   00000000000                                        30707386076WILLIANS ENTREGAS SA                    1617  
00278593172    0019MAIZ                     3062197317330557748551305989737801623700001000043980L                              180222337287      00N        PRUNDER S.A.                            0000000000005670592470000000030557748551PRUNDER S.A                             0020077                                   A. Alcorta S/N - Terminal de Embarque Luis Piedrabuena      0050506945V 34853069         0000020574CORTINA BERUATTO S.A.                   00000000000                                        30707386076WILLIANS ENTREGAS SA                    1617  
