99999999ADM AGRO S.R.L.                                                                                                                                        !
03042018ADM AGRO S.R.L.     CEBADA FORRAJERA    911         PC00920024COOP.AGR.GANAD.SAN MA.C.A. (BS.AS.)     30-62197317-330-53341819-430-50012088-2          !
03042018ADM AGRO S.R.L.     CEBADA FORRAJERA    911         PC00920065TRIMAG S.A.         MAROUN S.A.         30-62197317-330-68083069-630-71401808-2          !
03042018ADM AGRO S.R.L.     CEBADA FORRAJERA    911         PC00920198COOP.AGR.GANAD.SAN MA.C.A. (BS.AS.)     30-62197317-330-53341819-430-50012088-2          !
03042018MALT PAMPA SA (S)   CEBADA CERVECERA    911         PC00920355                                        30-62022318-900-00000000-000-00000000-0          !
03042018ADM AGRO S.R.L.     CEBADA FORRAJERA    911         PC00920555TRIMAG S.A.         DUKAREVICH S.A.     30-62197317-330-68083069-630-51753557-1          !
03042018ADM AGRO S.R.L.     CEBADA FORRAJERA    911         PC00920585TRIMAG S.A.         DUKAREVICH S.A.     30-62197317-330-68083069-630-51753557-1          !
03042018ADM AGRO S.R.L.     CEBADA FORRAJERA    911         PC00920853COOP.AGR.GANAD.SAN MA.C.A. (BS.AS.)     30-62197317-330-53341819-430-50012088-2          !
03042018ADM AGRO S.R.L.     CEBADA FORRAJERA    911         PC00920981COOP.AGR.GANAD.SAN MA.C.A. (BS.AS.)     30-62197317-330-53341819-430-50012088-2          !
03042018MALT PAMPA SA (S)   CEBADA CERVECERA    911         PC00920984                                        30-62022318-900-00000000-000-00000000-0          !
03042018MALT PAMPA SA (S)   CEBADA CERVECERA    911         PC00920961                                        30-62022318-900-00000000-000-00000000-0          !
03042018ADM AGRO S.R.L.     CEBADA FORRAJERA    911         PC00920783SUC.DE ANTONIO MORENDIRECTO             30-62197317-330-51135504-000-00000000-0          !
03042018ADM AGRO S.R.L.     CEBADA FORRAJERA    911         PC00920684ESTANCIAS LA ALICIA ENRIQUE R.ZENI SA.(B30-62197317-330-51231486-030-51282309-9          !
03042018ADM AGRO S.R.L.     CEBADA FORRAJERA    911         PC00920957ALVAREZ NEUMATICOS SMAROUN S.A.         30-62197317-330-62212069-730-71401808-2          !
03042018ADM AGRO S.R.L.     CEBADA FORRAJERA    911         PC00920990ALVAREZ NEUMATICOS SMAROUN S.A.         30-62197317-330-62212069-730-71401808-2          !
03042018MALT PAMPA SA (S)   CEBADA CERVECERA    911         PC00922083                                        30-62022318-900-00000000-000-00000000-0          !
03042018MALT PAMPA SA (S)   CEBADA CERVECERA    911         PC00921567                                        30-62022318-900-00000000-000-00000000-0          !
03042018MALT PAMPA SA (S)   CEBADA CERVECERA    911         PC00921652                                        30-62022318-900-00000000-000-00000000-0          !
03042018MALT PAMPA SA (S)   CEBADA CERVECERA    911         PC00921745                                        30-62022318-900-00000000-000-00000000-0          !
03042018MALT PAMPA SA (S)   CEBADA CERVECERA    911         PC00921746                                        30-62022318-900-00000000-000-00000000-0          !
03042018MALT PAMPA SA (S)   CEBADA CERVECERA    911         PC00921822                                        30-62022318-900-00000000-000-00000000-0          !
03042018MALT PAMPA SA (S)   CEBADA CERVECERA    911         PC00921848                                        30-62022318-900-00000000-000-00000000-0          !
03042018MALT PAMPA SA (S)   CEBADA CERVECERA    911         PC00921908                                        30-62022318-900-00000000-000-00000000-0          !
03042018MALT PAMPA SA (S)   CEBADA CERVECERA    911         PC00922160                                        30-62022318-900-00000000-000-00000000-0          !
03042018MALT PAMPA SA (S)   CEBADA CERVECERA    911         PC00921939                                        30-62022318-900-00000000-000-00000000-0          !
03042018MALT PAMPA SA (S)   CEBADA CERVECERA    911         PC00921928                                        30-62022318-900-00000000-000-00000000-0          !
03042018MALT PAMPA SA (S)   CEBADA CERVECERA    911         PC00921614                                        30-62022318-900-00000000-000-00000000-0          !
03042018MALT PAMPA SA (S)   CEBADA CERVECERA    911         PC00921341                                        30-62022318-900-00000000-000-00000000-0          !
03042018ADM AGRO S.R.L.     CEBADA FORRAJERA    911         PC00922280ALVAREZ NEUMATICOS SMAROUN S.A.         30-62197317-330-62212069-730-71401808-2          !
03042018ADM AGRO S.R.L.     CEBADA FORRAJERA    911         PC00921020TRIMAG S.A.         MAROUN S.A.         30-62197317-330-68083069-630-71401808-2          !
03042018ADM AGRO S.R.L.     CEBADA FORRAJERA    911         PC00921915ALVAREZ NEUMATICOS SMAROUN S.A.         30-62197317-330-62212069-730-71401808-2          !
03042018ADM AGRO S.R.L.     CEBADA FORRAJERA    911         PC00922925COOP.AGR.GANAD.SAN MA.C.A. (BS.AS.)     30-62197317-330-53341819-430-50012088-2          !
03042018ADM AGRO S.R.L.     CEBADA FORRAJERA    911         PC00924089COOP.AGR.GANAD.SAN MA.C.A. (BS.AS.)     30-62197317-330-53341819-430-50012088-2          !
03042018ADM AGRO S.R.L.     CEBADA FORRAJERA    911         PC00923468COOP.A.G.DE ESPARTILA.C.A. (BS.AS.)     30-62197317-330-53334220-130-50012088-2          !
03042018ADM AGRO S.R.L.     CEBADA FORRAJERA    911         PC00924657COOP.A.G.DE ESPARTILA.C.A. (BS.AS.)     30-62197317-330-53334220-130-50012088-2          !
03042018MALT PAMPA SA (S)   CEBADA CERVECERA    911         PC00922571                                        30-62022318-900-00000000-000-00000000-0          !
03042018MALT PAMPA SA (S)   CEBADA CERVECERA    911         PC00922657                                        30-62022318-900-00000000-000-00000000-0          !
03042018MALT PAMPA SA (S)   CEBADA CERVECERA    911         PC00922743                                        30-62022318-900-00000000-000-00000000-0          !
03042018MALT PAMPA SA (S)   CEBADA CERVECERA    911         PC00922680                                        30-62022318-900-00000000-000-00000000-0          !
03042018MALT PAMPA SA (S)   CEBADA CERVECERA    911         PC00922969                                        30-62022318-900-00000000-000-00000000-0          !
03042018MALT PAMPA SA (S)   CEBADA CERVECERA    911         PC00922979                                        30-62022318-900-00000000-000-00000000-0          !
03042018MALT PAMPA SA (S)   CEBADA CERVECERA    911         PC00922992                                        30-62022318-900-00000000-000-00000000-0          !
03042018MALT PAMPA SA (S)   CEBADA CERVECERA    911         PC00923271                                        30-62022318-900-00000000-000-00000000-0          !
03042018MALT PAMPA SA (S)   CEBADA CERVECERA    911         PC00923352                                        30-62022318-900-00000000-000-00000000-0          !
03042018MALT PAMPA SA (S)   CEBADA CERVECERA    911         PC00923373                                        30-62022318-900-00000000-000-00000000-0          !
03042018MALT PAMPA SA (S)   CEBADA CERVECERA    911         PC00924608                                        30-62022318-900-00000000-000-00000000-0          !
03042018MALT PAMPA SA (S)   CEBADA CERVECERA    911         PC00923704                                        30-62022318-900-00000000-000-00000000-0          !
03042018MALT PAMPA SA (S)   CEBADA CERVECERA    911         PC00924010                                        30-62022318-900-00000000-000-00000000-0          !
03042018MALT PAMPA SA (S)   CEBADA CERVECERA    911         PC00924040                                        30-62022318-900-00000000-000-00000000-0          !
03042018MALT PAMPA SA (S)   CEBADA CERVECERA    911         PC00922827                                        30-62022318-900-00000000-000-00000000-0          !
03042018MALT PAMPA SA (S)   CEBADA CERVECERA    911         PC00922322                                        30-62022318-900-00000000-000-00000000-0          !
03042018MALT PAMPA SA (S)   CEBADA CERVECERA    911         PC00922446                                        30-62022318-900-00000000-000-00000000-0          !
03042018MALT PAMPA SA (S)   CEBADA CERVECERA    911         PC00924394                                        30-62022318-900-00000000-000-00000000-0          !
03042018MALT PAMPA SA (S)   CEBADA CERVECERA    911         PC00923748                                        30-62022318-900-00000000-000-00000000-0          !
03042018ADM AGRO S.R.L.     CEBADA FORRAJERA    911         PC00924416TOMAS HNOS. Y CIA. SENRIQUE R.ZENI SA.(B30-62197317-330-53772127-430-51282309-9          !
03042018ADM AGRO S.R.L.     CEBADA FORRAJERA    911         PC00922733ESTANCIAS LA ALICIA ENRIQUE R.ZENI SA.(B30-62197317-330-51231486-030-51282309-9          !
03042018ADM AGRO S.R.L.     CEBADA FORRAJERA    911         PC00923039ESTANCIAS LA ALICIA ENRIQUE R.ZENI SA.(B30-62197317-330-51231486-030-51282309-9          !
03042018ADM AGRO S.R.L.     CEBADA FORRAJERA    911         PC00922533TRIMAG S.A.         DUKAREVICH S.A.     30-62197317-330-68083069-630-51753557-1          !
03042018ADM AGRO S.R.L.     CEBADA FORRAJERA    911         PC00924376TRIMAG S.A.         DUKAREVICH S.A.     30-62197317-330-68083069-630-51753557-1          !
03042018ADM AGRO S.R.L.     CEBADA FORRAJERA    911         PC00923714TRIMAG S.A.         DUKAREVICH S.A.     30-62197317-330-68083069-630-51753557-1          !
03042018ADM AGRO S.R.L.     CEBADA FORRAJERA    911         PC00924681TRIMAG S.A.         DUKAREVICH S.A.     30-62197317-330-68083069-630-51753557-1          !
03042018ADM AGRO S.R.L.     CEBADA FORRAJERA    911         PC00922637ALVAREZ NEUMATICOS SMAROUN S.A.         30-62197317-330-62212069-730-71401808-2          !
03042018ADM AGRO S.R.L.     CEBADA FORRAJERA    911         PC00923452TRIMAG S.A.         MAROUN S.A.         30-62197317-330-68083069-630-71401808-2          !
03042018ADM AGRO S.R.L.     CEBADA FORRAJERA    911         PC00924943COOP.AGR.GANAD.SAN MA.C.A. (BS.AS.)     30-62197317-330-53341819-430-50012088-2          !
03042018ADM AGRO S.R.L.     CEBADA FORRAJERA    911         PC00925631COOP.AGR.GANAD.SAN MA.C.A. (BS.AS.)     30-62197317-330-53341819-430-50012088-2          !
03042018ADM AGRO S.R.L.     CEBADA FORRAJERA    911         PC00927279COOP.AGR.GANAD.SAN MA.C.A. (BS.AS.)     30-62197317-330-53341819-430-50012088-2          !
03042018ADM AGRO S.R.L.     CEBADA FORRAJERA    911         PC00927149COOP.A.G.DE ESPARTILA.C.A. (BS.AS.)     30-62197317-330-53334220-130-50012088-2          !
03042018ADM AGRO S.R.L.     CEBADA FORRAJERA    911         PC00927990COOP.A.G.DE ESPARTILA.C.A. (BS.AS.)     30-62197317-330-53334220-130-50012088-2          !
03042018ADM AGRO S.R.L.     CEBADA FORRAJERA    911         PC00925869COOP.A.G.DE ESPARTILA.C.A. (BS.AS.)     30-62197317-330-53334220-130-50012088-2          !
03042018ADM AGRO S.R.L.     CEBADA FORRAJERA    911         PC00926161COOP.A.G.DE ESPARTILA.C.A. (BS.AS.)     30-62197317-330-53334220-130-50012088-2          !
03042018MALT PAMPA SA (S)   CEBADA CERVECERA    911         PC00925472                                        30-62022318-900-00000000-000-00000000-0          !
03042018MALT PAMPA SA (S)   CEBADA CERVECERA    911         PC00928616                                        30-62022318-900-00000000-000-00000000-0          !
03042018MALT PAMPA SA (S)   CEBADA CERVECERA    911         PC00928793                                        30-62022318-900-00000000-000-00000000-0          !
03042018MALT PAMPA SA (S)   CEBADA CERVECERA    911         PC00928581                                        30-62022318-900-00000000-000-00000000-0          !
03042018MALT PAMPA SA (S)   CEBADA CERVECERA    911         PC00927785                                        30-62022318-900-00000000-000-00000000-0          !
03042018MALT PAMPA SA (S)   CEBADA CERVECERA    911         PC00927897                                        30-62022318-900-00000000-000-00000000-0          !
03042018MALT PAMPA SA (S)   CEBADA CERVECERA    911         PC00927974                                        30-62022318-900-00000000-000-00000000-0          !
03042018MALT PAMPA SA (S)   CEBADA CERVECERA    911         PC00924800                                        30-62022318-900-00000000-000-00000000-0          !
03042018MALT PAMPA SA (S)   CEBADA CERVECERA    911         PC00924857                                        30-62022318-900-00000000-000-00000000-0          !
03042018MALT PAMPA SA (S)   CEBADA CERVECERA    911         PC00924979                                        30-62022318-900-00000000-000-00000000-0          !
03042018MALT PAMPA SA (S)   CEBADA CERVECERA    911         PC00924987                                        30-62022318-900-00000000-000-00000000-0          !
03042018MALT PAMPA SA (S)   CEBADA CERVECERA    911         PC00926169                                        30-62022318-900-00000000-000-00000000-0          !
03042018MALT PAMPA SA (S)   CEBADA CERVECERA    911         PC00926394                                        30-62022318-900-00000000-000-00000000-0          !
03042018MALT PAMPA SA (S)   CEBADA CERVECERA    911         PC00926516                                        30-62022318-900-00000000-000-00000000-0          !
03042018MALT PAMPA SA (S)   CEBADA CERVECERA    911         PC00926522                                        30-62022318-900-00000000-000-00000000-0          !
03042018MALT PAMPA SA (S)   CEBADA CERVECERA    911         PC00926923                                        30-62022318-900-00000000-000-00000000-0          !
03042018MALT PAMPA SA (S)   CEBADA CERVECERA    911         PC00927052                                        30-62022318-900-00000000-000-00000000-0          !
03042018MALT PAMPA SA (S)   CEBADA CERVECERA    911         PC00927981                                        30-62022318-900-00000000-000-00000000-0          !
03042018MALT PAMPA SA (S)   CEBADA CERVECERA    911         PC00928085                                        30-62022318-900-00000000-000-00000000-0          !
03042018MALT PAMPA SA (S)   CEBADA CERVECERA    911         PC00928469                                        30-62022318-900-00000000-000-00000000-0          !
03042018MALT PAMPA SA (S)   CEBADA CERVECERA    911         PC00928040                                        30-62022318-900-00000000-000-00000000-0          !
03042018MALT PAMPA SA (S)   CEBADA CERVECERA    911         PC00927769                                        30-62022318-900-00000000-000-00000000-0          !
03042018MALT PAMPA SA (S)   CEBADA CERVECERA    911         PC00927976                                        30-62022318-900-00000000-000-00000000-0          !
03042018MALT PAMPA SA (S)   CEBADA CERVECERA    911         PC00927809                                        30-62022318-900-00000000-000-00000000-0          !
03042018MALT PAMPA SA (S)   CEBADA CERVECERA    911         PC00927482                                        30-62022318-900-00000000-000-00000000-0          !
03042018MALT PAMPA SA (S)   CEBADA CERVECERA    911         PC00929200                                        30-62022318-900-00000000-000-00000000-0          !
03042018MALT PAMPA SA (S)   CEBADA CERVECERA    911         PC00929229                                        30-62022318-900-00000000-000-00000000-0          !
03042018MALT PAMPA SA (S)   CEBADA CERVECERA    911         PC00924759                                        30-62022318-900-00000000-000-00000000-0          !
03042018MALT PAMPA SA (S)   CEBADA CERVECERA    911         PC00926349                                        30-62022318-900-00000000-000-00000000-0          !
03042018MALT PAMPA SA (S)   CEBADA CERVECERA    911         PC00926238                                        30-62022318-900-00000000-000-00000000-0          !
03042018MALT PAMPA SA (S)   CEBADA CERVECERA    911         PC00924871                                        30-62022318-900-00000000-000-00000000-0          !
03042018MALT PAMPA SA (S)   CEBADA CERVECERA    911         PC00925713                                        30-62022318-900-00000000-000-00000000-0          !
03042018MALT PAMPA SA (S)   CEBADA CERVECERA    911         PC00926839                                        30-62022318-900-00000000-000-00000000-0          !
03042018MALT PAMPA SA (S)   CEBADA CERVECERA    911         PC00928024                                        30-62022318-900-00000000-000-00000000-0          !
03042018ADM AGRO S.R.L.     CEBADA FORRAJERA    911         PC00928595SUC.DE ANTONIO MORENDIRECTO             30-62197317-330-51135504-000-00000000-0          !
03042018ADM AGRO S.R.L.     CEBADA FORRAJERA    911         PC00926822SUC.DE ANTONIO MORENDIRECTO             30-62197317-330-51135504-000-00000000-0          !
03042018ADM AGRO S.R.L.     CEBADA FORRAJERA    911         PC00927065SUC.DE ANTONIO MORENDIRECTO             30-62197317-330-51135504-000-00000000-0          !
03042018ADM AGRO S.R.L.     CEBADA FORRAJERA    911         PC00925148SUC.DE ANTONIO MORENDIRECTO             30-62197317-330-51135504-000-00000000-0          !
03042018ADM AGRO S.R.L.     CEBADA FORRAJERA    911         PC00927010ESTANCIAS LA ALICIA ENRIQUE R.ZENI SA.(B30-62197317-330-51231486-030-51282309-9          !
03042018ADM AGRO S.R.L.     CEBADA FORRAJERA    911         PC00926497ESTANCIAS LA ALICIA ENRIQUE R.ZENI SA.(B30-62197317-330-51231486-030-51282309-9          !
03042018ADM AGRO S.R.L.     CEBADA FORRAJERA    911         PC00928873TOMAS HNOS. Y CIA. SENRIQUE R.ZENI SA.(B30-62197317-330-53772127-430-51282309-9          !
03042018ADM AGRO S.R.L.     CEBADA FORRAJERA    911         PC00929087TOMAS HNOS. Y CIA. SENRIQUE R.ZENI SA.(B30-62197317-330-53772127-430-51282309-9          !
03042018ADM AGRO S.R.L.     CEBADA FORRAJERA    911         PC00929142ESTANCIAS LA ALICIA ENRIQUE R.ZENI SA.(B30-62197317-330-51231486-030-51282309-9          !
03042018ADM AGRO S.R.L.     CEBADA FORRAJERA    911         PC00928344ESTANCIAS LA ALICIA ENRIQUE R.ZENI SA.(B30-62197317-330-51231486-030-51282309-9          !
03042018ADM AGRO S.R.L.     CEBADA FORRAJERA    911         PC00926515TRIMAG S.A.         DUKAREVICH S.A.     30-62197317-330-68083069-630-51753557-1          !
03042018ADM AGRO S.R.L.     CEBADA FORRAJERA    911         PC00927093TRIMAG S.A.         DUKAREVICH S.A.     30-62197317-330-68083069-630-51753557-1          !
03042018ADM AGRO S.R.L.     CEBADA FORRAJERA    911         PC00925474TRIMAG S.A.         DUKAREVICH S.A.     30-62197317-330-68083069-630-51753557-1          !
03042018ADM AGRO S.R.L.     CEBADA FORRAJERA    911         PC00926340ALVAREZ NEUMATICOS SMAROUN S.A.         30-62197317-330-62212069-730-71401808-2          !
03042018ADM AGRO S.R.L.     CEBADA FORRAJERA    911         PC00925303TRIMAG S.A.         MAROUN S.A.         30-62197317-330-68083069-630-71401808-2          !
03042018ADM AGRO S.R.L.     CEBADA FORRAJERA    911         PC00924947ALVAREZ NEUMATICOS SMAROUN S.A.         30-62197317-330-62212069-730-71401808-2          !
03042018ADM AGRO S.R.L.     CEBADA FORRAJERA    911         PC00927135TRIMAG S.A.         MAROUN S.A.         30-62197317-330-68083069-630-71401808-2          !
03042018ADM AGRO S.R.L.     CEBADA FORRAJERA    911         PC00926592TRIMAG S.A.         MAROUN S.A.         30-62197317-330-68083069-630-71401808-2          !
03042018ADM AGRO S.R.L.     CEBADA FORRAJERA    911         PC00926749ALVAREZ NEUMATICOS SMAROUN S.A.         30-62197317-330-62212069-730-71401808-2          !
03042018ADM AGRO S.R.L.     CEBADA FORRAJERA    911         PC00927505ALVAREZ NEUMATICOS SMAROUN S.A.         30-62197317-330-62212069-730-71401808-2          !
03042018ADM AGRO S.R.L.     CEBADA FORRAJERA    911         PC00927258ALVAREZ NEUMATICOS SMAROUN S.A.         30-62197317-330-62212069-730-71401808-2          !
03042018ADM AGRO S.R.L.     CEBADA FORRAJERA    911         PC00928752TRIMAG S.A.         MAROUN S.A.         30-62197317-330-68083069-630-71401808-2          !
03042018ADM AGRO S.R.L.     CEBADA FORRAJERA    911         PC00929302TRIMAG S.A.         MAROUN S.A.         30-62197317-330-68083069-630-71401808-2          !
03042018ADM AGRO S.R.L.     MAIZ                911         PM00920314E. M. BAYA CASAL S.AMBC CORREDORES DE CE30-62197317-330-60741325-430-70878043-6          !
03042018ADM AGRO S.R.L.     MAIZ                911         PM00921670E. M. BAYA CASAL S.AMBC CORREDORES DE CE30-62197317-330-60741325-430-70878043-6          !
03042018ADM AGRO S.R.L.     MAIZ                911         PM00922324E. M. BAYA CASAL S.AMBC CORREDORES DE CE30-62197317-330-60741325-430-70878043-6          !
03042018ADM AGRO S.R.L.     MAIZ                911         PM00922572E. M. BAYA CASAL S.AMBC CORREDORES DE CE30-62197317-330-60741325-430-70878043-6          !
03042018ADM AGRO S.R.L.     MAIZ                911         PM00922674E. M. BAYA CASAL S.AMBC CORREDORES DE CE30-62197317-330-60741325-430-70878043-6          !
03042018ADM AGRO S.R.L.     MAIZ                911         PM00924610E. M. BAYA CASAL S.AMBC CORREDORES DE CE30-62197317-330-60741325-430-70878043-6          !
03042018ADM AGRO S.R.L.     MAIZ                911         PM00924718E. M. BAYA CASAL S.AMBC CORREDORES DE CE30-62197317-330-60741325-430-70878043-6          !
03042018ADM AGRO S.R.L.     MAIZ                911         PM00924835E. M. BAYA CASAL S.AMBC CORREDORES DE CE30-62197317-330-60741325-430-70878043-6          !
03042018ADM AGRO S.R.L.     MAIZ                911         PM00926455E. M. BAYA CASAL S.AMBC CORREDORES DE CE30-62197317-330-60741325-430-70878043-6          !
03042018ADM AGRO S.R.L.     MAIZ                911         PM00927322E. M. BAYA CASAL S.AMBC CORREDORES DE CE30-62197317-330-60741325-430-70878043-6          !
03042018ADM AGRO S.R.L.     MAIZ                911         PM00927383E. M. BAYA CASAL S.AMBC CORREDORES DE CE30-62197317-330-60741325-430-70878043-6          !
03042018ADM AGRO S.R.L.     MAIZ                911         PM00927862E. M. BAYA CASAL S.AMBC CORREDORES DE CE30-62197317-330-60741325-430-70878043-6          !
03042018MALT PAMPA SA (S)   CEBADA CERVECERA    911         PC00929782                                        30-62022318-900-00000000-000-00000000-0          !
03042018ADM AGRO S.R.L.     MAIZ                911         PM00921802PELAYO AGRONOMIA S.AGRANAR S.A.C. Y F.(B30-62197317-330-70920121-930-52898170-0          !
03042018ADM AGRO S.R.L.     MAIZ                911         PM00923369TOMAS HNOS. Y CIA. SGRANAR S.A.C. Y F.(B30-62197317-330-53772127-430-52898170-0          !
03042018ADM AGRO S.R.L.     MAIZ                911         PM00926729PELAYO AGRONOMIA S.AGRANAR S.A.C. Y F.(B30-62197317-330-70920121-930-52898170-0          !
03042018ADM AGRO S.R.L.     MAIZ                911         PM00924817TOMAS HNOS. Y CIA. SGRANAR S.A.C. Y F.(B30-62197317-330-53772127-430-52898170-0          !
03042018ADM AGRO S.R.L.     MAIZ                911         PM00924632TOMAS HNOS. Y CIA. SGRANAR S.A.C. Y F.(B30-62197317-330-53772127-430-52898170-0          !
03042018ADM AGRO S.R.L.     MAIZ                911         PM00925257FEDEA S.A.          GRANAR S.A.C. Y F.(B30-62197317-330-68514169-430-52898170-0          !
03042018ADM AGRO S.R.L.     MAIZ                911         PM00925593MORERO SEMILLAS Y CEGRANAR S.A.C. Y F.(B30-62197317-330-66734389-130-52898170-0          !
03042018ADM AGRO S.R.L.     MAIZ                911         PM00925691AIBAL SERV. AGROP. SGRANAR S.A.C. Y F.(B30-62197317-330-61784921-230-52898170-0          !
03042018ADM AGRO S.R.L.     MAIZ                911         PM00927687TOMAS HNOS. Y CIA. SGRANAR S.A.C. Y F.(B30-62197317-330-53772127-430-52898170-0          !
03042018ADM AGRO S.R.L.     MAIZ                911         PM00927289PELAYO AGRONOMIA S.AGRANAR S.A.C. Y F.(B30-62197317-330-70920121-930-52898170-0          !
03042018ADM AGRO S.R.L.     MAIZ                911         PM00927017MORERO SEMILLAS Y CEGRANAR S.A.C. Y F.(B30-62197317-330-66734389-130-52898170-0          !
03042018ADM AGRO S.R.L.     MAIZ                911         PM00923762TOMAS HNOS. Y CIA. SGRANAR S.A.C. Y F.(B30-62197317-330-53772127-430-52898170-0          !
03042018ADM AGRO S.R.L.     MAIZ                911         PM00921676AIBAL SERV. AGROP. SGRANAR S.A.C. Y F.(B30-62197317-330-61784921-230-52898170-0          !
03042018ADM AGRO S.R.L.     MAIZ                911         PM00921429PELAYO AGRONOMIA S.AGRANAR S.A.C. Y F.(B30-62197317-330-70920121-930-52898170-0          !
03042018ADM AGRO S.R.L.     MAIZ                911         PM00921534MORERO SEMILLAS Y CEGRANAR S.A.C. Y F.(B30-62197317-330-66734389-130-52898170-0          !
03042018ADM AGRO S.R.L.     MAIZ                911         PM00921286MORERO SEMILLAS Y CEGRANAR S.A.C. Y F.(B30-62197317-330-66734389-130-52898170-0          !
03042018ADM AGRO S.R.L.     MAIZ                911         PM00920251TOMAS HNOS. Y CIA. SGRANAR S.A.C. Y F.(B30-62197317-330-53772127-430-52898170-0          !
03042018ADM AGRO S.R.L.     MAIZ                911         PM00920265TOMAS HNOS. Y CIA. SGRANAR S.A.C. Y F.(B30-62197317-330-53772127-430-52898170-0          !
03042018ADM AGRO S.R.L.     MAIZ                911         PM00920613TOMAS HNOS. Y CIA. SGRANAR S.A.C. Y F.(B30-62197317-330-53772127-430-52898170-0          !
03042018ADM AGRO S.R.L.     MAIZ                911         PM00920819MORERO SEMILLAS Y CEGRANAR S.A.C. Y F.(B30-62197317-330-66734389-130-52898170-0          !
03042018ADM AGRO S.R.L.     MAIZ                911         PM00920658                    GRANAR S.A.C. Y F.(B30-62197317-300-00000000-030-52898170-0          !
03042018ADM AGRO S.R.L.     MAIZ                911         PM00921324                    GRANAR S.A.C. Y F.(B30-62197317-300-00000000-030-52898170-0          !
03042018ADM AGRO S.R.L.     MAIZ                911         PM00920923SUC.DE ANTONIO MORENGRANAR S.A.C. Y F.(B30-62197317-330-51135504-030-52898170-0          !
03042018ADM AGRO S.R.L.     MAIZ                911         PM00922375JUAN ALBERTO SEGURA GRANAR S.A.C. Y F.(B30-62197317-330-63225198-630-52898170-0          !
03042018ADM AGRO S.R.L.     MAIZ                911         PM00922684JUAN ALBERTO SEGURA GRANAR S.A.C. Y F.(B30-62197317-330-63225198-630-52898170-0          !
03042018ADM AGRO S.R.L.     MAIZ                911         PM00922145                    GRANAR S.A.C. Y F.(B30-62197317-300-00000000-030-52898170-0          !
03042018ADM AGRO S.R.L.     MAIZ                911         PM00922169SUC.DE ANTONIO MORENGRANAR S.A.C. Y F.(B30-62197317-330-51135504-030-52898170-0          !
03042018ADM AGRO S.R.L.     MAIZ                911         PM00927021AIBAL SERV. AGROP. SGRANAR S.A.C. Y F.(B30-62197317-330-61784921-230-52898170-0          !
03042018ADM AGRO S.R.L.     MAIZ                911         PM00926955SUC.DE ANTONIO MORENGRANAR S.A.C. Y F.(B30-62197317-330-51135504-030-52898170-0          !
03042018ADM AGRO S.R.L.     MAIZ                911         PM00927223SUC.DE ANTONIO MORENGRANAR S.A.C. Y F.(B30-62197317-330-51135504-030-52898170-0          !
03042018ADM AGRO S.R.L.     MAIZ                911         PM00927367                    GRANAR S.A.C. Y F.(B30-62197317-300-00000000-030-52898170-0          !
03042018ADM AGRO S.R.L.     MAIZ                911         PM00927397                    GRANAR S.A.C. Y F.(B30-62197317-300-00000000-030-52898170-0          !
03042018ADM AGRO S.R.L.     MAIZ                911         PM00925606                    GRANAR S.A.C. Y F.(B30-62197317-300-00000000-030-52898170-0          !
03042018ADM AGRO S.R.L.     MAIZ                911         PM00926076SUC.DE ANTONIO MORENGRANAR S.A.C. Y F.(B30-62197317-330-51135504-030-52898170-0          !
03042018ADM AGRO S.R.L.     MAIZ                911         PM00926459JUAN ALBERTO SEGURA GRANAR S.A.C. Y F.(B30-62197317-330-63225198-630-52898170-0          !
03042018ADM AGRO S.R.L.     MAIZ                911         PM00925428                    GRANAR S.A.C. Y F.(B30-62197317-300-00000000-030-52898170-0          !
03042018ADM AGRO S.R.L.     MAIZ                911         PM00925158JUAN ALBERTO SEGURA GRANAR S.A.C. Y F.(B30-62197317-330-63225198-630-52898170-0          !
03042018ADM AGRO S.R.L.     MAIZ                911         PM00924678PELAYO AGRONOMIA S.AGRANAR S.A.C. Y F.(B30-62197317-330-70920121-930-52898170-0          !
03042018ADM AGRO S.R.L.     MAIZ                911         PM00924853CEREALES DEL CENTRO MAROUN S.A.         30-62197317-330-70839360-230-71401808-2          !
03042018ADM AGRO S.R.L.     MAIZ                911         PM00926517PORFIRI CEREALES S.AMAROUN S.A.         30-62197317-330-62949437-130-71401808-2          !
03042018ADM AGRO S.R.L.     MAIZ                911         PM00926619CEREALES DEL CENTRO MAROUN S.A.         30-62197317-330-70839360-230-71401808-2          !
03042018ADM AGRO S.R.L.     MAIZ                911         PM00925888PORFIRI CEREALES S.AMAROUN S.A.         30-62197317-330-62949437-130-71401808-2          !
03042018ADM AGRO S.R.L.     MAIZ                911         PM00925792GRANOS DEL OESTE S.AMAROUN S.A.         30-62197317-330-70814684-230-71401808-2          !
03042018ADM AGRO S.R.L.     MAIZ                911         PM00922586GRANOS DEL OESTE S.AMAROUN S.A.         30-62197317-330-70814684-230-71401808-2          !
03042018ADM AGRO S.R.L.     MAIZ                911         PM00922957PORFIRI CEREALES S.AMAROUN S.A.         30-62197317-330-62949437-130-71401808-2          !
03042018ADM AGRO S.R.L.     MAIZ                911         PM00922976CEREALES DEL CENTRO MAROUN S.A.         30-62197317-330-70839360-230-71401808-2          !
03042018ADM AGRO S.R.L.     MAIZ                911         PM00921153TOMAS HNOS. Y CIA. SMAROUN S.A.         30-62197317-330-53772127-430-71401808-2          !
03042018ADM AGRO S.R.L.     MAIZ                911         PM00921213CEREALES DEL CENTRO MAROUN S.A.         30-62197317-330-70839360-230-71401808-2          !
03042018ADM AGRO S.R.L.     MAIZ                911         PM00920125GRANOS DEL OESTE S.AMAROUN S.A.         30-62197317-330-70814684-230-71401808-2          !
03042018ADM AGRO S.R.L.     MAIZ                911         PM00920363GRANOS DEL OESTE S.AMAROUN S.A.         30-62197317-330-70814684-230-71401808-2          !
03042018ADM AGRO S.R.L.     MAIZ                911         PM00920475GRANOS DEL OESTE S.AMAROUN S.A.         30-62197317-330-70814684-230-71401808-2          !
03042018ADM AGRO S.R.L.     MAIZ                911         PM00922958GRANOS DEL OESTE S.AMAROUN S.A.         30-62197317-330-70814684-230-71401808-2          !
03042018ADM AGRO S.R.L.     MAIZ                911         PM00923979LOS GROBO AGROPECUARMAROUN S.A.         30-62197317-330-60445647-530-71401808-2          !
03042018ADM AGRO S.R.L.     MAIZ                911         PM00924153CEREALES DEL CENTRO MAROUN S.A.         30-62197317-330-70839360-230-71401808-2          !
03042018ADM AGRO S.R.L.     MAIZ                911         PM00922794TOMAS HNOS. Y CIA. SMAROUN S.A.         30-62197317-330-53772127-430-71401808-2          !
03042018ADM AGRO S.R.L.     MAIZ                911         PM00922683LOS GROBO AGROPECUARMAROUN S.A.         30-62197317-330-60445647-530-71401808-2          !
03042018ADM AGRO S.R.L.     MAIZ                911         PM00926112CEREALES DEL CENTRO MAROUN S.A.         30-62197317-330-70839360-230-71401808-2          !
03042018ADM AGRO S.R.L.     MAIZ                911         PM00926121LOS GROBO AGROPECUARMAROUN S.A.         30-62197317-330-60445647-530-71401808-2          !
03042018ADM AGRO S.R.L.     MAIZ                911         PM00925241TOMAS HNOS. Y CIA. SMAROUN S.A.         30-62197317-330-53772127-430-71401808-2          !
03042018ADM AGRO S.R.L.     MAIZ                911         PM00922912TOMAS HNOS. Y CIA. SMAROUN S.A.         30-62197317-330-53772127-430-71401808-2          !
03042018ADM AGRO S.R.L.     MAIZ                911         PM00925579LOS GROBO AGROPECUARMAROUN S.A.         30-62197317-330-60445647-530-71401808-2          !
03042018ADM AGRO S.R.L.     MAIZ                911         PM00926162TOMAS HNOS. Y CIA. SMAROUN S.A.         30-62197317-330-53772127-430-71401808-2          !
03042018ADM AGRO S.R.L.     MAIZ                911         PM00927095CRESUD S.A.C.I.F. Y FUTUROS Y OPCIONES C30-62197317-330-50930070-030-70360510-5          !
03042018ADM AGRO S.R.L.     MAIZ                911         PM00927999CRESUD S.A.C.I.F. Y FUTUROS Y OPCIONES C30-62197317-330-50930070-030-70360510-5          !
03042018ADM AGRO S.R.L.     MAIZ                911         PM00926864CRESUD S.A.C.I.F. Y FUTUROS Y OPCIONES C30-62197317-330-50930070-030-70360510-5          !
03042018ADM AGRO S.R.L.     MAIZ                911         PM00922647CRESUD S.A.C.I.F. Y FUTUROS Y OPCIONES C30-62197317-330-50930070-030-70360510-5          !
03042018ADM AGRO S.R.L.     MAIZ                911         PM00922661CRESUD S.A.C.I.F. Y FUTUROS Y OPCIONES C30-62197317-330-50930070-030-70360510-5          !
03042018ADM AGRO S.R.L.     MAIZ                911         PM00920012CRESUD S.A.C.I.F. Y FUTUROS Y OPCIONES C30-62197317-330-50930070-030-70360510-5          !
03042018ADM AGRO S.R.L.     MAIZ                911         PM00920051CRESUD S.A.C.I.F. Y FUTUROS Y OPCIONES C30-62197317-330-50930070-030-70360510-5          !
03042018ADM AGRO S.R.L.     MAIZ                911         PM00921254CRESUD S.A.C.I.F. Y FUTUROS Y OPCIONES C30-62197317-330-50930070-030-70360510-5          !
03042018ADM AGRO S.R.L.     MAIZ                911         PM00922808CRESUD S.A.C.I.F. Y FUTUROS Y OPCIONES C30-62197317-330-50930070-030-70360510-5          !
03042018ADM AGRO S.R.L.     MAIZ                911         PM00920858JUAN CARLOS LATOUR SDUKAREVICH S.A.     30-62197317-330-70845691-430-51753557-1          !
03042018ADM AGRO S.R.L.     MAIZ                911         PM00925375JUAN CARLOS LATOUR SDUKAREVICH S.A.     30-62197317-330-70845691-430-51753557-1          !
03042018ADM AGRO S.R.L.     MAIZ                911         PM00927446JUAN CARLOS LATOUR SDUKAREVICH S.A.     30-62197317-330-70845691-430-51753557-1          !
03042018ADM AGRO S.R.L.     MAIZ                911         PM00927471LARTIRIGOYEN Y CIA. ENRIQUE R.ZENI SA.(B30-62197317-330-61398599-530-51282309-9          !
03042018ADM AGRO S.R.L.     MAIZ                911         PM00927271                    ENRIQUE R.ZENI SA.(B30-62197317-300-00000000-030-51282309-9          !
03042018ADM AGRO S.R.L.     MAIZ                911         PM00926124                    ENRIQUE R.ZENI SA.(B30-62197317-300-00000000-030-51282309-9          !
03042018ADM AGRO S.R.L.     MAIZ                911         PM00925317                    ENRIQUE R.ZENI SA.(B30-62197317-300-00000000-030-51282309-9          !
03042018ADM AGRO S.R.L.     MAIZ                911         PM00925025LARTIRIGOYEN Y CIA. ENRIQUE R.ZENI SA.(B30-62197317-330-61398599-530-51282309-9          !
03042018ADM AGRO S.R.L.     MAIZ                911         PM00924679LARTIRIGOYEN Y CIA. ENRIQUE R.ZENI SA.(B30-62197317-330-61398599-530-51282309-9          !
03042018ADM AGRO S.R.L.     MAIZ                911         PM00920630LARTIRIGOYEN Y CIA. ENRIQUE R.ZENI SA.(B30-62197317-330-61398599-530-51282309-9          !
03042018ADM AGRO S.R.L.     MAIZ                911         PM00921283                    ENRIQUE R.ZENI SA.(B30-62197317-300-00000000-030-51282309-9          !
03042018ADM AGRO S.R.L.     MAIZ                911         PM00921634                    ENRIQUE R.ZENI SA.(B30-62197317-300-00000000-030-51282309-9          !
03042018ADM AGRO S.R.L.     MAIZ                911         PM00921694LARTIRIGOYEN Y CIA. ENRIQUE R.ZENI SA.(B30-62197317-330-61398599-530-51282309-9          !
03042018ADM AGRO S.R.L.     MAIZ                911         PM00923948                    ENRIQUE R.ZENI SA.(B30-62197317-300-00000000-030-51282309-9          !
03042018ADM AGRO S.R.L.     MAIZ                911         PM00924265LARTIRIGOYEN Y CIA. ENRIQUE R.ZENI SA.(B30-62197317-330-61398599-530-51282309-9          !
03042018ADM AGRO S.R.L.     MAIZ                911         PM00923509MONASTERIO TATTERSALENRIQUE R.ZENI SA.(B30-62197317-330-70966731-530-51282309-9          !
03042018ADM AGRO S.R.L.     MAIZ                911         PM00923062LARTIRIGOYEN Y CIA. ENRIQUE R.ZENI SA.(B30-62197317-330-61398599-530-51282309-9          !
03042018ADM AGRO S.R.L.     MAIZ                911         PM00921056LARTIRIGOYEN Y CIA. ENRIQUE R.ZENI SA.(B30-62197317-330-61398599-530-51282309-9          !
03042018ADM AGRO S.R.L.     MAIZ                911         PM00920652LARTIRIGOYEN Y CIA. ENRIQUE R.ZENI SA.(B30-62197317-330-61398599-530-51282309-9          !
03042018ADM AGRO S.R.L.     MAIZ                911         PM00924342COOP.AG.EL PROGRESO A.C.A. (BS.AS.)     30-62197317-330-51338194-430-50012088-2          !
03042018ADM AGRO S.R.L.     MAIZ                911         PM00922707COOP.AG.EL PROGRESO A.C.A. (BS.AS.)     30-62197317-330-51338194-430-50012088-2          !
03042018ADM AGRO S.R.L.     MAIZ                911         PM00924988COOP.AG.EL PROGRESO A.C.A. (BS.AS.)     30-62197317-330-51338194-430-50012088-2          !
03042018ADM AGRO S.R.L.     MAIZ                911         PM00926102COOP.AG.EL PROGRESO A.C.A. (BS.AS.)     30-62197317-330-51338194-430-50012088-2          !
03042018ADM AGRO S.R.L.     MAIZ                911         PM00925798COOP.AG.EL PROGRESO A.C.A. (BS.AS.)     30-62197317-330-51338194-430-50012088-2          !
03042018ADM AGRO S.R.L.     MAIZ                911         PM00927128COOP.A.G.DE ESPARTILA.C.A. (BS.AS.)     30-62197317-330-53334220-130-50012088-2          !
03042018ADM AGRO S.R.L.     MAIZ                911         PM00924531COOP.AG.EL PROGRESO A.C.A. (BS.AS.)     30-62197317-330-51338194-430-50012088-2          !
03042018ADM AGRO S.R.L.     MAIZ                911         PM00924190COOP.AG.EL PROGRESO A.C.A. (BS.AS.)     30-62197317-330-51338194-430-50012088-2          !
03042018ADM AGRO S.R.L.     MAIZ                911         PM00923118COOP.AG.EL PROGRESO A.C.A. (BS.AS.)     30-62197317-330-51338194-430-50012088-2          !
03042018ADM AGRO S.R.L.     MAIZ                911         PM00924329CEREALES BAHIA BLANCDIAZ RIGANTI CER.SRL30-62197317-330-58231694-130-55151869-4          !
03042018ADM AGRO S.R.L.     MAIZ                911         PM00922047CEREALES BAHIA BLANCDIAZ RIGANTI CER.SRL30-62197317-330-58231694-130-55151869-4          !
03042018ADM AGRO S.R.L.     MAIZ                911         PM00922339CEREALES BAHIA BLANCDIAZ RIGANTI CER.SRL30-62197317-330-58231694-130-55151869-4          !
03042018ADM AGRO S.R.L.     MAIZ                911         PM00921425CEREALES BAHIA BLANCDIAZ RIGANTI CER.SRL30-62197317-330-58231694-130-55151869-4          !
03042018ADM AGRO S.R.L.     MAIZ                911         PM00926876CEREALES BAHIA BLANCDIAZ RIGANTI CER.SRL30-62197317-330-58231694-130-55151869-4          !
03042018ADM AGRO S.R.L.     MAIZ                911         PM00927225                    INTAGRO S.A.(SUC.B.A30-62197317-300-00000000-030-66329026-2          !
03042018ADM AGRO S.R.L.     MAIZ                911         PM00927787                    INTAGRO S.A.(SUC.B.A30-62197317-300-00000000-030-66329026-2          !
03042018ADM AGRO S.R.L.     MAIZ                911         PM00921902                    INTAGRO S.A.(SUC.B.A30-62197317-300-00000000-030-66329026-2          !
03042018ADM AGRO S.R.L.     MAIZ                911         PM00920951                    INTAGRO S.A.(SUC.B.A30-62197317-300-00000000-030-66329026-2          !
03042018ADM AGRO S.R.L.     MAIZ                911         PM00922305                    INTAGRO S.A.(SUC.B.A30-62197317-300-00000000-030-66329026-2          !
03042018ADM AGRO S.R.L.     MAIZ                911         PM00924556PRUNDER S.A.        CORTINA BERUATTO S.A30-62197317-330-55774855-130-59897378-0          !
03042018ADM AGRO S.R.L.     MAIZ                911         PM00923056PRUNDER S.A.        CORTINA BERUATTO S.A30-62197317-330-55774855-130-59897378-0          !
03042018ADM AGRO S.R.L.     MAIZ                911         PM00921333PRUNDER S.A.        CORTINA BERUATTO S.A30-62197317-330-55774855-130-59897378-0          !
03042018ADM AGRO S.R.L.     CEBADA FORRAJERA    911         PC00929573SUC.DE ANTONIO MORENDIRECTO             30-62197317-330-51135504-000-00000000-0          !
03042018ADM AGRO S.R.L.     CEBADA FORRAJERA    911         PC00929585SUC.DE ANTONIO MORENDIRECTO             30-62197317-330-51135504-000-00000000-0          !
03042018ADM AGRO S.R.L.     CEBADA FORRAJERA    911         PC00929990TRIMAG S.A.         DUKAREVICH S.A.     30-62197317-330-68083069-630-51753557-1          !
04042018ADM AGRO S.R.L.     CEBADA FORRAJERA    911         PC00930553COOP.AGR.GANAD.SAN MA.C.A. (BS.AS.)     30-62197317-330-53341819-430-50012088-2          !
04042018ADM AGRO S.R.L.     CEBADA FORRAJERA    911         PC00933433COOP.AGR.GANAD.SAN MA.C.A. (BS.AS.)     30-62197317-330-53341819-430-50012088-2          !
04042018ADM AGRO S.R.L.     CEBADA FORRAJERA    911         PC00933503COOP.AGR.GANAD.SAN MA.C.A. (BS.AS.)     30-62197317-330-53341819-430-50012088-2          !
04042018ADM AGRO S.R.L.     CEBADA FORRAJERA    911         PC00932536COOP.A.G.DE ESPARTILA.C.A. (BS.AS.)     30-62197317-330-53334220-130-50012088-2          !
04042018ADM AGRO S.R.L.     CEBADA FORRAJERA    911         PC00934801COOP.AGR.GANAD.SAN MA.C.A. (BS.AS.)     30-62197317-330-53341819-430-50012088-2          !
04042018ADM AGRO S.R.L.     CEBADA FORRAJERA    911         PC00935545COOP.A.G.DE ESPARTILA.C.A. (BS.AS.)     30-62197317-330-53334220-130-50012088-2          !
04042018ADM AGRO S.R.L.     CEBADA FORRAJERA    911         PC00935123COOP.A.G.DE ESPARTILA.C.A. (BS.AS.)     30-62197317-330-53334220-130-50012088-2          !
04042018ADM AGRO S.R.L.     CEBADA FORRAJERA    911         PC00937789COOP.A.G.DE ESPARTILA.C.A. (BS.AS.)     30-62197317-330-53334220-130-50012088-2          !
04042018ADM AGRO S.R.L.     CEBADA FORRAJERA    911         PC00930658COOP.AGR.GANAD.SAN MA.C.A. (BS.AS.)     30-62197317-330-53341819-430-50012088-2          !
04042018ADM AGRO S.R.L.     CEBADA FORRAJERA    911         PC00930718COOP.AGR.GANAD.SAN MA.C.A. (BS.AS.)     30-62197317-330-53341819-430-50012088-2          !
04042018ADM AGRO S.R.L.     CEBADA FORRAJERA    911         PC00931587COOP.AGR.GANAD.SAN MA.C.A. (BS.AS.)     30-62197317-330-53341819-430-50012088-2          !
04042018ADM AGRO S.R.L.     CEBADA FORRAJERA    911         PC00931742COOP.A.G.DE ESPARTILA.C.A. (BS.AS.)     30-62197317-330-53334220-130-50012088-2          !
04042018ADM AGRO S.R.L.     CEBADA FORRAJERA    911         PC00939173COOP.AGR.GANAD.SAN MA.C.A. (BS.AS.)     30-62197317-330-53341819-430-50012088-2          !
04042018ADM AGRO S.R.L.     CEBADA FORRAJERA    911         PC00939602COOP.A.G.DE ESPARTILA.C.A. (BS.AS.)     30-62197317-330-53334220-130-50012088-2          !
04042018ADM AGRO S.R.L.     CEBADA FORRAJERA    911         PC00939735COOP.AGR.GANAD.SAN MA.C.A. (BS.AS.)     30-62197317-330-53341819-430-50012088-2          !
04042018ADM AGRO S.R.L.     MAIZ                911         PM00933040E. M. BAYA CASAL S.AMBC CORREDORES DE CE30-62197317-330-60741325-430-70878043-6          !
04042018ADM AGRO S.R.L.     MAIZ                911         PM00934100E. M. BAYA CASAL S.AMBC CORREDORES DE CE30-62197317-330-60741325-430-70878043-6          !
03042018ADM AGRO S.R.L.     MAIZ                911         PM00928521E. M. BAYA CASAL S.AMBC CORREDORES DE CE30-62197317-330-60741325-430-70878043-6          !
03042018ADM AGRO S.R.L.     MAIZ                911         PM00928852E. M. BAYA CASAL S.AMBC CORREDORES DE CE30-62197317-330-60741325-430-70878043-6          !
03042018ADM AGRO S.R.L.     MAIZ                911         PM00929732E. M. BAYA CASAL S.AMBC CORREDORES DE CE30-62197317-330-60741325-430-70878043-6          !
04042018ADM AGRO S.R.L.     MAIZ                911         PM00934613E. M. BAYA CASAL S.AMBC CORREDORES DE CE30-62197317-330-60741325-430-70878043-6          !
04042018ADM AGRO S.R.L.     MAIZ                911         PM00932864E. M. BAYA CASAL S.AMBC CORREDORES DE CE30-62197317-330-60741325-430-70878043-6          !
04042018ADM AGRO S.R.L.     MAIZ                911         PM00930581E. M. BAYA CASAL S.AMBC CORREDORES DE CE30-62197317-330-60741325-430-70878043-6          !
04042018ADM AGRO S.R.L.     MAIZ                911         PM00931337E. M. BAYA CASAL S.AMBC CORREDORES DE CE30-62197317-330-60741325-430-70878043-6          !
04042018ADM AGRO S.R.L.     MAIZ                911         PM00932195E. M. BAYA CASAL S.AMBC CORREDORES DE CE30-62197317-330-60741325-430-70878043-6          !
04042018ADM AGRO S.R.L.     MAIZ                911         PM00932238E. M. BAYA CASAL S.AMBC CORREDORES DE CE30-62197317-330-60741325-430-70878043-6          !
04042018ADM AGRO S.R.L.     MAIZ                911         PM00932090E. M. BAYA CASAL S.AMBC CORREDORES DE CE30-62197317-330-60741325-430-70878043-6          !
04042018ADM AGRO S.R.L.     MAIZ                911         PM00932796E. M. BAYA CASAL S.AMBC CORREDORES DE CE30-62197317-330-60741325-430-70878043-6          !
04042018ADM AGRO S.R.L.     MAIZ                911         PM00932803E. M. BAYA CASAL S.AMBC CORREDORES DE CE30-62197317-330-60741325-430-70878043-6          !
04042018ADM AGRO S.R.L.     MAIZ                911         PM00931200                    INTAGRO S.A.(SUC.B.A30-62197317-300-00000000-030-66329026-2          !
04042018ADM AGRO S.R.L.     MAIZ                911         PM00933044                    INTAGRO S.A.(SUC.B.A30-62197317-300-00000000-030-66329026-2          !
04042018ADM AGRO S.R.L.     MAIZ                911         PM00934472                    INTAGRO S.A.(SUC.B.A30-62197317-300-00000000-030-66329026-2          !
04042018MALT PAMPA SA (S)   CEBADA CERVECERA    911         PC00939131                                        30-62022318-900-00000000-000-00000000-0          !
04042018MALT PAMPA SA (S)   CEBADA CERVECERA    911         PC00939142                                        30-62022318-900-00000000-000-00000000-0          !
04042018MALT PAMPA SA (S)   CEBADA CERVECERA    911         PC00938996                                        30-62022318-900-00000000-000-00000000-0          !
04042018MALT PAMPA SA (S)   CEBADA CERVECERA    911         PC00938602                                        30-62022318-900-00000000-000-00000000-0          !
04042018MALT PAMPA SA (S)   CEBADA CERVECERA    911         PC00938608                                        30-62022318-900-00000000-000-00000000-0          !
04042018MALT PAMPA SA (S)   CEBADA CERVECERA    911         PC00938635                                        30-62022318-900-00000000-000-00000000-0          !
04042018MALT PAMPA SA (S)   CEBADA CERVECERA    911         PC00938349                                        30-62022318-900-00000000-000-00000000-0          !
04042018MALT PAMPA SA (S)   CEBADA CERVECERA    911         PC00931964                                        30-62022318-900-00000000-000-00000000-0          !
04042018MALT PAMPA SA (S)   CEBADA CERVECERA    911         PC00932292                                        30-62022318-900-00000000-000-00000000-0          !
04042018MALT PAMPA SA (S)   CEBADA CERVECERA    911         PC00930945                                        30-62022318-900-00000000-000-00000000-0          !
04042018MALT PAMPA SA (S)   CEBADA CERVECERA    911         PC00930460                                        30-62022318-900-00000000-000-00000000-0          !
04042018MALT PAMPA SA (S)   CEBADA CERVECERA    911         PC00937893                                        30-62022318-900-00000000-000-00000000-0          !
04042018MALT PAMPA SA (S)   CEBADA CERVECERA    911         PC00937914                                        30-62022318-900-00000000-000-00000000-0          !
04042018MALT PAMPA SA (S)   CEBADA CERVECERA    911         PC00937644                                        30-62022318-900-00000000-000-00000000-0          !
04042018MALT PAMPA SA (S)   CEBADA CERVECERA    911         PC00937680                                        30-62022318-900-00000000-000-00000000-0          !
04042018MALT PAMPA SA (S)   CEBADA CERVECERA    911         PC00937749                                        30-62022318-900-00000000-000-00000000-0          !
04042018MALT PAMPA SA (S)   CEBADA CERVECERA    911         PC00936896                                        30-62022318-900-00000000-000-00000000-0          !
04042018MALT PAMPA SA (S)   CEBADA CERVECERA    911         PC00937258                                        30-62022318-900-00000000-000-00000000-0          !
04042018MALT PAMPA SA (S)   CEBADA CERVECERA    911         PC00936464                                        30-62022318-900-00000000-000-00000000-0          !
04042018MALT PAMPA SA (S)   CEBADA CERVECERA    911         PC00936535                                        30-62022318-900-00000000-000-00000000-0          !
04042018MALT PAMPA SA (S)   CEBADA CERVECERA    911         PC00936666                                        30-62022318-900-00000000-000-00000000-0          !
04042018MALT PAMPA SA (S)   CEBADA CERVECERA    911         PC00936846                                        30-62022318-900-00000000-000-00000000-0          !
04042018MALT PAMPA SA (S)   CEBADA CERVECERA    911         PC00933615                                        30-62022318-900-00000000-000-00000000-0          !
04042018MALT PAMPA SA (S)   CEBADA CERVECERA    911         PC00933071                                        30-62022318-900-00000000-000-00000000-0          !
04042018MALT PAMPA SA (S)   CEBADA CERVECERA    911         PC00933164                                        30-62022318-900-00000000-000-00000000-0          !
04042018MALT PAMPA SA (S)   CEBADA CERVECERA    911         PC00933394                                        30-62022318-900-00000000-000-00000000-0          !
04042018MALT PAMPA SA (S)   CEBADA CERVECERA    911         PC00933564                                        30-62022318-900-00000000-000-00000000-0          !
04042018MALT PAMPA SA (S)   CEBADA CERVECERA    911         PC00932664                                        30-62022318-900-00000000-000-00000000-0          !
04042018MALT PAMPA SA (S)   CEBADA CERVECERA    911         PC00932804                                        30-62022318-900-00000000-000-00000000-0          !
04042018MALT PAMPA SA (S)   CEBADA CERVECERA    911         PC00933649                                        30-62022318-900-00000000-000-00000000-0          !
04042018MALT PAMPA SA (S)   CEBADA CERVECERA    911         PC00933860                                        30-62022318-900-00000000-000-00000000-0          !
04042018MALT PAMPA SA (S)   CEBADA CERVECERA    911         PC00934028                                        30-62022318-900-00000000-000-00000000-0          !
04042018MALT PAMPA SA (S)   CEBADA CERVECERA    911         PC00934544                                        30-62022318-900-00000000-000-00000000-0          !
04042018MALT PAMPA SA (S)   CEBADA CERVECERA    911         PC00934558                                        30-62022318-900-00000000-000-00000000-0          !
04042018MALT PAMPA SA (S)   CEBADA CERVECERA    911         PC00935560                                        30-62022318-900-00000000-000-00000000-0          !
04042018MALT PAMPA SA (S)   CEBADA CERVECERA    911         PC00935048                                        30-62022318-900-00000000-000-00000000-0          !
04042018MALT PAMPA SA (S)   CEBADA CERVECERA    911         PC00935890                                        30-62022318-900-00000000-000-00000000-0          !
04042018MALT PAMPA SA (S)   CEBADA CERVECERA    911         PC00937246                                        30-62022318-900-00000000-000-00000000-0          !
04042018MALT PAMPA SA (S)   CEBADA CERVECERA    911         PC00937670                                        30-62022318-900-00000000-000-00000000-0          !
04042018MALT PAMPA SA (S)   CEBADA CERVECERA    911         PC00930077                                        30-62022318-900-00000000-000-00000000-0          !
04042018MALT PAMPA SA (S)   CEBADA CERVECERA    911         PC00930372                                        30-62022318-900-00000000-000-00000000-0          !
04042018MALT PAMPA SA (S)   CEBADA CERVECERA    911         PC00930674                                        30-62022318-900-00000000-000-00000000-0          !
04042018MALT PAMPA SA (S)   CEBADA CERVECERA    911         PC00932318                                        30-62022318-900-00000000-000-00000000-0          !
04042018MALT PAMPA SA (S)   CEBADA CERVECERA    911         PC00932097                                        30-62022318-900-00000000-000-00000000-0          !
04042018MALT PAMPA SA (S)   CEBADA CERVECERA    911         PC00937937                                        30-62022318-900-00000000-000-00000000-0          !
04042018MALT PAMPA SA (S)   CEBADA CERVECERA    911         PC00938238                                        30-62022318-900-00000000-000-00000000-0          !
04042018MALT PAMPA SA (S)   CEBADA CERVECERA    911         PC00938256                                        30-62022318-900-00000000-000-00000000-0          !
04042018MALT PAMPA SA (S)   CEBADA CERVECERA    911         PC00939038                                        30-62022318-900-00000000-000-00000000-0          !
04042018MALT PAMPA SA (S)   CEBADA CERVECERA    911         PC00939073                                        30-62022318-900-00000000-000-00000000-0          !
04042018MALT PAMPA SA (S)   CEBADA CERVECERA    911         PC00939480                                        30-62022318-900-00000000-000-00000000-0          !
04042018MALT PAMPA SA (S)   CEBADA CERVECERA    911         PC00939896                                        30-62022318-900-00000000-000-00000000-0          !
04042018MALT PAMPA SA (S)   CEBADA CERVECERA    911         PC00938145                                        30-62022318-900-00000000-000-00000000-0          !
04042018MALT PAMPA SA (S)   CEBADA CERVECERA    911         PC00938324                                        30-62022318-900-00000000-000-00000000-0          !
04042018MALT PAMPA SA (S)   CEBADA CERVECERA    911         PC00938048                                        30-62022318-900-00000000-000-00000000-0          !
04042018MALT PAMPA SA (S)   CEBADA CERVECERA    911         PC00932345                                        30-62022318-900-00000000-000-00000000-0          !
04042018MALT PAMPA SA (S)   CEBADA CERVECERA    911         PC00932295                                        30-62022318-900-00000000-000-00000000-0          !
04042018MALT PAMPA SA (S)   CEBADA CERVECERA    911         PC00931289                                        30-62022318-900-00000000-000-00000000-0          !
04042018MALT PAMPA SA (S)   CEBADA CERVECERA    911         PC00931392                                        30-62022318-900-00000000-000-00000000-0          !
04042018MALT PAMPA SA (S)   CEBADA CERVECERA    911         PC00931501                                        30-62022318-900-00000000-000-00000000-0          !
04042018MALT PAMPA SA (S)   CEBADA CERVECERA    911         PC00930172                                        30-62022318-900-00000000-000-00000000-0          !
04042018MALT PAMPA SA (S)   CEBADA CERVECERA    911         PC00930627                                        30-62022318-900-00000000-000-00000000-0          !
04042018MALT PAMPA SA (S)   CEBADA CERVECERA    911         PC00936392                                        30-62022318-900-00000000-000-00000000-0          !
04042018MALT PAMPA SA (S)   CEBADA CERVECERA    911         PC00937059                                        30-62022318-900-00000000-000-00000000-0          !
04042018MALT PAMPA SA (S)   CEBADA CERVECERA    911         PC00935976                                        30-62022318-900-00000000-000-00000000-0          !
04042018MALT PAMPA SA (S)   CEBADA CERVECERA    911         PC00936039                                        30-62022318-900-00000000-000-00000000-0          !
04042018MALT PAMPA SA (S)   CEBADA CERVECERA    911         PC00935809                                        30-62022318-900-00000000-000-00000000-0          !
04042018MALT PAMPA SA (S)   CEBADA CERVECERA    911         PC00934105                                        30-62022318-900-00000000-000-00000000-0          !
04042018MALT PAMPA SA (S)   CEBADA CERVECERA    911         PC00933764                                        30-62022318-900-00000000-000-00000000-0          !
04042018MALT PAMPA SA (S)   CEBADA CERVECERA    911         PC00932737                                        30-62022318-900-00000000-000-00000000-0          !
04042018MALT PAMPA SA (S)   CEBADA CERVECERA    911         PC00933510                                        30-62022318-900-00000000-000-00000000-0          !
03042018ADM AGRO S.R.L.     MAIZ                911         PM00929166PELAYO AGRONOMIA S.AGRANAR S.A.C. Y F.(B30-62197317-330-70920121-930-52898170-0          !
03042018ADM AGRO S.R.L.     MAIZ                911         PM00929514AIBAL SERV. AGROP. SGRANAR S.A.C. Y F.(B30-62197317-330-61784921-230-52898170-0          !
03042018ADM AGRO S.R.L.     MAIZ                911         PM00928696MORERO SEMILLAS Y CEGRANAR S.A.C. Y F.(B30-62197317-330-66734389-130-52898170-0          !
03042018ADM AGRO S.R.L.     MAIZ                911         PM00928726MORERO SEMILLAS Y CEGRANAR S.A.C. Y F.(B30-62197317-330-66734389-130-52898170-0          !
03042018ADM AGRO S.R.L.     MAIZ                911         PM00928454TOMAS HNOS. Y CIA. SGRANAR S.A.C. Y F.(B30-62197317-330-53772127-430-52898170-0          !
03042018ADM AGRO S.R.L.     MAIZ                911         PM00928051MORERO SEMILLAS Y CEGRANAR S.A.C. Y F.(B30-62197317-330-66734389-130-52898170-0          !
03042018ADM AGRO S.R.L.     MAIZ                911         PM00928187SUC.DE ANTONIO MORENGRANAR S.A.C. Y F.(B30-62197317-330-51135504-030-52898170-0          !
03042018ADM AGRO S.R.L.     MAIZ                911         PM00928238TOMAS HNOS. Y CIA. SGRANAR S.A.C. Y F.(B30-62197317-330-53772127-430-52898170-0          !
03042018ADM AGRO S.R.L.     MAIZ                911         PM00928337PELAYO AGRONOMIA S.AGRANAR S.A.C. Y F.(B30-62197317-330-70920121-930-52898170-0          !
03042018ADM AGRO S.R.L.     MAIZ                911         PM00928656SUC.DE ANTONIO MORENGRANAR S.A.C. Y F.(B30-62197317-330-51135504-030-52898170-0          !
03042018ADM AGRO S.R.L.     MAIZ                911         PM00929517                    GRANAR S.A.C. Y F.(B30-62197317-300-00000000-030-52898170-0          !
03042018ADM AGRO S.R.L.     MAIZ                911         PM00929228                    GRANAR S.A.C. Y F.(B30-62197317-300-00000000-030-52898170-0          !
04042018ADM AGRO S.R.L.     MAIZ                911         PM00931565AIBAL SERV. AGROP. SGRANAR S.A.C. Y F.(B30-62197317-330-61784921-230-52898170-0          !
04042018ADM AGRO S.R.L.     MAIZ                911         PM00931739SUC.DE ANTONIO MORENGRANAR S.A.C. Y F.(B30-62197317-330-51135504-030-52898170-0          !
04042018ADM AGRO S.R.L.     MAIZ                911         PM00932004MOLINO CANUELAS SACIGRANAR S.A.C. Y F.(B30-62197317-330-50795084-830-52898170-0          !
04042018ADM AGRO S.R.L.     MAIZ                911         PM00931068PELAYO AGRONOMIA S.AGRANAR S.A.C. Y F.(B30-62197317-330-70920121-930-52898170-0          !
04042018ADM AGRO S.R.L.     MAIZ                911         PM00932727PELAYO AGRONOMIA S.AGRANAR S.A.C. Y F.(B30-62197317-330-70920121-930-52898170-0          !
04042018ADM AGRO S.R.L.     MAIZ                911         PM00932439AIBAL SERV. AGROP. SGRANAR S.A.C. Y F.(B30-62197317-330-61784921-230-52898170-0          !
04042018ADM AGRO S.R.L.     MAIZ                911         PM00932127                    GRANAR S.A.C. Y F.(B30-62197317-300-00000000-030-52898170-0          !
04042018ADM AGRO S.R.L.     MAIZ                911         PM00934247SUC.DE ANTONIO MORENGRANAR S.A.C. Y F.(B30-62197317-330-51135504-030-52898170-0          !
04042018ADM AGRO S.R.L.     MAIZ                911         PM00932907SUC.DE ANTONIO MORENGRANAR S.A.C. Y F.(B30-62197317-330-51135504-030-52898170-0          !
04042018ADM AGRO S.R.L.     MAIZ                911         PM00932911SUC.DE ANTONIO MORENGRANAR S.A.C. Y F.(B30-62197317-330-51135504-030-52898170-0          !
04042018ADM AGRO S.R.L.     MAIZ                911         PM00933275LARTIRIGOYEN Y CIA. GRANAR S.A.C. Y F.(B30-62197317-330-61398599-530-52898170-0          !
04042018ADM AGRO S.R.L.     MAIZ                911         PM00933554AIBAL SERV. AGROP. SGRANAR S.A.C. Y F.(B30-62197317-330-61784921-230-52898170-0          !
04042018ADM AGRO S.R.L.     MAIZ                911         PM00933646LARTIRIGOYEN Y CIA. GRANAR S.A.C. Y F.(B30-62197317-330-61398599-530-52898170-0          !
04042018ADM AGRO S.R.L.     MAIZ                911         PM00933886SUC.DE ANTONIO MORENGRANAR S.A.C. Y F.(B30-62197317-330-51135504-030-52898170-0          !
04042018ADM AGRO S.R.L.     MAIZ                911         PM00935257MOLINO CANUELAS SACIGRANAR S.A.C. Y F.(B30-62197317-330-50795084-830-52898170-0          !
04042018ADM AGRO S.R.L.     MAIZ                911         PM00933491                    GRANAR S.A.C. Y F.(B30-62197317-300-00000000-030-52898170-0          !
04042018ADM AGRO S.R.L.     MAIZ                911         PM00933735MORERO SEMILLAS Y CEGRANAR S.A.C. Y F.(B30-62197317-330-66734389-130-52898170-0          !
04042018ADM AGRO S.R.L.     MAIZ                911         PM00934014TOMAS HNOS. Y CIA. SGRANAR S.A.C. Y F.(B30-62197317-330-53772127-430-52898170-0          !
04042018ADM AGRO S.R.L.     MAIZ                911         PM00934693TOMAS HNOS. Y CIA. SGRANAR S.A.C. Y F.(B30-62197317-330-53772127-430-52898170-0          !
04042018ADM AGRO S.R.L.     MAIZ                911         PM00932425                    GRANAR S.A.C. Y F.(B30-62197317-300-00000000-030-52898170-0          !
04042018ADM AGRO S.R.L.     MAIZ                911         PM00932596TOMAS HNOS. Y CIA. SGRANAR S.A.C. Y F.(B30-62197317-330-53772127-430-52898170-0          !
04042018ADM AGRO S.R.L.     MAIZ                911         PM00931448                    GRANAR S.A.C. Y F.(B30-62197317-300-00000000-030-52898170-0          !
04042018ADM AGRO S.R.L.     MAIZ                911         PM00931459                    GRANAR S.A.C. Y F.(B30-62197317-300-00000000-030-52898170-0          !
04042018ADM AGRO S.R.L.     MAIZ                911         PM00930310                    GRANAR S.A.C. Y F.(B30-62197317-300-00000000-030-52898170-0          !
04042018ADM AGRO S.R.L.     MAIZ                911         PM00930727TOMAS HNOS. Y CIA. SGRANAR S.A.C. Y F.(B30-62197317-330-53772127-430-52898170-0          !
04042018ADM AGRO S.R.L.     MAIZ                911         PM00934209                    GRANAR S.A.C. Y F.(B30-62197317-300-00000000-030-52898170-0          !
04042018ADM AGRO S.R.L.     MAIZ                911         PM00935014TOMAS HNOS. Y CIA. SMAROUN S.A.         30-62197317-330-53772127-430-71401808-2          !
04042018ADM AGRO S.R.L.     MAIZ                911         PM00932932TOMAS HNOS. Y CIA. SMAROUN S.A.         30-62197317-330-53772127-430-71401808-2          !
04042018ADM AGRO S.R.L.     MAIZ                911         PM00933247ARIPAR CEREALES S.A.MAROUN S.A.         30-62197317-330-67948866-630-71401808-2          !
04042018ADM AGRO S.R.L.     MAIZ                911         PM00932006MOLCA S.A.          MAROUN S.A.         30-62197317-330-70130568-630-71401808-2          !
04042018ADM AGRO S.R.L.     MAIZ                911         PM00932624LOS GROBO AGROPECUARMAROUN S.A.         30-62197317-330-60445647-530-71401808-2          !
03042018ADM AGRO S.R.L.     MAIZ                911         PM00929322LOS GROBO AGROPECUARMAROUN S.A.         30-62197317-330-60445647-530-71401808-2          !
03042018ADM AGRO S.R.L.     MAIZ                911         PM00929122TOMAS HNOS. Y CIA. SMAROUN S.A.         30-62197317-330-53772127-430-71401808-2          !
03042018ADM AGRO S.R.L.     MAIZ                911         PM00929949TOMAS HNOS. Y CIA. SMAROUN S.A.         30-62197317-330-53772127-430-71401808-2          !
03042018ADM AGRO S.R.L.     MAIZ                911         PM00928673LOS GROBO AGROPECUARMAROUN S.A.         30-62197317-330-60445647-530-71401808-2          !
03042018ADM AGRO S.R.L.     MAIZ                911         PM00928516LOS GROBO AGROPECUARMAROUN S.A.         30-62197317-330-60445647-530-71401808-2          !
03042018ADM AGRO S.R.L.     MAIZ                911         PM00928394TOMAS HNOS. Y CIA. SMAROUN S.A.         30-62197317-330-53772127-430-71401808-2          !
04042018ADM AGRO S.R.L.     MAIZ                911         PM00932247LOS GROBO AGROPECUARMAROUN S.A.         30-62197317-330-60445647-530-71401808-2          !
04042018ADM AGRO S.R.L.     MAIZ                911         PM00932404LOS GROBO AGROPECUARMAROUN S.A.         30-62197317-330-60445647-530-71401808-2          !
04042018ADM AGRO S.R.L.     MAIZ                911         PM00931500                    MAROUN S.A.         30-62197317-300-00000000-030-71401808-2          !
04042018ADM AGRO S.R.L.     MAIZ                911         PM00931174                    MAROUN S.A.         30-62197317-300-00000000-030-71401808-2          !
04042018ADM AGRO S.R.L.     MAIZ                911         PM00931271TOMAS HNOS. Y CIA. SMAROUN S.A.         30-62197317-330-53772127-430-71401808-2          !
04042018ADM AGRO S.R.L.     MAIZ                911         PM00931291TOMAS HNOS. Y CIA. SMAROUN S.A.         30-62197317-330-53772127-430-71401808-2          !
04042018ADM AGRO S.R.L.     MAIZ                911         PM00930367LOS GROBO AGROPECUARMAROUN S.A.         30-62197317-330-60445647-530-71401808-2          !
04042018ADM AGRO S.R.L.     MAIZ                911         PM00930535LOS GROBO AGROPECUARMAROUN S.A.         30-62197317-330-60445647-530-71401808-2          !
04042018ADM AGRO S.R.L.     MAIZ                911         PM00932646                    MAROUN S.A.         30-62197317-300-00000000-030-71401808-2          !
04042018ADM AGRO S.R.L.     MAIZ                911         PM00934029                    MAROUN S.A.         30-62197317-300-00000000-030-71401808-2          !
04042018ADM AGRO S.R.L.     MAIZ                911         PM00934569TOMAS HNOS. Y CIA. SMAROUN S.A.         30-62197317-330-53772127-430-71401808-2          !
04042018ADM AGRO S.R.L.     MAIZ                911         PM00935129TOMAS HNOS. Y CIA. SMAROUN S.A.         30-62197317-330-53772127-430-71401808-2          !
03042018ADM AGRO S.R.L.     MAIZ                911         PM00928211CRESUD S.A.C.I.F. Y FUTUROS Y OPCIONES C30-62197317-330-50930070-030-70360510-5          !
04042018ADM AGRO S.R.L.     MAIZ                911         PM00934667                    FUTUROS Y OPCIONES C30-62197317-300-00000000-030-70360510-5          !
04042018ADM AGRO S.R.L.     MAIZ                911         PM00932991                    FUTUROS Y OPCIONES C30-62197317-300-00000000-030-70360510-5          !
04042018ADM AGRO S.R.L.     MAIZ                911         PM00935114                    DUKAREVICH S.A.     30-62197317-300-00000000-030-51753557-1          !
04042018ADM AGRO S.R.L.     MAIZ                911         PM00930737MOLINO CANUELAS SACIDUKAREVICH S.A.     30-62197317-330-50795084-830-51753557-1          !
04042018ADM AGRO S.R.L.     MAIZ                911         PM00932632MOLINO CANUELAS SACIDUKAREVICH S.A.     30-62197317-330-50795084-830-51753557-1          !
04042018ADM AGRO S.R.L.     MAIZ                911         PM00932823MOLINO CANUELAS SACIDUKAREVICH S.A.     30-62197317-330-50795084-830-51753557-1          !
03042018ADM AGRO S.R.L.     MAIZ                911         PM00928450JUAN CARLOS LATOUR SDUKAREVICH S.A.     30-62197317-330-70845691-430-51753557-1          !
03042018ADM AGRO S.R.L.     MAIZ                911         PM00929871                    DUKAREVICH S.A.     30-62197317-300-00000000-030-51753557-1          !
03042018ADM AGRO S.R.L.     MAIZ                911         PM00929998                    ENRIQUE R.ZENI SA.(B30-62197317-300-00000000-030-51282309-9          !
03042018ADM AGRO S.R.L.     MAIZ                911         PM00928233LARTIRIGOYEN Y CIA. ENRIQUE R.ZENI SA.(B30-62197317-330-61398599-530-51282309-9          !
03042018ADM AGRO S.R.L.     MAIZ                911         PM00928928                    ENRIQUE R.ZENI SA.(B30-62197317-300-00000000-030-51282309-9          !
03042018ADM AGRO S.R.L.     MAIZ                911         PM00928420                    ENRIQUE R.ZENI SA.(B30-62197317-300-00000000-030-51282309-9          !
04042018ADM AGRO S.R.L.     MAIZ                911         PM00931510                    ENRIQUE R.ZENI SA.(B30-62197317-300-00000000-030-51282309-9          !
04042018ADM AGRO S.R.L.     MAIZ                911         PM00931854                    ENRIQUE R.ZENI SA.(B30-62197317-300-00000000-030-51282309-9          !
04042018ADM AGRO S.R.L.     MAIZ                911         PM00931905LARTIRIGOYEN Y CIA. ENRIQUE R.ZENI SA.(B30-62197317-330-61398599-530-51282309-9          !
04042018ADM AGRO S.R.L.     MAIZ                911         PM00931645LARTIRIGOYEN Y CIA. ENRIQUE R.ZENI SA.(B30-62197317-330-61398599-530-51282309-9          !
04042018ADM AGRO S.R.L.     MAIZ                911         PM00930834LARTIRIGOYEN Y CIA. ENRIQUE R.ZENI SA.(B30-62197317-330-61398599-530-51282309-9          !
04042018ADM AGRO S.R.L.     MAIZ                911         PM00934795LARTIRIGOYEN Y CIA. ENRIQUE R.ZENI SA.(B30-62197317-330-61398599-530-51282309-9          !
04042018ADM AGRO S.R.L.     MAIZ                911         PM00934287                    ENRIQUE R.ZENI SA.(B30-62197317-300-00000000-030-51282309-9          !
04042018ADM AGRO S.R.L.     MAIZ                911         PM00933913                    ENRIQUE R.ZENI SA.(B30-62197317-300-00000000-030-51282309-9          !
04042018ADM AGRO S.R.L.     MAIZ                911         PM00933656                    ENRIQUE R.ZENI SA.(B30-62197317-300-00000000-030-51282309-9          !
04042018ADM AGRO S.R.L.     MAIZ                911         PM00935159LARTIRIGOYEN Y CIA. ENRIQUE R.ZENI SA.(B30-62197317-330-61398599-530-51282309-9          !
04042018ADM AGRO S.R.L.     MAIZ                911         PM00933924COOP.AG.EL PROGRESO A.C.A. (BS.AS.)     30-62197317-330-51338194-430-50012088-2          !
04042018ADM AGRO S.R.L.     MAIZ                911         PM00933597COOP.AG.EL PROGRESO A.C.A. (BS.AS.)     30-62197317-330-51338194-430-50012088-2          !
04042018ADM AGRO S.R.L.     MAIZ                911         PM00933125ACA TRENQUE LAUQUEN A.C.A. (BS.AS.)     30-62197317-330-50012088-230-50012088-2          !
04042018ADM AGRO S.R.L.     MAIZ                911         PM00934480COOP.AG.EL PROGRESO A.C.A. (BS.AS.)     30-62197317-330-51338194-430-50012088-2          !
04042018ADM AGRO S.R.L.     MAIZ                911         PM00932750COOP.AG.EL PROGRESO A.C.A. (BS.AS.)     30-62197317-330-51338194-430-50012088-2          !
03042018ADM AGRO S.R.L.     MAIZ                911         PM00929646COOP.AG.EL PROGRESO A.C.A. (BS.AS.)     30-62197317-330-51338194-430-50012088-2          !
04042018ADM AGRO S.R.L.     MAIZ                911         PM00931407CEREALES BAHIA BLANCDIAZ RIGANTI CER.SRL30-62197317-330-58231694-130-55151869-4          !
04042018ADM AGRO S.R.L.     MAIZ                911         PM00934999CEREALES BAHIA BLANCDIAZ RIGANTI CER.SRL30-62197317-330-58231694-130-55151869-4          !
03042018ADM AGRO S.R.L.     TRIGO PAN           911         PT00921963LOS GROBO AGROPECUARMAROUN S.A.         30-62197317-330-60445647-530-71401808-2          !
03042018ADM AGRO S.R.L.     TRIGO PAN           911         PT00922426LOS GROBO AGROPECUARMAROUN S.A.         30-62197317-330-60445647-530-71401808-2          !
03042018ADM AGRO S.R.L.     TRIGO PAN           911         PT00924086LOS GROBO AGROPECUARMAROUN S.A.         30-62197317-330-60445647-530-71401808-2          !
03042018ADM AGRO S.R.L.     TRIGO PAN           911         PT00921946MATZKIN SEMILLAS S.RMAROUN S.A.         30-62197317-330-62673509-230-71401808-2          !
03042018ADM AGRO S.R.L.     TRIGO PAN           911         PT00925485ARGENTIERRA S.A.    DUKAREVICH S.A.     30-62197317-330-68113595-930-51753557-1          !
03042018ADM AGRO S.R.L.     TRIGO PAN           911         PT00926111ARGENTIERRA S.A.    DUKAREVICH S.A.     30-62197317-330-68113595-930-51753557-1          !
03042018ADM AGRO S.R.L.     TRIGO PAN           911         PT00926304ARGENTIERRA S.A.    DUKAREVICH S.A.     30-62197317-330-68113595-930-51753557-1          !
03042018ADM AGRO S.R.L.     TRIGO PAN           911         PT00920330ARGENTIERRA S.A.    DUKAREVICH S.A.     30-62197317-330-68113595-930-51753557-1          !
03042018ADM AGRO S.R.L.     TRIGO PAN           911         PT00921830ARGENTIERRA S.A.    DUKAREVICH S.A.     30-62197317-330-68113595-930-51753557-1          !
04042018ADM AGRO S.R.L.     CEBADA FORRAJERA    911         PC00931126ARGENTIERRA S.A.    DUKAREVICH S.A.     30-62197317-330-68113595-930-51753557-1          !
04042018ADM AGRO S.R.L.     CEBADA FORRAJERA    911         PC00934845SUC.DE ANTONIO MORENDIRECTO             30-62197317-330-51135504-000-00000000-0          !
04042018ADM AGRO S.R.L.     CEBADA FORRAJERA    911         PC00936329SUC.DE ANTONIO MORENDIRECTO             30-62197317-330-51135504-000-00000000-0          !
04042018ADM AGRO S.R.L.     CEBADA FORRAJERA    911         PC00936856ARGENTIERRA S.A.    DUKAREVICH S.A.     30-62197317-330-68113595-930-51753557-1          !
04042018ADM AGRO S.R.L.     CEBADA FORRAJERA    911         PC00936603ARGENTIERRA S.A.    DUKAREVICH S.A.     30-62197317-330-68113595-930-51753557-1          !
04042018ADM AGRO S.R.L.     CEBADA FORRAJERA    911         PC00937416SUC.DE ANTONIO MORENDIRECTO             30-62197317-330-51135504-000-00000000-0          !
04042018ADM AGRO S.R.L.     CEBADA FORRAJERA    911         PC00938851SUC.DE ANTONIO MORENDIRECTO             30-62197317-330-51135504-000-00000000-0          !
04042018ADM AGRO S.R.L.     CEBADA FORRAJERA    911         PC00938278SUC.DE ANTONIO MORENDIRECTO             30-62197317-330-51135504-000-00000000-0          !
04042018ADM AGRO S.R.L.     CEBADA FORRAJERA    911         PC00938555SUC.DE ANTONIO MORENDIRECTO             30-62197317-330-51135504-000-00000000-0          !
04042018ADM AGRO S.R.L.     CEBADA FORRAJERA    911         PC00938773SUC.DE ANTONIO MORENDIRECTO             30-62197317-330-51135504-000-00000000-0          !
04042018ADM AGRO S.R.L.     MAIZ                911         PM00934205PRUNDER S.A.        CORTINA BERUATTO S.A30-62197317-330-55774855-130-59897378-0          !
04042018ADM AGRO S.R.L.     CEBADA FORRAJERA    911         PC00936496TOMAS HNOS. Y CIA. SENRIQUE R.ZENI SA.(B30-62197317-330-53772127-430-51282309-9          !
04042018ADM AGRO S.R.L.     CEBADA FORRAJERA    911         PC00935737TRIMAG S.A.         DUKAREVICH S.A.     30-62197317-330-68083069-630-51753557-1          !
04042018ADM AGRO S.R.L.     CEBADA FORRAJERA    911         PC00933170TOMAS HNOS. Y CIA. SENRIQUE R.ZENI SA.(B30-62197317-330-53772127-430-51282309-9          !
04042018ADM AGRO S.R.L.     CEBADA FORRAJERA    911         PC00931299TOMAS HNOS. Y CIA. SENRIQUE R.ZENI SA.(B30-62197317-330-53772127-430-51282309-9          !
04042018ADM AGRO S.R.L.     CEBADA FORRAJERA    911         PC00932046ARGENTIERRA S.A.    DUKAREVICH S.A.     30-62197317-330-68113595-930-51753557-1          !
04042018ADM AGRO S.R.L.     CEBADA FORRAJERA    911         PC00931784TRIMAG S.A.         DUKAREVICH S.A.     30-62197317-330-68083069-630-51753557-1          !
04042018ADM AGRO S.R.L.     CEBADA FORRAJERA    911         PC00932246TRIMAG S.A.         DUKAREVICH S.A.     30-62197317-330-68083069-630-51753557-1          !
04042018ADM AGRO S.R.L.     CEBADA FORRAJERA    911         PC00931141ARGENTIERRA S.A.    DUKAREVICH S.A.     30-62197317-330-68113595-930-51753557-1          !
04042018ADM AGRO S.R.L.     CEBADA FORRAJERA    911         PC00930941ARGENTIERRA S.A.    DUKAREVICH S.A.     30-62197317-330-68113595-930-51753557-1          !
04042018ADM AGRO S.R.L.     CEBADA FORRAJERA    911         PC00930383TRIMAG S.A.         DUKAREVICH S.A.     30-62197317-330-68083069-630-51753557-1          !
04042018ADM AGRO S.R.L.     CEBADA FORRAJERA    911         PC00933357ARGENTIERRA S.A.    DUKAREVICH S.A.     30-62197317-330-68113595-930-51753557-1          !
04042018ADM AGRO S.R.L.     CEBADA FORRAJERA    911         PC00932852ARGENTIERRA S.A.    DUKAREVICH S.A.     30-62197317-330-68113595-930-51753557-1          !
04042018ADM AGRO S.R.L.     CEBADA FORRAJERA    911         PC00935102TRIMAG S.A.         DUKAREVICH S.A.     30-62197317-330-68083069-630-51753557-1          !
04042018ADM AGRO S.R.L.     CEBADA FORRAJERA    911         PC00935595ARGENTIERRA S.A.    DUKAREVICH S.A.     30-62197317-330-68113595-930-51753557-1          !
04042018ADM AGRO S.R.L.     CEBADA FORRAJERA    911         PC00935661ARGENTIERRA S.A.    DUKAREVICH S.A.     30-62197317-330-68113595-930-51753557-1          !
04042018ADM AGRO S.R.L.     CEBADA FORRAJERA    911         PC00934174ARGENTIERRA S.A.    DUKAREVICH S.A.     30-62197317-330-68113595-930-51753557-1          !
04042018ADM AGRO S.R.L.     CEBADA FORRAJERA    911         PC00934675ARGENTIERRA S.A.    DUKAREVICH S.A.     30-62197317-330-68113595-930-51753557-1          !
04042018ADM AGRO S.R.L.     CEBADA FORRAJERA    911         PC00935148TRIMAG S.A.         DUKAREVICH S.A.     30-62197317-330-68083069-630-51753557-1          !
04042018ADM AGRO S.R.L.     CEBADA FORRAJERA    911         PC00937326TRIMAG S.A.         DUKAREVICH S.A.     30-62197317-330-68083069-630-51753557-1          !
04042018ADM AGRO S.R.L.     CEBADA FORRAJERA    911         PC00937123ARGENTIERRA S.A.    DUKAREVICH S.A.     30-62197317-330-68113595-930-51753557-1          !
04042018ADM AGRO S.R.L.     CEBADA FORRAJERA    911         PC00938708TRIMAG S.A.         DUKAREVICH S.A.     30-62197317-330-68083069-630-51753557-1          !
04042018ADM AGRO S.R.L.     CEBADA FORRAJERA    911         PC00938077TRIMAG S.A.         DUKAREVICH S.A.     30-62197317-330-68083069-630-51753557-1          !
04042018ADM AGRO S.R.L.     CEBADA FORRAJERA    911         PC00938240TRIMAG S.A.         DUKAREVICH S.A.     30-62197317-330-68083069-630-51753557-1          !
04042018ADM AGRO S.R.L.     CEBADA FORRAJERA    911         PC00939596ARGENTIERRA S.A.    DUKAREVICH S.A.     30-62197317-330-68113595-930-51753557-1          !
04042018ADM AGRO S.R.L.     CEBADA FORRAJERA    911         PC00938824ARGENTIERRA S.A.    DUKAREVICH S.A.     30-62197317-330-68113595-930-51753557-1          !
04042018ADM AGRO S.R.L.     CEBADA FORRAJERA    911         PC00938921TRIMAG S.A.         MAROUN S.A.         30-62197317-330-68083069-630-71401808-2          !
04042018ADM AGRO S.R.L.     CEBADA FORRAJERA    911         PC00938790ALVAREZ NEUMATICOS SMAROUN S.A.         30-62197317-330-62212069-730-71401808-2          !
04042018ADM AGRO S.R.L.     CEBADA FORRAJERA    911         PC00937634TRIMAG S.A.         MAROUN S.A.         30-62197317-330-68083069-630-71401808-2          !
04042018ADM AGRO S.R.L.     CEBADA FORRAJERA    911         PC00937918ALVAREZ NEUMATICOS SMAROUN S.A.         30-62197317-330-62212069-730-71401808-2          !
04042018ADM AGRO S.R.L.     CEBADA FORRAJERA    911         PC00936182ALVAREZ NEUMATICOS SMAROUN S.A.         30-62197317-330-62212069-730-71401808-2          !
04042018ADM AGRO S.R.L.     CEBADA FORRAJERA    911         PC00934626TRIMAG S.A.         MAROUN S.A.         30-62197317-330-68083069-630-71401808-2          !
04042018ADM AGRO S.R.L.     CEBADA FORRAJERA    911         PC00934050ALVAREZ NEUMATICOS SMAROUN S.A.         30-62197317-330-62212069-730-71401808-2          !
04042018ADM AGRO S.R.L.     CEBADA FORRAJERA    911         PC00935115TRIMAG S.A.         MAROUN S.A.         30-62197317-330-68083069-630-71401808-2          !
04042018ADM AGRO S.R.L.     CEBADA FORRAJERA    911         PC00933046ALVAREZ NEUMATICOS SMAROUN S.A.         30-62197317-330-62212069-730-71401808-2          !
04042018ADM AGRO S.R.L.     CEBADA FORRAJERA    911         PC00932832ALVAREZ NEUMATICOS SMAROUN S.A.         30-62197317-330-62212069-730-71401808-2          !
04042018ADM AGRO S.R.L.     CEBADA FORRAJERA    911         PC00932537TRIMAG S.A.         MAROUN S.A.         30-62197317-330-68083069-630-71401808-2          !
04042018ADM AGRO S.R.L.     CEBADA FORRAJERA    911         PC00932549TRIMAG S.A.         MAROUN S.A.         30-62197317-330-68083069-630-71401808-2          !
04042018ADM AGRO S.R.L.     CEBADA FORRAJERA    911         PC00931088ALVAREZ NEUMATICOS SMAROUN S.A.         30-62197317-330-62212069-730-71401808-2          !
04042018ADM AGRO S.R.L.     CEBADA FORRAJERA    911         PC00932110ALVAREZ NEUMATICOS SMAROUN S.A.         30-62197317-330-62212069-730-71401808-2          !
04042018ADM AGRO S.R.L.     CEBADA FORRAJERA    911         PC00932375ALVAREZ NEUMATICOS SMAROUN S.A.         30-62197317-330-62212069-730-71401808-2          !
04042018ADM AGRO S.R.L.     CEBADA FORRAJERA    911         PC00931773ALVAREZ NEUMATICOS SMAROUN S.A.         30-62197317-330-62212069-730-71401808-2          !
04042018ADM AGRO S.R.L.     CEBADA FORRAJERA    911         PC00930050TRIMAG S.A.         MAROUN S.A.         30-62197317-330-68083069-630-71401808-2          !
04042018ADM AGRO S.R.L.     MAIZ                911         PM00935716E. M. BAYA CASAL S.AMBC CORREDORES DE CE30-62197317-330-60741325-430-70878043-6          !
04042018ADM AGRO S.R.L.     MAIZ                911         PM00936789E. M. BAYA CASAL S.AMBC CORREDORES DE CE30-62197317-330-60741325-430-70878043-6          !
04042018ADM AGRO S.R.L.     MAIZ                911         PM00936835E. M. BAYA CASAL S.AMBC CORREDORES DE CE30-62197317-330-60741325-430-70878043-6          !
04042018ADM AGRO S.R.L.     MAIZ                911         PM00936702E. M. BAYA CASAL S.AMBC CORREDORES DE CE30-62197317-330-60741325-430-70878043-6          !
04042018ADM AGRO S.R.L.     MAIZ                911         PM00935309E. M. BAYA CASAL S.AMBC CORREDORES DE CE30-62197317-330-60741325-430-70878043-6          !
04042018ADM AGRO S.R.L.     MAIZ                911         PM00936172E. M. BAYA CASAL S.AMBC CORREDORES DE CE30-62197317-330-60741325-430-70878043-6          !
04042018ADM AGRO S.R.L.     MAIZ                911         PM00938245E. M. BAYA CASAL S.AMBC CORREDORES DE CE30-62197317-330-60741325-430-70878043-6          !
05042018ADM AGRO S.R.L.     MAIZ                911         PM00940548E. M. BAYA CASAL S.AMBC CORREDORES DE CE30-62197317-330-60741325-430-70878043-6          !
05042018ADM AGRO S.R.L.     MAIZ                911         PM00942005E. M. BAYA CASAL S.AMBC CORREDORES DE CE30-62197317-330-60741325-430-70878043-6          !
05042018ADM AGRO S.R.L.     MAIZ                911         PM00942808E. M. BAYA CASAL S.AMBC CORREDORES DE CE30-62197317-330-60741325-430-70878043-6          !
05042018ADM AGRO S.R.L.     MAIZ                911         PM00943093E. M. BAYA CASAL S.AMBC CORREDORES DE CE30-62197317-330-60741325-430-70878043-6          !
05042018ADM AGRO S.R.L.     MAIZ                911         PM00945076E. M. BAYA CASAL S.AMBC CORREDORES DE CE30-62197317-330-60741325-430-70878043-6          !
05042018ADM AGRO S.R.L.     MAIZ                911         PM00945994E. M. BAYA CASAL S.AMBC CORREDORES DE CE30-62197317-330-60741325-430-70878043-6          !
05042018ADM AGRO S.R.L.     MAIZ                911         PM00946317E. M. BAYA CASAL S.AMBC CORREDORES DE CE30-62197317-330-60741325-430-70878043-6          !
05042018ADM AGRO S.R.L.     MAIZ                911         PM00948053E. M. BAYA CASAL S.AMBC CORREDORES DE CE30-62197317-330-60741325-430-70878043-6          !
05042018ADM AGRO S.R.L.     MAIZ                911         PM00949762E. M. BAYA CASAL S.AMBC CORREDORES DE CE30-62197317-330-60741325-430-70878043-6          !
05042018ADM AGRO S.R.L.     MAIZ                911         PM00949627E. M. BAYA CASAL S.AMBC CORREDORES DE CE30-62197317-330-60741325-430-70878043-6          !
05042018ADM AGRO S.R.L.     MAIZ                911         PM00949500E. M. BAYA CASAL S.AMBC CORREDORES DE CE30-62197317-330-60741325-430-70878043-6          !
05042018ADM AGRO S.R.L.     MAIZ                911         PM00948551E. M. BAYA CASAL S.AMBC CORREDORES DE CE30-62197317-330-60741325-430-70878043-6          !
05042018ADM AGRO S.R.L.     MAIZ                911         PM00948959E. M. BAYA CASAL S.AMBC CORREDORES DE CE30-62197317-330-60741325-430-70878043-6          !
05042018ADM AGRO S.R.L.     MAIZ                911         PM00948998E. M. BAYA CASAL S.AMBC CORREDORES DE CE30-62197317-330-60741325-430-70878043-6          !
06042018ADM AGRO S.R.L.     MAIZ                911         PM00951492E. M. BAYA CASAL S.AMBC CORREDORES DE CE30-62197317-330-60741325-430-70878043-6          !
06042018ADM AGRO S.R.L.     MAIZ                911         PM00953673E. M. BAYA CASAL S.AMBC CORREDORES DE CE30-62197317-330-60741325-430-70878043-6          !
06042018ADM AGRO S.R.L.     MAIZ                911         PM00955464E. M. BAYA CASAL S.AMBC CORREDORES DE CE30-62197317-330-60741325-430-70878043-6          !
05042018ADM AGRO S.R.L.     MAIZ                911         PM00948111E. M. BAYA CASAL S.AMBC CORREDORES DE CE30-62197317-330-60741325-430-70878043-6          !
05042018ADM AGRO S.R.L.     MAIZ                911         PM00946506E. M. BAYA CASAL S.AMBC CORREDORES DE CE30-62197317-330-60741325-430-70878043-6          !
05042018ADM AGRO S.R.L.     MAIZ                911         PM00946646E. M. BAYA CASAL S.AMBC CORREDORES DE CE30-62197317-330-60741325-430-70878043-6          !
05042018ADM AGRO S.R.L.     MAIZ                911         PM00945241E. M. BAYA CASAL S.AMBC CORREDORES DE CE30-62197317-330-60741325-430-70878043-6          !
05042018ADM AGRO S.R.L.     MAIZ                911         PM00945328E. M. BAYA CASAL S.AMBC CORREDORES DE CE30-62197317-330-60741325-430-70878043-6          !
05042018ADM AGRO S.R.L.     MAIZ                911         PM00944160E. M. BAYA CASAL S.AMBC CORREDORES DE CE30-62197317-330-60741325-430-70878043-6          !
05042018ADM AGRO S.R.L.     MAIZ                911         PM00944908E. M. BAYA CASAL S.AMBC CORREDORES DE CE30-62197317-330-60741325-430-70878043-6          !
05042018ADM AGRO S.R.L.     MAIZ                911         PM00941784E. M. BAYA CASAL S.AMBC CORREDORES DE CE30-62197317-330-60741325-430-70878043-6          !
05042018ADM AGRO S.R.L.     MAIZ                911         PM00941491E. M. BAYA CASAL S.AMBC CORREDORES DE CE30-62197317-330-60741325-430-70878043-6          !
05042018ADM AGRO S.R.L.     MAIZ                911         PM00941596E. M. BAYA CASAL S.AMBC CORREDORES DE CE30-62197317-330-60741325-430-70878043-6          !
05042018ADM AGRO S.R.L.     MAIZ                911         PM00942263E. M. BAYA CASAL S.AMBC CORREDORES DE CE30-62197317-330-60741325-430-70878043-6          !
05042018ADM AGRO S.R.L.     MAIZ                911         PM00940369E. M. BAYA CASAL S.AMBC CORREDORES DE CE30-62197317-330-60741325-430-70878043-6          !
05042018ADM AGRO S.R.L.     MAIZ                911         PM00940496E. M. BAYA CASAL S.AMBC CORREDORES DE CE30-62197317-330-60741325-430-70878043-6          !
06042018ADM AGRO S.R.L.     MAIZ                911         PM00955459E. M. BAYA CASAL S.AMBC CORREDORES DE CE30-62197317-330-60741325-430-70878043-6          !
06042018ADM AGRO S.R.L.     MAIZ                911         PM00953202E. M. BAYA CASAL S.AMBC CORREDORES DE CE30-62197317-330-60741325-430-70878043-6          !
06042018ADM AGRO S.R.L.     MAIZ                911         PM00954014E. M. BAYA CASAL S.AMBC CORREDORES DE CE30-62197317-330-60741325-430-70878043-6          !
06042018ADM AGRO S.R.L.     MAIZ                911         PM00954124E. M. BAYA CASAL S.AMBC CORREDORES DE CE30-62197317-330-60741325-430-70878043-6          !
06042018ADM AGRO S.R.L.     MAIZ                911         PM00952191E. M. BAYA CASAL S.AMBC CORREDORES DE CE30-62197317-330-60741325-430-70878043-6          !
06042018ADM AGRO S.R.L.     MAIZ                911         PM00953061E. M. BAYA CASAL S.AMBC CORREDORES DE CE30-62197317-330-60741325-430-70878043-6          !
06042018ADM AGRO S.R.L.     MAIZ                911         PM00953100E. M. BAYA CASAL S.AMBC CORREDORES DE CE30-62197317-330-60741325-430-70878043-6          !
06042018ADM AGRO S.R.L.     MAIZ                911         PM00950801E. M. BAYA CASAL S.AMBC CORREDORES DE CE30-62197317-330-60741325-430-70878043-6          !
05042018ADM AGRO S.R.L.     MAIZ                911         PM00949133                    INTAGRO S.A.(SUC.B.A30-62197317-300-00000000-030-66329026-2          !
05042018ADM AGRO S.R.L.     MAIZ                911         PM00949400                    INTAGRO S.A.(SUC.B.A30-62197317-300-00000000-030-66329026-2          !
05042018ADM AGRO S.R.L.     MAIZ                911         PM00949950                    INTAGRO S.A.(SUC.B.A30-62197317-300-00000000-030-66329026-2          !
06042018ADM AGRO S.R.L.     MAIZ                911         PM00953151                    INTAGRO S.A.(SUC.B.A30-62197317-300-00000000-030-66329026-2          !
06042018ADM AGRO S.R.L.     MAIZ                911         PM00952914                    INTAGRO S.A.(SUC.B.A30-62197317-300-00000000-030-66329026-2          !
05042018ADM AGRO S.R.L.     MAIZ                911         PM00942742                    INTAGRO S.A.(SUC.B.A30-62197317-300-00000000-030-66329026-2          !
05042018ADM AGRO S.R.L.     MAIZ                911         PM00948274                    INTAGRO S.A.(SUC.B.A30-62197317-300-00000000-030-66329026-2          !
04042018ADM AGRO S.R.L.     MAIZ                911         PM00939046                    INTAGRO S.A.(SUC.B.A30-62197317-300-00000000-030-66329026-2          !
04042018ADM AGRO S.R.L.     MAIZ                911         PM00935260                    INTAGRO S.A.(SUC.B.A30-62197317-300-00000000-030-66329026-2          !
05042018MALT PAMPA SA (S)   CEBADA CERVECERA    911         PC00941473                                        30-62022318-900-00000000-000-00000000-0          !
05042018MALT PAMPA SA (S)   CEBADA CERVECERA    911         PC00949942                                        30-62022318-900-00000000-000-00000000-0          !
05042018MALT PAMPA SA (S)   CEBADA CERVECERA    911         PC00949285                                        30-62022318-900-00000000-000-00000000-0          !
05042018MALT PAMPA SA (S)   CEBADA CERVECERA    911         PC00949871                                        30-62022318-900-00000000-000-00000000-0          !
05042018MALT PAMPA SA (S)   CEBADA CERVECERA    911         PC00941210                                        30-62022318-900-00000000-000-00000000-0          !
05042018MALT PAMPA SA (S)   CEBADA CERVECERA    911         PC00941848                                        30-62022318-900-00000000-000-00000000-0          !
05042018MALT PAMPA SA (S)   CEBADA CERVECERA    911         PC00941963                                        30-62022318-900-00000000-000-00000000-0          !
05042018MALT PAMPA SA (S)   CEBADA CERVECERA    911         PC00942353                                        30-62022318-900-00000000-000-00000000-0          !
05042018MALT PAMPA SA (S)   CEBADA CERVECERA    911         PC00942427                                        30-62022318-900-00000000-000-00000000-0          !
05042018MALT PAMPA SA (S)   CEBADA CERVECERA    911         PC00942552                                        30-62022318-900-00000000-000-00000000-0          !
05042018MALT PAMPA SA (S)   CEBADA CERVECERA    911         PC00942639                                        30-62022318-900-00000000-000-00000000-0          !
05042018MALT PAMPA SA (S)   CEBADA CERVECERA    911         PC00940788                                        30-62022318-900-00000000-000-00000000-0          !
05042018MALT PAMPA SA (S)   CEBADA CERVECERA    911         PC00941537                                        30-62022318-900-00000000-000-00000000-0          !
05042018MALT PAMPA SA (S)   CEBADA CERVECERA    911         PC00941699                                        30-62022318-900-00000000-000-00000000-0          !
05042018MALT PAMPA SA (S)   CEBADA CERVECERA    911         PC00943528                                        30-62022318-900-00000000-000-00000000-0          !
05042018MALT PAMPA SA (S)   CEBADA CERVECERA    911         PC00944122                                        30-62022318-900-00000000-000-00000000-0          !
05042018MALT PAMPA SA (S)   CEBADA CERVECERA    911         PC00945578                                        30-62022318-900-00000000-000-00000000-0          !
05042018MALT PAMPA SA (S)   CEBADA CERVECERA    911         PC00945696                                        30-62022318-900-00000000-000-00000000-0          !
05042018MALT PAMPA SA (S)   CEBADA CERVECERA    911         PC00945868                                        30-62022318-900-00000000-000-00000000-0          !
05042018MALT PAMPA SA (S)   CEBADA CERVECERA    911         PC00947180                                        30-62022318-900-00000000-000-00000000-0          !
05042018MALT PAMPA SA (S)   CEBADA CERVECERA    911         PC00946723                                        30-62022318-900-00000000-000-00000000-0          !
05042018MALT PAMPA SA (S)   CEBADA CERVECERA    911         PC00947763                                        30-62022318-900-00000000-000-00000000-0          !
05042018MALT PAMPA SA (S)   CEBADA CERVECERA    911         PC00948389                                        30-62022318-900-00000000-000-00000000-0          !
05042018MALT PAMPA SA (S)   CEBADA CERVECERA    911         PC00948030                                        30-62022318-900-00000000-000-00000000-0          !
05042018MALT PAMPA SA (S)   CEBADA CERVECERA    911         PC00948989                                        30-62022318-900-00000000-000-00000000-0          !
05042018MALT PAMPA SA (S)   CEBADA CERVECERA    911         PC00948991                                        30-62022318-900-00000000-000-00000000-0          !
05042018MALT PAMPA SA (S)   CEBADA CERVECERA    911         PC00948254                                        30-62022318-900-00000000-000-00000000-0          !
05042018MALT PAMPA SA (S)   CEBADA CERVECERA    911         PC00948664                                        30-62022318-900-00000000-000-00000000-0          !
05042018MALT PAMPA SA (S)   CEBADA CERVECERA    911         PC00948822                                        30-62022318-900-00000000-000-00000000-0          !
05042018MALT PAMPA SA (S)   CEBADA CERVECERA    911         PC00948835                                        30-62022318-900-00000000-000-00000000-0          !
05042018MALT PAMPA SA (S)   CEBADA CERVECERA    911         PC00947910                                        30-62022318-900-00000000-000-00000000-0          !
05042018MALT PAMPA SA (S)   CEBADA CERVECERA    911         PC00947189                                        30-62022318-900-00000000-000-00000000-0          !
05042018MALT PAMPA SA (S)   CEBADA CERVECERA    911         PC00944448                                        30-62022318-900-00000000-000-00000000-0          !
05042018MALT PAMPA SA (S)   CEBADA CERVECERA    911         PC00944140                                        30-62022318-900-00000000-000-00000000-0          !
05042018MALT PAMPA SA (S)   CEBADA CERVECERA    911         PC00943670                                        30-62022318-900-00000000-000-00000000-0          !
05042018MALT PAMPA SA (S)   CEBADA CERVECERA    911         PC00943988                                        30-62022318-900-00000000-000-00000000-0          !
05042018MALT PAMPA SA (S)   CEBADA CERVECERA    911         PC00940018                                        30-62022318-900-00000000-000-00000000-0          !
05042018MALT PAMPA SA (S)   CEBADA CERVECERA    911         PC00940188                                        30-62022318-900-00000000-000-00000000-0          !
05042018MALT PAMPA SA (S)   CEBADA CERVECERA    911         PC00942988                                        30-62022318-900-00000000-000-00000000-0          !
05042018MALT PAMPA SA (S)   CEBADA CERVECERA    911         PC00942059                                        30-62022318-900-00000000-000-00000000-0          !
05042018MALT PAMPA SA (S)   CEBADA CERVECERA    911         PC00941307                                        30-62022318-900-00000000-000-00000000-0          !
05042018MALT PAMPA SA (S)   CEBADA CERVECERA    911         PC00940993                                        30-62022318-900-00000000-000-00000000-0          !
05042018MALT PAMPA SA (S)   CEBADA CERVECERA    911         PC00941119                                        30-62022318-900-00000000-000-00000000-0          !
05042018MALT PAMPA SA (S)   CEBADA CERVECERA    911         PC00941526                                        30-62022318-900-00000000-000-00000000-0          !
05042018MALT PAMPA SA (S)   CEBADA CERVECERA    911         PC00941530                                        30-62022318-900-00000000-000-00000000-0          !
05042018MALT PAMPA SA (S)   CEBADA CERVECERA    911         PC00945637                                        30-62022318-900-00000000-000-00000000-0          !
05042018MALT PAMPA SA (S)   CEBADA CERVECERA    911         PC00949090                                        30-62022318-900-00000000-000-00000000-0          !
05042018MALT PAMPA SA (S)   CEBADA CERVECERA    911         PC00949628                                        30-62022318-900-00000000-000-00000000-0          !
05042018MALT PAMPA SA (S)   CEBADA CERVECERA    911         PC00949707                                        30-62022318-900-00000000-000-00000000-0          !
05042018MALT PAMPA SA (S)   CEBADA CERVECERA    911         PC00949844                                        30-62022318-900-00000000-000-00000000-0          !
05042018MALT PAMPA SA (S)   CEBADA CERVECERA    911         PC00949493                                        30-62022318-900-00000000-000-00000000-0          !
05042018MALT PAMPA SA (S)   CEBADA CERVECERA    911         PC00941523                                        30-62022318-900-00000000-000-00000000-0          !
