036300056831806630525718626305257186263055699183500120180326011JSL421   0237612000030340000000000000000000000000000000000000000000000000000000000000000000000000000000000000000000000000000000000000000000000000000000000000000000000000000000000000000000000000001330000002        20177016455   ELCHAY GUSTAVO                                    20177016455                                                  1                                30525718626A.F.A. CAÑADA DE GOMEZ                            30525718626A.F.A. ROSARIO                                    881387168162062018052520180326000030200DAP926      01080003400048778241  1718      20573 000358002012256191830621973173                
036300056777509130511355040305175355713070358452300120180326011COE149   0974103000030120000000000000000000000000000000000000000000000000000000000000000000000000000000000000000000000000000000000000000000000000000000000000000000000000000000000000000000000000001210000002        20163028124   SUAREZ, JUAN                                      20111655724                                                  1                                30711113254LA SUERTE AGRO S.A.                               30511355040SUC.DE ANTONIO MORENO SA                          881119175690982018051120180323000030010CXC683      04500007300081749759  1718      20573 000925373062379018130621973173                
036300056763613230525718626305257186263055699183500120180326011EGA393   0161212000031200000000000000000000000000000000000000000000000000000000000000000000000000000000000000000000000000000000000000000000000000000000000000000000000000000000000000000000000000001220000002        23058707449   ARMOA ISAAC                                       20103090416                                                  1                                30525718626A.F.A. CAÑADA DE GOMEZ                            30525718626A.F.A. ROSARIO                                    881026516374812018050620180326000031000RXY855      01000003280042219358  1718      20573 000345003067385692230621973173                
036300056811065030540962827305289817003070804163300120180326011AWE816   1445412000029480000000000000000000000000000000000000000000000000000000000000000000000000000000000000000000000000000000000000000000000000000000000000000000000000000000000000000000000000001350000002        20115752333   AZAR, HUGO SALVADOR                               20115752333                                                  1                                00000000000                                                  00000000000                                                  881277716480162018051920180325000029580DQA758      02000004803187413498  171820086 20573 000522023054096282730621973173                
036300056817002430525718626305257186263055699183500120180326011TIE205   0220012000028400000000000000000000000000000000000000000000000000000000000000000000000000000000000000000000000000000000000000000000000000000000000000000000000000000000000000000000000000001360000002        20336663238   CAMUGNARO LAUREANO                                30544769509                                                  1                                30525718626A.F.A. CHOVET                                     30525718626A.F.A. CHOVET                                     881295578786102018052020180326000028180UFW965      01400004130079077457  1718      20573 000413002023759912930621973173                
036300056828320330539703850305754603602012948844200120180326011EVA578   1331801000030460000000000000000000000000000000000000000000000000000000000000000000000000000000000000000000000000000000000000000000000000000000000000000000000000000000000000000000000000001290000002        20100933293   IAMPEDRO MIGUEL                                   20100933293                                                  1                                00000000000                                                  00000000000                                                  881303133402692018052520180326000030480EZN666      01650004330010235152  171820233 20573 000457003053970385030621973173                
036300056718282230657159618305289817003070738607600120180326011TIB504   1250305000029900000000000000000000000000000000000000000000000000000000000000000000000000000000000000000000000000000000000000000000000000000000000000000000000000000000000000000000000000001280000002        23128090959   CORTESSI VICTORIO                                 23128090959                                                  1                                00000000000                                                  00000000000                                                  880681116850642018041120180326000029920AB683AK     01200002660078018151  171820878 20573 000377003065715961830621973173                
036300056751967430666946541307036051053368915023900120180326011LLA976   0070601000029980000000000000000000000000000000000000000000000000000000000000000000000000000000000000000000000000000000000000000000000000000000000000000000000000000000000000000000000000001370000002        20182000443   GUZMAN, OSMAR                                     30708807954                                                  1                                00000000000                                                  00000000000                                                  880911208250332018043020180324000030040LLA990      02000004257061545060  171822377 20573 000425703066694654130621973173                
036300056756645130508273181305001208823071020579100320180326011FKS070   1856612000029660000000000000000000000000000000000000000000000000000000000000000000000000000000000000000000000000000000000000000000000000000000000000000000000000000000000000000000000000301220107002        20256295793   TENAGLIA CARLOS                                   20276066596                                                  1                                00000000000                                                  00000000000                                                  881017777170102018050420180323000029660EMS909      01730003897931914328  171823388 20573 000421393050827318130500120882                
036300056762138030525718626305257186263055699183500120180326011VTY351   0748612000029460000000000000000000000000000000000000000000000000000000000000000000000000000000000000000000000000000000000000000000000000000000000000000000000000000000000000000000000000001340000002        20368882314   ESCOBAN ANGEL                                     20368882314                                                  1                                30525718626A.F.A. ROSARIO                                    30525718626A.F.A. FIRMAT                                     881068141365982018050520180326000030000TGM749      02000004900026452586  1718      20573 000522002021656907630621973173                
036300056814110730640872566305394355893071153956100120180326011AA327CR  0687403000030620000000000000000000000000000000000000000000000000000000000000000000000000000000000000000000000000000000000000000000000000000000000000000000000000000000000000000000000000001320000002        20251985279   NUÑEZ, ARIEL                                      33526159409                                                  1                                00000000000                                                  30640872566COMMODITIES S.A.                                  881297824334562018052020180324000030520KGN149      02700005487279982001  171820187 20573 000659943352615940930621973173                
036300056815318430640872566305394355893071020579100120180326011CBO018   1874012000029560000000000000000000000000000000000000000000000000000000000000000000000000000000000000000000000000000000000000000000000000000000000000000000000000000000000000000000000000001380000002        20142487269   GOROSITO, JULIO                                   20142487269                                                  1                                00000000000                                                  30640872566COMMODITIES S.A.                                  881292873911592018052020180325000029510ALC252      01500004431939500499  1718      20573 000466522006290448930621973173                
036300056826688830613985995305128230993070784475900120180326011CPV019   0963703000030700000000000000000000000000000000000000000000000000000000000000000000000000000000000000000000000000000000000000000000000000000000000000000000000000000000000000000000000000001310000002        20287152745   CELIZ, GUILLERMO                                  27161415117                                                  1                                00000000000                                                  30613985995LARTIRIGOYEN Y CIA. S.A.                          881276730662362018052320180325000030500CQP155      01500004318167433629  1718      20573 000431812017190467730621973173                
036300056829201530640872566305394355893071020579100120180326011JMV464   0281703000029480000000000000000000000000000000000000000000000000000000000000000000000000000000000000000000000000000000000000000000000000000000000000000000000000000000000000000000000000001400000002        20176951835   MINONDO DANIEL ROBERTO                            33710653149                                                  1                                00000000000                                                  30640872566COMMODITIES S.A.                                  881333086014412018052520180326000029380JMV462      04850006000023927860  161721439 20573 000946003068395807330621973173                
036300056717260530671729338305128230993071177943000120180326011CMT636   1928105000031700000000000000000000000000000000000000000000000000000000000000000000000000000000000000000000000000000000000000000000000000000000000000000000000000000000000000000000000000001400000002        23321420419   DIORIO RICARDO                                    23321420419                                                  1                                00000000000                                                  30671729338LA MARIANA S.A.                                   880613598182642018041020180326000031700HVO191      01050002490091765912  171840010620573 000353003053400376130621973173                
036300056736545730708104074305289817003055699183500120180326011GFC364   0725101000030580000000000000000000000000000000000000000000000000000000000000000000000000000000000000000000000000000000000000000000000000000000000000000000000000000000000000000000000000001380000002        20176374005   CHAVERO GUILLERMO                                 30711868549                                                  1                                00000000000                                                  00000000000                                                  880849998741522018042320180325000030500GEJ988      02250005693594026729  171823879 20573 000569003070810407430621973173                
036300056754457530640872566305394355893071251173300120180326011KMC849   1006603000030480000000000000000000000000000000000000000000000000000000000000000000000000000000000000000000000000000000000000000000000000000000000000000000000000000000000000000000000000001240000002        20387290223   DE YONG, FRANCO                                   30533319315                                                  1                                00000000000                                                  30640872566COMMODITIES S.A.                                  880952527859482018050120180325000030440KMT078      02400004749915366167  171821724 20573 000599903053331931530621973173                
036300056756644630508273181305001208823071020579100320180326011KNN752   1856612000030260000000000000000000000000000000000000000000000000000000000000000000000000000000000000000000000000000000000000000000000000000000000000000000000000000000000000000000000000301230108002        20334524435   PERREN, GONZALO                                   20334524435                                                  1                                00000000000                                                  00000000000                                                  881017777170102018050420180323000030210LKH355      01730003897961498537  171823388 20573 000471973050827318130500120882                
036300056757329130511355040305289817003070738607600120180326011FLV643   0949612000029740000000000000000000000000000000000000000000000000000000000000000000000000000000000000000000000000000000000000000000000000000000000000000000000000000000000000000000000000001270000002        20065643694   CORTESE, JUAN                                     27312424091                                                  1                                00000000000                                                  30511355040SUC.DE ANTONIO MORENO SA                          881638300066302018050420180325000029940FJV955      02100004865646316798  1617      20573 000540633061043536630621973173                
036300056767816230503508725306632902623055699183500120180326011THX686   1102212000028940000000000000000000000000000000000000000000000000000000000000000000000000000000000000000000000000000000000000000000000000000000000000000000000000000000000000000000000000001290000002        20122497020   FALERONI JUAN C.                                  20122497020                                                  6                                00000000000                                                  30503508725MONSANTO ARGENTINA SRL                            881096419846292018050720180326000028940UZG594      00700002780059976146  1718      20573 000278002705078047930621973173                
036300056775138030640872566305394355893070968765000120180326011GGR714   1418003000029620000000000000000000000000000000000000000000000000000000000000000000000000000000000000000000000000000000000000000000000000000000000000000000000000000000000000000000000000001290000002        20371325590   0REYNA, LUCAS                                     33668853779                                                  1                                00000000000                                                  30640872566COMMODITIES S.A.                                  881777751380002018050920180324000030000GGR719      34100003100089164481  1718      20573 000749983366885377930621973173                
036300056781790730525718626305257186263055699183500120180326011VNR453   1765312000029440000000000000000000000000000000000000000000000000000000000000000000000000000000000000000000000000000000000000000000000000000000000000000000000000000000000000000000000000001290000002        20262099262   MARTIN PABLO                                      20262099262                                                  1                                00000000000                                                  30525718626A.F.A. ROSARIO                                    881123242950192018051220180326000029060EBK990      01350003800072490753  1718      20573 000403902018491198230621973173                
036300056784722230539703850305754603602012948844200120180326011UYN343   1331801000029280000000000000000000000000000000000000000000000000000000000000000000000000000000000000000000000000000000000000000000000000000000000000000000000000000000000000000000000000001320000002        20180115944   VALENZUELA CLAUDIO                                30711946833                                                  1                                00000000000                                                  00000000000                                                  881107146679052018051220180326000029420WHW981      01650004570010929760  171820233 20573 000457003053970385030621973173                
036300056787311330708587415307036051053070738607600320180326011KFA880   1928105000030520000000000000000000000000000000000000000000000000000000000000000000000000000000000000000000000000000000000000000000000000000000000000000000000000000000000000000000000000001220109002        20346053837   ZAPATA, HECTOR                                    23295954809                                                  1                                00000000000                                                  30708587415HECTOR A. BERTONE S.A.                            881104888070712018051320180324000030380MLN393      00940002333170722581  171820580 20573 000294833060495413030621973173                
036300056790639420143898602305289817003070784475900120180326011MDJ753   1165212000030140000000000000000000000000000000000000000000000000000000000000000000000000000000000000000000000000000000000000000000000000000000000000000000000000000000000000000000000000001320000002        20348886798   PEREYRA, JUAN PABLO                               30711231486                                                  1                                00000000000                                                  20143898602BERTONI RUBEN CARLOS                              881163990430942018051320180324000029600EUL992      02800005000046838715  1718      20573 000677903071123148630621973173                
036300056807818930708587415305515186943070804163300120180326011AA211WJ  1039503000029500000000000000000000000000000000000000000000000000000000000000000000000000000000000000000000000000000000000000000000000000000000000000000000000000000000000000000000000000001300000002        20295194988   BARRERA ARIEL                                     30511698827                                                  1                                30644215403PUERTO ARROYO SECO S.R.L.                         30708587415HECTOR A. BERTONE S.A.                            881279750068472018051920180326000029620OVB749      02600005100017899438  1718      20573 000460003051169882730621973173                
036300056811065230540962827305289817003070804163300120180326011GHK125   1445412000030080000000000000000000000000000000000000000000000000000000000000000000000000000000000000000000000000000000000000000000000000000000000000000000000000000000000000000000000000001330000002        20317672064   DURTE, GERMAN                                     20138617166                                                  1                                00000000000                                                  00000000000                                                  881277716480162018051920180325000030060AB155CA     02000004803147906042  171820086 20573 000522083054096282730621973173                
036300056811691830526896110305001208823055699183500120180326011EFT257   0570201000031260000000000000000000000000000000000000000000000000000000000000000000000000000000000000000000000000000000000000000000000000000000000000000000000000000000000000000000000000001360000002        20188934537   MAYOL LUCAS                                       20188934537                                                  1                                00000000000                                                  00000000000                                                  881201810564762018051920180326000031200GIV312      01930004540010084053  161722752 20573 000509003052689611030621973173                
036300056815784330708587415307036051053071020579100120180326011CHJ077   0173203000030180000000000000000000000000000000000000000000000000000000000000000000000000000000000000000000000000000000000000000000000000000000000000000000000000000000000000000000000000001320000002        20103661294   BORDONI, JUAN CARLOS                              30715700200                                                  1                                00000000000                                                  30708587415HECTOR A. BERTONE S.A.                            881290891914682018052020180323000030800CSZ086      07310005200029631744  1718      20573 000731032031335252930621973173                
036300056817134730613985995305128230993070784475900120180326011JPR288   1320812000028180000000000000000000000000000000000000000000000000000000000000000000000000000000000000000000000000000000000000000000000000000000000000000000000000000000000000000000000000001300000002        20122493181   RICHIERO DANIEL                                   30714641766                                                  1                                20171904677ROSSO GERARDO JOSE                                30613985995LARTIRIGOYEN Y CIA. S.A.                          881235040442042018052120180326000028209SNS368      00100001230083319567  171819380120573 000123003064421540330621973173                
036300056701622030525718626305257186263052571862600120180326011TXU984   1317012000029820000000000000000000000000000000000000000000000000000000000000000000000000000000000000000000000000000000000000000000000000000000000000000000000000000000000000000000000000001330000002        20119928762   PIERABELLA, OMAR                                  20119928762                                                  1                                30525718626A.F.A. BIGAND                                     30525718626A.F.A. ROSARIO                                    880466822329282018032720180325000029800ULI846      00900003049486647143  171822065 20573 000320993052571862630621973173                
036300056701623030525718626305257186263052571862600120180326011RPI904   1317012000029520000000000000000000000000000000000000000000000000000000000000000000000000000000000000000000000000000000000000000000000000000000000000000000000000000000000000000000000000001260000002        20083746468   MASCASRINO, MANUEL                                20104116176                                                  1                                30525718626A.F.A. BIGAND                                     30525718626A.F.A. ROSARIO                                    880466822329282018032720180325000029600TIX963      00900003049456228218  171822065 20573 000320993052571862630621973173                
036300056701623730525718626305257186263052571862600120180326011UDH231   1317012000031620000000000000000000000000000000000000000000000000000000000000000000000000000000000000000000000000000000000000000000000000000000000000000000000000000000000000000000000000001180000002        27076861825   SANTINI, RUBEN                                    27076861825                                                  1                                30525718626A.F.A. BIGAND                                     30525718626A.F.A. ROSARIO                                    880466822329282018032720180325000031540HJR596      00900003049476111660  171822065 20573 000320993052571862630621973173                
036300056749561230614171061305289817003071177943000120180326011NPG490   0544512000031420000000000000000000000000000000000000000000000000000000000000000000000000000000000000000000000000000000000000000000000000000000000000000000000000000000000000000000000000001330000002        24300155886   GODOY CARLOS                                      33690467289                                                  1                                00000000000                                                  00000000000                                                  880918147236882018043020180326000030500AC006OR     01600003500041560265  1718      20573 000488003061417106130621973173                
036300056757329230511355040305289817003070738607600120180326011BPI219   0949612000030560000000000000000000000000000000000000000000000000000000000000000000000000000000000000000000000000000000000000000000000000000000000000000000000000000000000000000000000000001280000002        20203558032   AZCUE, FELIX                                      20317068795                                                  1                                00000000000                                                  30511355040SUC.DE ANTONIO MORENO SA                          881063830006632018050420180325000030540HAU567      02100004865076523899  1617      20573 000540633061043536630621973173                
036300056762138330525718626305257186263055699183500120180326011AA837IF  0748612000029040000000000000000000000000000000000000000000000000000000000000000000000000000000000000000000000000000000000000000000000000000000000000000000000000000000000000000000000000001360000002        20227641224   DIAZ SERGIO                                       30711590869                                                  1                                30525718626A.F.A. - BS. AS.                                  30525718626A.F.A. FIRMAT                                     881068141365982018050520180326000030000AB052RY     02000004600026794748  1718      20573 000522002021656907630621973173                
036300056762139030525718626305257186263055699183500120180326011TBE261   0748612000030240000000000000000000000000000000000000000000000000000000000000000000000000000000000000000000000000000000000000000000000000000000000000000000000000000000000000000000000000001350000002        20179721873   SARTOR SELSO                                      30711590869                                                  1                                30525718626A.F.A. ROSARIO                                    30525718626A.F.A. FIRMAT                                     881068141365982018050520180326000030000DEJ856      02000004600066754672  1718      20573 000522002021656907630621973173                
036300056774224130656780378305289817003067446476900120180326011CIY652   1881012000030660000000000000000000000000000000000000000000000000000000000000000000000000000000000000000000000000000000000000000000000000000000000000000000000000000000000000000000000000001370000002        23239626149   PALACIOS, GREGORIO                                27166292145                                                  1                                00000000000                                                  00000000000                                                  881081147613352018050820180324000030670VHR254      02200005205048742626  171821148 20573 000559193065678037830621973173                
036300056782176730640872566305394355893070913689100120180326011ITA905   2163001000030460000000000000000000000000000000000000000000000000000000000000000000000000000000000000000000000000000000000000000000000000000000000000000000000000000000000000000000000000001320000002        20372549026   COURREGES, CRISTHIAN ANDRE                        20386327174                                                  1                                00000000000                                                  30640872566COMMODITIES S.A.                                  881180723735912018051220180324000030300CFB698      01700004467148876509  1718      20573 000446713053640367830621973173                
036300056782460630709428973306632902623071177943000120180326011ECI747   0234403000030100000000000000000000000000000000000000000000000000000000000000000000000000000000000000000000000000000000000000000000000000000000000000000000000000000000000000000000000000001290000002        20258228252   GAGNO JORGE                                       30709011460                                                  1                                00000000000                                                  00000000000                                                  881132445325182018051220180326000030120CIE191      02370005640053470624  1718      20573 000593003070942897330621973173                
036300056784721430539703850305754603602012948844200120180326011GLM215   1331801000030620000000000000000000000000000000000000000000000000000000000000000000000000000000000000000000000000000000000000000000000000000000000000000000000000000000000000000000000000001370000002        20218790535   IBARRA, GUSTAVO JAVIER                            20218790535                                                  1                                00000000000                                                  00000000000                                                  881107146679052018051220180325000030680GPW753      01650004335630967491  171820233 20573 000457543053970385030621973173                
036300056787110130525718626305257186263052571862600120180326011RJP233   1100401000029640000000000000000000000000000000000000000000000000000000000000000000000000000000000000000000000000000000000000000000000000000000000000000000000000000000000000000000000000001320000002        20124345082   PANUZZO JORGE                                     20124345082                                                  1                                30525718626A.F.A. PERGAMINO                                  30525718626A.F.A. PERGAMINO                                  881168520669732018051320180326000029560WWX049      01210003600076306371  171821934 20573 000379003052571862630525718626                
036300056801446830571702246305515186943055699183500120180326011VUB661   1445412000030520000000000000000000000000000000000000000000000000000000000000000000000000000000000000000000000000000000000000000000000000000000000000000000000000000000000000000000000000001290000002        20285758549   DEPETRIS, CARDLO                                  30714618241                                                  1                                00000000000                                                  30571702246FUMISEM S.A                                       881145765708432018051720180323000030520SWT447      02000004803130642987  171822820 20573 000522083067483297030621973173                
036300056801447630503508725306632902623055699183500120180326011WMU145   1445412000030100000000000000000000000000000000000000000000000000000000000000000000000000000000000000000000000000000000000000000000000000000000000000000000000000000000000000000000000000001280000002        20235252032   PIERDOMINICI, JULIO                               30714618241                                                  1                                30709362018ROBLE VIEJO SA                                    30503508725MONSANTO ARGENTINA SRL                            881145765784302018051720180325000030120EBW653      02000004801120512128  171822820 20573 000522803067483297030621973173                
036300056806185130520760535305207605353070784475900120180326011GQQ122   0219701000030680000000000000000000000000000000000000000000000000000000000000000000000000000000000000000000000000000000000000000000000000000000000000000000000000000000000000000000000000001450000002        23291476759   GARCIA, LUCAS                                     20288727636                                                  1                                00000000000                                                  30520760535COLOMBO Y MAGLIANO SA                             881251509797072018051820180325000030390AB337YE     04000008791675806749  1718      20573 000897163071066409530621973173                
036300056811064330540962827305289817003070804163300120180326011VYT158   1445412000028500000000000000000000000000000000000000000000000000000000000000000000000000000000000000000000000000000000000000000000000000000000000000000000000000000000000000000000000000001300000002        20084454525   PIGLIAPOCO, HUGO                                  30600585262                                                  1                                00000000000                                                  00000000000                                                  881277716480162018051920180324000028600EVN435      02000004803157402693  171820086 20573 000522083054096282730621973173                
036300056811066530540962827305289817003070804163300120180326011GHK125   1445412000029980000000000000000000000000000000000000000000000000000000000000000000000000000000000000000000000000000000000000000000000000000000000000000000000000000000000000000000000000001370000002        20317672064   DURTE GERMAN                                      20138617166                                                  1                                00000000000                                                  00000000000                                                  881277716480162018051920180326000030080AB1155C     02000004800057488008  171820086 20573 000522003054096282730621973173                
036300056815035230511355040305175355713070358452300120180326011WFT376   0022721000030560000000000000000000000000000000000000000000000000000000000000000000000000000000000000000000000000000000000000000000000000000000000000000000000000000000000000000000000000001400000002        20252354043   GARRO, CLAUDIO                                    20217041180                                                  1                                00000000000                                                  30511355040SUC.DE ANTONIO MORENO SA                          881297226445062018052020180321000030450RLD768      05000007500089986468  1617      20573 000958603053216579930621973173                
036300056815784230708587415307036051053071020579100120180326011BYS480   0173303000028960000000000000000000000000000000000000000000000000000000000000000000000000000000000000000000000000000000000000000000000000000000000000000000000000000000000000000000000000001330000002        20221047495   AVENDAÑO, MIGUEL                                  30715700200                                                  1                                00000000000                                                  30708587415HECTOR A. BERTONE S.A.                            881290891891462018052020180323000029100BYS481      03000005200039816362  1718      20573 000731032031335252930621973173                
036300056817146430640872566305394355893071251173300120180326011IDO836   1024803000030360000000000000000000000000000000000000000000000000000000000000000000000000000000000000000000000000000000000000000000000000000000000000000000000000000000000000000000000000001200000002        20233505731   QUINTEROS ABEL                                    30534917674                                                  1                                00000000000                                                  30640872566COMMODITIES S.A.                                  881242949790792018052120180326000030200FJU876      02000004140064801698  171821424 20573 000522003053491767430621973173                
036300056817444230708587415305515186943071020579100120180326011RGM254   1316612000028980000000000000000000000000000000000000000000000000000000000000000000000000000000000000000000000000000000000000000000000000000000000000000000000000000000000000000000000000001330000002        20323899917   MARTIN, MARCOS                                    33715598049                                                  1                                00000000000                                                  30708587415HECTOR A. BERTONE S.A.                            881268537166672018052120180325000029020WWX750      02400005280076113586  1718      20573 000599003071194608630621973173                
036300056817524030525718626305257186263055699183500120180326011MOF796   1256803000028160000000000000000000000000000000000000000000000000000000000000000000000000000000000000000000000000000000000000000000000000000000000000000000000000000000000000000000000000001200000002        20378762732   MARTIN OMAR                                       30714187895                                                  1                                00000000000                                                  30525718626A.F.A. MARCOS JUAREZ                              881241181963012018052120180324000028020MVQ024      03600007000064921512  1718      20573 000844743050933581430525718626                
036300056821013033606710629307036051053071177943000120180326011TAO852   1381412000029840000000000000000000000000000000000000000000000000000000000000000000000000000000000000000000000000000000000000000000000000000000000000000000000000000000000000000000000000001410000002        20379803092   ALVAREZ, NICOLAS                                  30711090165                                                  1                                00000000000                                                  00000000000                                                  881295006851272018052220180324000029840AA646HQ     01900004732989980445  1718      20573 000503513360671062930621973173                
036300056822781730708150890306452898263071177943000120180326011HYC334   0876403000030900000000000000000000000000000000000000000000000000000000000000000000000000000000000000000000000000000000000000000000000000000000000000000000000000000000000000000000000000001320000002        20303503162   5FRIEDLI GERMAN                                   20120910648                                                  1                                00000000000                                                  00000000000                                                  881200429000192018052220180326000030840DFF289      01700003600030525231  171823176 20573 000466003070815089030621973173                
036300056825095723066081079305289817003070804163300120180326011DDX410   1702803000030960000000000000000000000000000000000000000000000000000000000000000000000000000000000000000000000000000000000000000000000000000000000000000000000000000000000000000000000000001290000002        20143540252   GUIÑAZU REYNALDO                                  27112280877                                                  1                                00000000000                                                  00000000000                                                  881298228166042018052220180325000031010OPX646      02800005650099793295  1718      20573 000677002306608107930621973173                
036300056825283330640872566305394355893055699183500120180326011OEI287   1721103000029840000000000000000000000000000000000000000000000000000000000000000000000000000000000000000000000000000000000000000000000000000000000000000000000000000000000000000000000000001340000002        20258802927   MARTINEZ ARIEL                                    30698531912                                                  1                                30594732088CONCI SRL                                         30640872566COMMODITIES S.A.                                  881256662246312018052220180324000030000OEI260      04200004000045023455  1617      20573 000400002023719588530621973173                
036300056825815333708873379000000000003070784475900120180326011JOM894   1418003000030000000000000000000000000000000000000000000000000000000000000000000000000000000000000000000000000000000000000000000000000000000000000000000000000000000000000000000000000000301190000002        20412658230   MOREYRA, VICTOR                                   20263898916                                                  1                                00000000000                                                  00000000000                                                  881299396656262018052320180325000030000WZH433      03200006050089685684  1718      20573 000768973370887337930507950848                
036300056826086830709747610306632902623070804163300120180326011BYP307   2126003000029040000000000000000000000000000000000000000000000000000000000000000000000000000000000000000000000000000000000000000000000000000000000000000000000000000000000000000000000000001330000002        20336566771   BAICCHI JAVIER, ALEJANDRO                         30709383074                                                  1                                00000000000                                                  30709747610GALEAZZI S.A.                                     881246902217652018052320180325000029000GLF614      03800004800074973481  1718      20573 000480003070938307430621973173                
036300056826412730534655068306632902623070738607600120180326011GPB268   1933503000030220000000000000000000000000000000000000000000000000000000000000000000000000000000000000000000000000000000000000000000000000000000000000000000000000000000000000000000000000001350000002        24375222171   MUIÑA, LEANDRO                                    24375222171                                                  1                                00000000000                                                  00000000000                                                  881285587187782018052320180325000029940BHN680      05400007000028704573  1718      20573 000961703053465506830621973173                
036300056826689630613985995305128230993070784475900120180326011OXH714   0963703000028780000000000000000000000000000000000000000000000000000000000000000000000000000000000000000000000000000000000000000000000000000000000000000000000000000000000000000000000000001270000002        20292694416   BRANDAN, OSCAR                                    30710781547                                                  1                                00000000000                                                  30613985995LARTIRIGOYEN Y CIA. S.A.                          881276730662362018052320180325000029000OTZ351      01500004318137188006  1718      20573 000431812017190467730621973173                
036300056827172330640872566305394355893070738607600120180326011OJM078   0067512000029520000000000000000000000000000000000000000000000000000000000000000000000000000000000000000000000000000000000000000000000000000000000000000000000000000000000000000000000000001250000002        20269128721   MEDINA, SERGIO                                    30673986095                                                  1                                30673986095EL GUAYABO S.R.L.                                 30640872566COMMODITIES S.A.                                  881207629221752018052420180325000029400AA431KV     01100003240020002261  1718      20573 000361003071042543030621973173                
036300056830283030708478438305596907553071177943000120180326011HPH532   0648412000030160000000000000000000000000000000000000000000000000000000000000000000000000000000000000000000000000000000000000000000000000000000000000000000000000000000000000000000000000001300000002        20303893726   MANSILLA MARIO                                    30711590869                                                  1                                00000000000                                                  00000000000                                                  881381971961692018052520180326000030400OPO702      01650004300098009479  1718      20573 000457003070847843830621973173                
036300056701066930506792165305289817003055699183500120180326011SSS263   1256803000029760000000000000000000000000000000000000000000000000000000000000000000000000000000000000000000000000000000000000000000000000000000000000000000000000000000000000000000000000001270000002        20172442413   MUÑOZ EDUARDO                                     20222599238                                                  1                                00000000000                                                  30506792165CARGILL S.A.C.I.                                  880451039986732018032720180324000029840UKU480      04000005200045032358  171820063 20573 000897003050679216530621973173                
036300056701067030506792165305128230993055699183500120180326011SYX352   1256803000030900000000000000000000000000000000000000000000000000000000000000000000000000000000000000000000000000000000000000000000000000000000000000000000000000000000000000000000000000001270000002        20247838296   BRITOS JUAN MANUEL                                20222599238                                                  1                                00000000000                                                  00000000000                                                  880451039986732018032720180324000031160UOS958      04000005200015511057  171820063 20573 000897003050679216530621973173                
036300056701623930525718626305257186263052571862600120180326011HYL545   1317012000030600000000000000000000000000000000000000000000000000000000000000000000000000000000000000000000000000000000000000000000000000000000000000000000000000000000000000000000000000001230000002        20214168473   CHIAPPINI, CLAUDIO                                20214168473                                                  1                                30525718626A.F.A. BIGAND                                     30525718626A.F.A. ROSARIO                                    880466822329282018032720180325000030600LLU058      00900003049486335030  171822065 20573 000320993052571862630621973173                
036300056707402730525718626305257186263052571862600120180326011LNI827   0627712000030040000000000000000000000000000000000000000000000000000000000000000000000000000000000000000000000000000000000000000000000000000000000000000000000000000000000000000000000000001340000002        20253757826   DIBLASI, LEONARDO                                 30525718626                                                  1                                30525718626A.F.A. CASILDA                                    30525718626A.F.A. ROSARIO                                    880562955997992018040120180325000030200BKL288      00620002459616010205  171821896 20573 000258913052571862630621973173                
036300056735200230640872566305394355893071020579100120180326011AC329RL  0643303000028820000000000000000000000000000000000000000000000000000000000000000000000000000000000000000000000000000000000000000000000000000000000000000000000000000000000000000000000000001380000002        20282862256   ELIAS LEONARDO                                    30708106999                                                  1                                00000000000                                                  30640872566COMMODITIES S.A.                                  880893590818012018042320180325000029000FJM020      03600006100039154906  1617      20573 000844743070810699930621973173                
036300056749559830614171061305289817003071177943000120180326011NPG490   0544512000031180000000000000000000000000000000000000000000000000000000000000000000000000000000000000000000000000000000000000000000000000000000000000000000000000000000000000000000000000001200000002        24300155886   GODOY, CARLOS                                     33690467289                                                  1                                00000000000                                                  00000000000                                                  880918147236882018043020180324000030500AC006OR     01600003500011973588  1718      20573 000448563061417106130621973173                
036300056749560330614171061305289817003071177943000120180326011AXA595   0544512000029500000000000000000000000000000000000000000000000000000000000000000000000000000000000000000000000000000000000000000000000000000000000000000000000000000000000000000000000000001340000002        20351023873   ESCOBAR MATIAS                                    20131289201                                                  1                                00000000000                                                  00000000000                                                  880918147236882018043020180325000030000JGL556      01600003500091254100  1718      20573 000448563061417106130621973173                
036300056749561130614171061305289817003071177943000120180326011AB695JY  0544512000032440000000000000000000000000000000000000000000000000000000000000000000000000000000000000000000000000000000000000000000000000000000000000000000000000000000000000000000000000001310000002        20305534758   AGUIRRE GABRIEL                                   33690467289                                                  1                                00000000000                                                  00000000000                                                  880918147236882018043020180326000032000AC006OS     01600003500031036568  1718      20573 000488003061417106130621973173                
036300056751220430555495494305289817003070738607600120180326011AB090MB  0276701000029540000000000000000000000000000000000000000000000000000000000000000000000000000000000000000000000000000000000308005500000000000000000000000000000000000000000000000000000000001250000001        20252334379   CASTAÑO ROQUE                                     30555495494                                                  1                                00000000000                                                  30555495494LA BRAGADENSE S.A.                                880973380598142018043020180324000029470RPR551      02000004740017546332  1617      20573 000474003059312172730621973173                
036300056752828530604456475307140180823070738607600120180326011TNI186   0069812000029400000000000000000000000000000000000000000000000000000000000000000000000000000000000000000000000000000000000000000000000000000000000000000000000000000000000000000000000000001240000002        20342662510   ROSSO, LUCAS                                      30712211497                                                  1                                00000000000                                                  30604456475LOS GROBO AGROPECUARIA SA                         880985776638552018050120180324000029300HXY520      03000004600048769574  1718      20573 000731003070731252830621973173                
036300056756644430508273181305001208823071020579100320180326011AB551PP  1856612000029520000000000000000000000000000000000000000000000000000000000000000000000000000000000000000000000000000000000000000000000000000000000000000000000000000000000000000000000000301190109002        23285834139   AGUIAR, GERARDO                                   20236104606                                                  1                                00000000000                                                  00000000000                                                  881017777170102018050420180323000029480BGU709      01730003897961661408  171823388 20573 000471973050827318130500120882                
036300056756644730508273181305001208823071020579100320180326011IKJ214   1856204000030160000000000000000000000000000000000000000000000000000000000000000000000000000000000000000000000000000000000000000000000000000000000000000000000000000000000000000000000000301220106002        20306930363   RIVA, JUAN                                        20306930363                                                  1                                00000000000                                                  00000000000                                                  881017777170102018050420180323000030140AXI093      01730003897951620581  171823388 20573 000471973050827318130500120882                
036300056756645330508273181305001208823071020579100320180326011BCP749   1856612000030680000000000000000000000000000000000000000000000000000000000000000000000000000000000000000000000000000000000000000000000000000000000000000000000000000000000000000000000000311220108002        23230391319   SCHMUTH, GUSTAVO                                  23202740499                                                  1                                00000000000                                                  00000000000                                                  881017777170102018050420180323000030710DYF234      01730003897961171601  171823388 20573 000471973050827318130500120882                
036300056756645630508273181305001208823071020579100320180326011IPK987   1856612000027880000000000000000000000000000000000000000000000000000000000000000000000000000000000000000000000000000000000000000000000000000000000000000000000000000000000000000000000000281210000002        20328333423   MENDOZA ALAN                                      30708740116                                                  1                                00000000000                                                  00000000000                                                  881017777170102018050420180326000027950NEU440      01730003890071280828  171823388 20573 000471003050827318130500120882                
036300056757065630643991868305289817003055699183500120180326011LMF662   1267701000029200000000000000000000000000000000000000000000000000000000000000000000000000000000000000000000000000000000000000000000000000000000000000000000000000000000000000000000000000001340000002        20321295925   DAIUB, ABEL                                       20321295925                                                  1                                00000000000                                                  30643991868CENTRO AGROP.MODELO S.A.                          881068322083262018050420180324000029000AA978TY     01680004629546352714  1718      20573 000462923071023065630621973173                
036300056757328930511355040305289817003070738607600120180326011BPY278   0949612000029160000000000000000000000000000000000000000000000000000000000000000000000000000000000000000000000000000000000000000000000000000000000000000000000000000000000000000000000000001290000002        20241689744   RAMIREZ, DANIEL                                   20295187396                                                  1                                00000000000                                                  30511355040SUC.DE ANTONIO MORENO SA                          881063830006632018050420180325000029400RAM627      02100004866646352763  1617      20573 000540633061043536630621973173                
036300056759201730643991868305289817003055699183500120180326011EVL715   0682912000030200000000000000000000000000000000000000000000000000000000000000000000000000000000000000000000000000000000000000000000000000000000000000000000000000000000000000000000000000001450000002        20300073981   CARNIBELLA LUIS                                   20113540339                                                  1                                00000000000                                                  30643991868CENTRO AGROP.MODELO S.A.                          881035337343422018050420180326000030000FEX495      01550004400043836512  1718      20573 000440002004688976330621973173                
036300056761576130671729338305128230992022033466000120180326011TGW703   0219212000029400000000000000000000000000000000000000000000000000000000000000000000000000000000000000000000000000000000000000000000000000000000000000000000000000000000000000000000000000001360000002        20276097726   HERRERA, MIGUEL                                   20238196176                                                  1                                00000000000                                                  30671729338LA MARIANA S.A.                                   881091506251212018050520180325000029460AUI340      01500003400029621346  171822113 20573 000431813070802876930621973173                
036300056762115130508273181305001208823071020579100320180326011KSA017   1826712000030060000000000000000000000000000000000000000000000000000000000000000000000000000000000000000000000000000000000000000000000000000000000000000000000000000000000000000000000000301150100002        20136763629   GARCIA, OSCAR                                     20111730645                                                  1                                00000000000                                                  00000000000                                                  881011950027322018050520180323000029880IRM175      02300004650121954448  171820428 20573 000579543050827318130500120882                
036300056762115630508273181305001208823071020579100320180326011FPY414   1826712000030620000000000000000000000000000000000000000000000000000000000000000000000000000000000000000000000000000000000000000000000000000000000000000000000000000000000000000000000000311170101002        20254543676   KESTLER RAUL                                      27288560558                                                  1                                00000000000                                                  00000000000                                                  881011950027322018050520180323000030560UVP724      02300004650171529871  171820428 20573 000579543050827318130500120882                
036300056762136030525718626305257186263055699183500120180326011RKY832   0748612000029240000000000000000000000000000000000000000000000000000000000000000000000000000000000000000000000000000000000000000000000000000000000000000000000000000000000000000000000000001420000002        20363094059   RAVOTTI R                                         23325582979                                                  1                                00000000000                                                  30525718626A.F.A. FIRMAT                                     881068141635982018050520180324000030000BLK194      02000004900066335066  1718      20573 000522092021656907630525718626                
036300056762138930525718626305257186263055699183500120180326011NDJ289   0748612000029720000000000000000000000000000000000000000000000000000000000000000000000000000000000000000000000000000000000000000000000000000000000000000000000000000000000000000000000000001420000002        20242542755   CAMPORA PAUL                                      30711590869                                                  1                                30525718626A.F.A. ROSARIO                                    30525718626A.F.A. FIRMAT                                     881068141365982018050520180326000030000NFC733      02000004600086584920  1718      20573 000522002021656907630621973173                
036300056767816430503508725306632902623055699183500120180326011RMW499   1102212000030540000000000000000000000000000000000000000000000000000000000000000000000000000000000000000000000000000000000000000000000000000000000000000000000000000000000000000000000000001260000002        20184170001   DURIGON CLAUDIO                                   20184170001                                                  1                                00000000000                                                  30503508725MONSANTO ARGENTINA SRL                            881091649846292018050720180326000030500EIK635      00700002780029250049  1718      20573 000278002705078047930621973173                
036300056772219830632090206305128230993055699183500120180326011VHK240   0237612000030500000000000000000000000000000000000000000000000000000000000000000000000000000000000000000000000000000000000000000000000000000000000000000000000000000000000000000000000000001370000002        20139196679   TAMAGNINI, ADRIAN                                 20201434476                                                  1                                00000000000                                                  30632090206SURSEM S.A.                                       881072138725982018050820180325000030280SIZ790      00830003000037916998  1718      20573 000300003065513503730621973173                
036300056772293630547233774307036051053070913689100120180326011AYN514   0640301000029140000000000000000000000000000000000000000000000000000000000000000000000000000000000000000000000000000000000000000000000000000000000000000000000000000000000000000000000000001390000002        20204734624   BERMEJO RICARDO                                   30710261837                                                  1                                00000000000                                                  00000000000                                                  881043516168572018050820180326000029100ALT342      03000005100034952438  171820330 20573 000731003054723377430621973173                
036300056775121030643991868305289817003055699183500120180326011TLG044   1431012000028240000000000000000000000000000000000000000000000000000000000000000000000000000000000000000000000000000000000000000000000000000000000000000000000000000000000000000000000000001320000002        20291132139   CASADEI, MARTIN                                   20291132139                                                  1                                00000000000                                                  30643991868CENTRO AGROP.MODELO S.A.                          881091779122682018050920180325000028400FEV824      01900004800029958862  1718      20573 000503512310141432930621973173                
036300056775290730624951383307087804363071020579100120180326011VHQ228   0615312000030480000000000000000000000000000000000000000000000000000000000000000000000000000000000000000000000000000000000000000000000000000000000000000000000000000000000000000000000000001390000002        23297613049   CUFRE PABLO M                                     30710444745                                                  1                                00000000000                                                  30624951383MONTE MOLINO S.A.                                 881049097819962018050920180326000030440RUH828      01250003200084306732  171821344 20573 000386003070801481430621973173                
036300056777509330511355040305175355713071196276600120180326011MHK701   0974103000031540000000000000000000000000000000000000000000000000000000000000000000000000000000000000000000000000000000000000000000000000000000000000000000000000000000000000000000000000001130000002        20257139825   RODRIGUEZ, ALEJANDRO                              30707504435                                                  1                                00000000000                                                  30511355040SUC.DE ANTONIO MORENO SA                          881119175690982018051120180323000031240CNC452      04500007300031742583  1718      20573 000925373062379018130621973173                
036300056778890033594057649305399760913070804163300120180326011UHK110   1039503000029300000000000000000000000000000000000000000000000000000000000000000000000000000000000000000000000000000000000000000000000000000000000000000000000000000000000000000000000000001430000002        20263774907   FIORITO, MARCOS                                   20263774907                                                  1                                00000000000                                                  00000000000                                                  881196940571602018051120180324000029320WLA438      02540004500089072519  171820705 20573 000628693359405764930621973173                
036300056779565730653347711305289817003055699183500120180326011LWV358   1931103000030960000000000000000000000000000000000000000000000000000000000000000000000000000000000000000000000000000000000000000000000000000000000000000000000000000000000000000000000000001180000002        20315494495   CISTERNA, SERGIO                                  20229336984                                                  1                                00000000000                                                  00000000000                                                  881113579906312018051120180323000030500FPT794      02700005400031951376  1718      20573 000659943065334771130621973173                
036300056782176230640872566305394355893070913689100120180326011WYJ472   1350801000030760000000000000000000000000000000000000000000000000000000000000000000000000000000000000000000000000000000000000000000000000000000000000000000000000000000000000000000000000001340000002        20100445493   ALIMAD, YAMED                                     27168037185                                                  1                                00000000000                                                  30640872566COMMODITIES S.A.                                  881180723735912018051220180324000030640CDT876      01700004467138342270  1718      20573 000446713053640367830621973173                
036300056782176630640872566305394355893070913689100120180326011GDG261   0201403000030480000000000000000000000000000000000000000000000000000000000000000000000000000000000000000000000000000000000000000000000000000000000000000000000000000000000000000000000000001400000002        20235887100   ROIGE, NORBERTO                                   20235887100                                                  1                                00000000000                                                  30640872566COMMODITIES S.A.                                  881100723733592018051220180324000030580RXD457      01700004467178603776  1718      20573 000446713053640367830621973173                
036300056784722130539703850305754603602012948844200120180326011TDI352   1331801000030700000000000000000000000000000000000000000000000000000000000000000000000000000000000000000000000000000000000000000000000000000000000000000000000000000000000000000000000000001280000002        20140765245   PIERMATTEI JUAN                                   20140765245                                                  1                                00000000000                                                  00000000000                                                  881107146679052018051220180326000030840WXD925      01650004570070291768  171820233 20573 000457003053970385030621973173                
036300056786193730500120882305001208823071196276600120180326011NTT947   0922903000028460010005320018700000000000000000000000000000000000000000000000000000000000000000000000000000000000000000000000000000000000000000000000000000000000000000000000000000000000001490000002        20252362615   CITTADINI DAMIAN                                  20118061935                                                  1                                00000000000                                                  30500120882A.C.A. OLIVA                                      881153053707272018051220180325000028640PLN001      03300007870055321905  1617      20573 000787002011806193530621973173                
036300056797860030551535440305289817003070738607600120180326011AB339VC  0834301000029780000000000000000000000000000000000000000000000000000000000000000000000000000000000000000000000000000000000000000000000000000000000000000000000000000000000000000000000000001410000002        20311515285   LOPEZ OCATVIO                                     30709111597                                                  1                                00000000000                                                  00000000000                                                  881100671486882018051520180326000029920AB339VA     02200004460080689415  171824148 20573 000559003055153544030621973173                
036300056799655130705468008305128230993070804163300120180326011AB052PA  0669703000030960000000000000000000000000000000000000000000000000000000000000000000000000000000000000000000000000000000000000000000000000000000000000000000000000000000000000000000000000001320000002        20367950545   GIORGETTI, LEONEL                                 30710052502                                                  1                                00000000000                                                  30705468008AGROTEC.Y SERVICIOS S.A.                          881128359507292018051620180324000030940AA110FG     03100006200032922789  171825099 20573 000749983070546800830621973173                
036300056799862030604456475307140180823070738607600120180326011LAB019   0231203000030420000000000000000000000000000000000000000000000000000000000000000000000000000000000000000000000000000000000000000000000000000000000000000000000000000000000000000000000000001190000002        20300072233   DIAZ, FABIO                                       30711231400                                                  1                                00000000000                                                  00000000000                                                  811511151694382018051620180323000030640AB778OR     03000004600065377023  1718      20573 000731933060445647530621973173                
036300056801447830571702246305515186943055699183500120180326011CTP354   1445412000029960000000000000000000000000000000000000000000000000000000000000000000000000000000000000000000000000000000000000000000000000000000000000000000000000000000000000000000000000001280000002        20163859980   USTARES MARIO                                     30714618241                                                  1                                00000000000                                                  30571702246FUMISEM S.A                                       881104576578432018051720180326000030100RFJ924      02000004800040646187  171822820 20573 000522003067483297030621973173                
036300056803873730534251994305001208823071153956100120180326011SXD211   1445412000028780000000000000000000000000000000000000000000000000000000000000000000000000000000000000000000000000000000000000000000000000000000000000000000000000000000000000000000000000001390000002        20278576052   GALIOTTI, CARLOS                                  30714618241                                                  1                                00000000000                                                  00000000000                                                  881241027355102018051820180325000028820EET970      02200004803154031734  171820579 20573 000522083053425199430621973173                
036300056803873930534251994305001208823071153956100120180326011FZM789   1445412000027840000000000000000000000000000000000000000000000000000000000000000000000000000000000000000000000000000000000000000000000000000000000000000000000000000000000000000000000000001390000002        20313170641   DEPETRI, BERNARDO                                 30714618241                                                  1                                00000000000                                                  00000000000                                                  881241273551002018051820180325000027860BHM166      02000004800094014009  171820579 20573 000222003053425199430621973173                
036300056806323030708587415305128230993071020579100120180326011GFC590   1146316000030000000000000000000000000000000000000000000000000000000000000000000000000000000000000000000000000000000000000000000000000000000000000000000000000000000000000000000000000000001280000002        20311692527   BENITEZ, LUIS                                     20311692527                                                  1                                00000000000                                                  30708587415HECTOR A. BERTONE S.A.                            881255419379332018051820180325000029800NEI266      02600004500035752321  1718      20573 000522002021401733530621973173                
036300056810081723166128919306632902622006058136400120180326011FYH958   1672303000029780000000000000000000000000000000000000000000000000000000000000000000000000000000000000000000000000000000000000000000000000000000000000000000000000000000000000000000000000001310000002        20275574946   MERCAU, EZEQUIEL                                  20275574946                                                  1                                00000000000                                                  00000000000                                                  881295755290032018051920180325000029800IZQ526      03000005800059085270  1718      20573 000731032316612891930621973173                
036300056810082323166128919306632902622006058136400120180326011AB666DK  1672303000030920000000000000000000000000000000000000000000000000000000000000000000000000000000000000000000000000000000000000000000000000000000000000000000000000000000000000000000000000001380000002        20303083422   GOGLIO, LUCIANO                                   27297019681                                                  1                                00000000000                                                  00000000000                                                  881295755290032018051920180325000030950HBD209      03000005800059672013  1718      20573 000731032316612891930621973173                
036300056810291030525371707305128230993055699183500120180326011TTT505   0876403000031040000000000000000000000000000000000000000000000000000000000000000000000000000000000000000000000000000000000000000000000000000000000000000000000000000000000000000000000000001330000002        20329432670   OCAMPO, JORGE                                     20329432670                                                  1                                00000000000                                                  30525371707MAURER ROLANDO SRL                                881270699844632018051920180325000031000TBO759      01700003600047958123  171820054 20573 000466523052537170730621973173                
036300056811640630640872566305394355893071177943000120180326011HXF271   1826603000030220000000000000000000000000000000000000000000000000000000000000000000000000000000000000000000000000000000000000000000000000000000000000000000000000000000000000000000000000001330000002        20100501598   FERRER LUCAS                                      20100501598                                                  1                                00000000000                                                  30640872566COMMODITIES S.A.                                  881217477242492018051920180326000029950XCQ003      03600005500041381080  161723130 20573 000844002006600863130621973173                
036300056811984530707787194307036051053070784475900120180326011JSV798   1064403000029840000000000000000000000000000000000000000000000000000000000000000000000000000000000000000000000000000000000000000000000000000000000000000000000000000000000000000000000000001380000002        20217538026   PERALTA, CRISTIAN                                 20325268078                                                  1                                30507950848MOLINO CANUELAS SACIFIA                           30707787194TERRAPAMPA S.A.                                   881202396686402018051920180323000029900KIT319      03000005400020535659  1718      20573 000731033070879231030621973173                
036300056814115130640872566305394355893071153956100120180326011NBZ425   0687403000031160000000000000000000000000000000000000000000000000000000000000000000000000000000000000000000000000000000000000000000000000000000000000000000000000000000000000000000000000001290000002        20230392944   GAMBARTE, FABIAN                                  33526159409                                                  1                                00000000000                                                  30640872566COMMODITIES S.A.                                  881297824334562018052020180324000031000NCW670      02700005487239861203  171820187 20573 000659943352615940930621973173                
036300056814116433526159409306633808653071153956100120180326011CSE980   0687403000030940000000000000000000000000000000000000000000000000000000000000000000000000000000000000000000000000000000000000000000000000000000000000000000000000000000000000000000000000001300000002        20314058020   LUNA DANIEL EMILIO                                20224282045                                                  1                                00000000000                                                  00000000000                                                  881297824334562018052020180325000030840CUY585      02700005487289829840  171820187 20573 000659943352615940930621973173                
036300056817066330525718626305257186263055699183500120180326011CQY436   0408612000030220000000000000000000000000000000000000000000000000000000000000000000000000000000000000000000000000000000000000000000000000000000000000000000000000000000000000000000000000001350000002        20373459829   ONGUINO, LEONEL                                   20162456076                                                  1                                00000000000                                                  30525718626A.F.A. J.B. MOLINA                                881245020326452018052120180325000030420CQB630      00300001800084256862  1718      20573 000182192021619051430621973173                
036300056817146530640872566305394355893071251173300120180326011AA067RM  1024803000030160000000000000000000000000000000000000000000000000000000000000000000000000000000000000000000000000000000000000000000000000000000000000000000000000000000000000000000000000001220000002        20206500345   ARAGON DANIEL                                     30534917674                                                  1                                00000000000                                                  30640872566COMMODITIES S.A.                                  881242949790792018052120180326000030120KIV213      02000004140054744898  171821424 20573 000522003053491767430621973173                
036300056821282030640872566305394355893070784475900120180326011AB262ZD  1868812000028240000000000000000000000000000000000000000000000000000000000000000000000000000000000000000000000000000000000000000000000000000000000000000000000000000000000000000000000000001390000002        20336175098   DIAZ DARIO                                        33707077609                                                  1                                00000000000                                                  30640872566COMMODITIES S.A.                                  881250294079162018052220180326000028200ICE437      02200005030085348098  1718      20573 000559002031767293530621973173                
036300056822137330640872566305394355893071251173300120180326011DDZ681   0876403000030440000000000000000000000000000000000000000000000000000000000000000000000000000000000000000000000000000000000000000000000000000000000000000000000000000000000000000000000000001190000002        20337281924   PELLEGRINO, PABLO                                 30714957844                                                  1                                00000000000                                                  30640872566COMMODITIES S.A.                                  881268275858032018052220180324000030300JDK716      01700003300096463615  171820045 20573 000466523053342225630621973173                
036300056822137630640872566305394355893071251173300120180326011NZX330   0876403000030660000000000000000000000000000000000000000000000000000000000000000000000000000000000000000000000000000000000000000000000000000000000000000000000000000000000000000000000000001150000002        20148811076   GARETTO ADRIAN                                    27276733341                                                  1                                00000000000                                                  30640872566COMMODITIES S.A.                                  881268275858032018052220180325000030570BVU615      01700003300076001713  171820045 20573 000466003053342225630621973173                
036300056824428430525718626305257186263055699183500120180326011EOE931   0963703000030320000000000000000000000000000000000000000000000000000000000000000000000000000000000000000000000000000000000000000000000000000000000000000000000000000000000000000000000000001340000002        20240672430   CASTAGNA, MARCOS                                  20240672430                                                  1                                30525718626A.F.A. MARCOS JUAREZ                              30525718626A.F.A. ROSARIO                                    888129935599042018052220180324000030300PAX482      01700004431959647706  1718      20573 000466522020630315930621973173                
036300056825094320143898602305289817003052673056500120180326011AA267CT  0861501000031300000000000000000000000000000000000000000000000000000000000000000000000000000000000000000000000000000000000000000000000000000000000000000000000000000000000000000000000000001230000002        20291735941   FARIAS, DARIO                                     20163347343                                                  1                                00000000000                                                  20143898602BERTONI RUBEN CARLOS                              881249467433002018052220180320000031000NOT297      03450008110074357510  171821768 20573 000811163060656355430621973173                
036300056825310930644215403307036051053070784475900120180326011AA326TB  0410803000030760000000000000000000000000000000000000000000000000000000000000000000000000000000000000000000000000000000000000000000000000000000000000000000000000000000000000000000000000001420000002        22300134940   CABAÑES JOSE                                      30710912897                                                  1                                30705468008AGROTEC.Y SERVICIOS S.A.                          30644215403PUERTO ARROYO SECO S.R.L.                         881208271535342018052220180324000030500AA234NO     04800006200050255041  1617      20573 000942002011668456030621973173                
036300056825815233708873379000000000003070784475900120180326011ESE258   1418003000030060000000000000000000000000000000000000000000000000000000000000000000000000000000000000000000000000000000000000000000000000000000000000000000000000000000000000000000000000301180000002        20303093355   OLMEDO LUCIANO                                    20263898797                                                  1                                00000000000                                                  00000000000                                                  881299396656262018052320180325000030140FMB640      03200006050029679637  1718      20573 000768973370887337930507950848                
036300056825815733708873379000000000003070784475900120180326011WXF082   1418003000029320000000000000000000000000000000000000000000000000000000000000000000000000000000000000000000000000000000000000000000000000000000000000000000000000000000000000000000000000291240000002        20232137259   CROSETTO FERNANDO                                 20232137259                                                  1                                00000000000                                                  00000000000                                                  881299396656262018052320180325000029280DCJ769      03200006050059429663  1718      20573 000768973370887337930507950848                
036300056826008630508273181305001208823071020579100320180326011MHK679   1826712000031080000000000000000000000000000000000000000000000000000000000000000000000000000000000000000000000000000000000000000000000000000000000000000000000000000000000000000000000000311170102002        20306597966   DEPERTUIS, CRSTIAN                                20103680361                                                  1                                00000000000                                                  00000000000                                                  881219410869752018052320180326000030960AC002MD     02300004651031588480  171820428 20573 000579543050827318130500120882                
036300056826009030508273181305001208823071020579100320180326011GRJ117   1826712000030300000000000000000000000000000000000000000000000000000000000000000000000000000000000000000000000000000000000000000000000000000000000000000000000000000000000000000000000000301180101002        20340827237   PINEDA ALBERTO                                    20373959074                                                  6                                00000000000                                                  00000000000                                                  881219410869752018052320180326000030140FLQ944      02300004650051289686  171820428 20573 000579003050827318130500120882                
036300056826281230708587415305515186943071020579100120180326011BDQ744   1316612000029260000000000000000000000000000000000000000000000000000000000000000000000000000000000000000000000000000000000000000000000000000000000000000000000000000000000000000000000000001360000002        20300004637   ALBORNO, GASTON                                   27266492877                                                  1                                00000000000                                                  30708587415HECTOR A. BERTONE S.A.                            881268964128352018052320180324000029400HFK863      02300005160036675465  1718      20573 000579003071194608630621973173                
036300056826412530534655068306632902623070738607600120180326011ENV057   1933503000030920000000000000000000000000000000000000000000000000000000000000000000000000000000000000000000000000000000000000000000000000000000000000000000000000000000000000000000000000001250000002        20113391422   TORRES RICARDO ORLANDO                            20269760118                                                  1                                00000000000                                                  00000000000                                                  881285587187782018052320180325000030760KXQ518      05400007000068339911  1718      20573 000961003053465506830621973173                
036300056827171930640872566305394355893070738607600120180326011NIQ860   0067512000030380000000000000000000000000000000000000000000000000000000000000000000000000000000000000000000000000000000000000000000000000000000000000000000000000000000000000000000000000001250000002        20241942024   77GAZZOLA, FERNANDO                               20241942024                                                  1                                00000000000                                                  30640872566COMMODITIES S.A.                                  881207629221752018052420180325000030300SHQ620      01100003240060975284  1718      20573 000361003071042543030621973173                
036300056828319830539703850305754603602012948844200120180326011WGB340   1331801000030540000000000000000000000000000000000000000000000000000000000000000000000000000000000000000000000000000000000000000000000000000000000000000000000000000000000000000000000000001370000002        20329959210   BRUNO JOSE MARTIN                                 20329959210                                                  1                                00000000000                                                  00000000000                                                  881303133402692018052520180326000030720DFV900      01650004570080200142  171820233 20573 000450453053970385030621973173                
036300056701067530506792165000000000003055699183500120180326011FSN320   1256803000029600000000000000000000000000000000000000000000000000000000000000000000000000000000000000000000000000000000000000000000000000000000000000000000000000000000000000000000000000001430000002        20234364449   PAGLIONE MANUEL                                   20234364449                                                  1                                00000000000                                                  00000000000                                                  880451039986732018032720180324000030640DND894      04000006500025236860  171820063 20573 000897003050679216530621973173                
036300056701067930506792165305128230993055699183500120180326011AA659CL  1256803000030020000000000000000000000000000000000000000000000000000000000000000000000000000000000000000000000000000000000000000000000000000000000000000000000000000000000000000000000000001440000002        20326807282   MEDINA, MAXIMILIANO                               20232268051                                                  1                                00000000000                                                  00000000000                                                  880451039986732018032720180324000030300NTB736      04000006500095548428  171820063 20573 000897163050679216530621973173                
036300056707402630525718626305257186263052571862600120180326011FIA198   0627712000030700000000000000000000000000000000000000000000000000000000000000000000000000000000000000000000000000000000000000000000000000000000000000000000000000000000000000000000000000001370000002        23181078189   RE, FABIO                                         30525718626                                                  1                                30525718626A.F.A. CASILDA                                    30525718626A.F.A. ROSARIO                                    880562955569792018040120180325000030820BZA613      00620002459646597433  171821896 20573 000258913052571862630621973173                
036300056710300230506792165305128230993055699183500120180326011RKT661   1100401000029080000000000000000000000000000000000000000000000000000000000000000000000000000000000000000000000000000000000000000000000000000000000000000000000000000000000000000000000000001340000002        20061298208   PETRUCCELLI HUGO                                  30714328081                                                  1                                00000000000                                                  30506792165CARGILL S.A.C.I.                                  880555829932812018040320180326000029100RKE763      01200002660025116984  171821049 20573 000377003050679216530621973173                
036300056710300430506792165305128230993055699183500120180326011DWC690   1100401000030640000000000000000000000000000000000000000000000000000000000000000000000000000000000000000000000000000000000000000000000000000000000000000000000000000000000000000000000000001390000002        20179922771   MUCCI JUAN                                        30714328081                                                  1                                00000000000                                                  30506792165CARGILL S.A.C.I.                                  880555829932812018040320180326000030540SPM282      01200002660045812785  171821049 20573 000377003050679216530621973173                
036300056713879830525718626305257186263052571862600120180326011EGZ610   1229401000030440000000000000000000000000000000000000000000000000000000000000000000000000000000000000000000000000000000000000000000000000000000000000000000000000000000000000000000000000001360000002        20268525786   GARCIA, HUGO                                      20143700578                                                  1                                00000000000                                                  30525718626A.F.A. ROSARIO                                    880664085552732018040720180324000030360FSR215      01770004315446848514  171821951 20573 000114723052571862630621973173                
036300056717875630638195662305289817003070784475900120180326011JYH718   0561305000030040000000000000000000000000000000000000000000000000000000000000000000000000000000000000000000000000000000000000000000000000000000000000000000000000000000000000000000000000001360000002        20179944732   GRABERGER EDGARDO                                 20179944732                                                  1                                00000000000                                                  30638195662BERARDO AGROPERCUARIA SRL                         880640056076672018041020180325000030000IBV080      02700005000084707096  1718      20573 000659942704584331430621973173                
036300056718282030657159618305289817003070738607600120180326011VKK144   1250305000030560000000000000000000000000000000000000000000000000000000000000000000000000000000000000000000000000000000000000000000000000000000000000000000000000000000000000000000000000001250000002        20302052795   MOLINA JUAN                                       20302052795                                                  1                                00000000000                                                  00000000000                                                  880681116850642018041120180326000030600VSR845      01200002660038617431  171820878 20573 000377003065715961830621973173                
036300056721785530643991868305289817003055699183500120180326011MBP254   1431012000029560000000000000000000000000000000000000000000000000000000000000000000000000000000000000000000000000000000000000000000000000000000000000000000000000000000000000000000000000001370000002        20249441016   CABRE, FERNANDO                                   20129070693                                                  1                                00000000000                                                  30643991868CENTRO AGROP.MODELO S.A.                          880723668438922018041520180325000030000LZY872      01900004800042287498  1718      20573 000503513061834992230621973173                
036300056734410430710257295305289817003052673056500120180326011PEM924   0877805000029560000000000000000000000000000000000000000000000000000000000000000000000000000000000000000000000000000000000000000000000000000000000000000000000000000000000000000000000000001230000002        23306239899   DIESSER, HUGO                                     30710257295                                                  1                                00000000000                                                  00000000000                                                  880853365332192018042220180325000029500FDR866      02500004270085274186  1718      20573 000520183071025729530621973173                
036300056736545830708104074305289817003055699183500120180326011GCB371   0725101000030020000000000000000000000000000000000000000000000000000000000000000000000000000000000000000000000000000000000000000000000000000000000000000000000000000000000000000000000000001350000002        20251295809   KRAUS JORGE                                       30711868549                                                  1                                00000000000                                                  00000000000                                                  880849998741522018042320180326000030160GCB396      02250002020024207977  171823879 20573 000569003070810407430621973173                
036300056749559730614171061305289817003071177943000120180326011AB695JY  0544512000032280000000000000000000000000000000000000000000000000000000000000000000000000000000000000000000000000000000000000000000000000000000000000000000000000000000000000000000000000001300000002        20305534758   AGUIRRE, GABRIEL                                  33690467289                                                  1                                00000000000                                                  00000000000                                                  880918147236882018043020180324000032000AC006OS     01600003500091719038  1718      20573 000448563061417106130621973173                
036300056749560430614171061305289817003071177943000120180326011MYV207   0544512000030880000000000000000000000000000000000000000000000000000000000000000000000000000000000000000000000000000000000000000000000000000000000000000000000000000000000000000000000000001310000002        20299699618   ESCOBAR FABRICIO                                  30653787088                                                  1                                00000000000                                                  00000000000                                                  880918147236882018043020180325000030000MYV200      01600003500081607196  1718      20573 000448563061417106130621973173                
036300056749560530614171061305289817003071177943000120180326011UMX063   0544512000029340000000000000000000000000000000000000000000000000000000000000000000000000000000000000000000000000000000000000000000000000000000000000000000000000000000000000000000000000001340000002        20382634293   ALEJANDRO JULIAN HERGENRE                         20382634293                                                  1                                00000000000                                                  00000000000                                                  880918147236882018043020180325000030000VRY452      01600003500041375679  1718      20573 000448563061417106130621973173                
036300056749561530614171061305289817003071177943000120180326011NSN821   0544512000028820000000000000000000000000000000000000000000000000000000000000000000000000000000000000000000000000000000000000000000000000000000000000000000000000000000000000000000000000001290000002        20256842506   GIRARD OMAR                                       30708076607                                                  1                                00000000000                                                  00000000000                                                  880918147236882018043020180326000028600KFA974      01600003500051033889  1718      20573 000488003061417106130621973173                
036300056751220230555495494305289817003070738607600120180326011AA812IL  0276701000028980000000000000000000000000000000000000000000000000000000000000000000000000000000000000000000000000000000000000000000000000000000000000000000000000000000000000000000000000001200000002        20170130139   ORTIZ HECTOR                                      30555495494                                                  1                                00000000000                                                  30555495494LA BRAGADENSE S.A.                                880973380598142018043020180324000028950FAV678      02000004740017123293  1617      20573 000474003059312172730621973173                
036300056751966830666946541307036051053368915023900120180326011GKK605   0070601000030460000000000000000000000000000000000000000000000000000000000000000000000000000000000000000000000000000000000000000000000000000000000000000000000000000000000000000000000000001340000002        20235027276   BACCALONI, JUAN                                   30710334184                                                  1                                00000000000                                                  00000000000                                                  880911208250332018043020180324000030520GTF043      02100004408341248101  171822377 20573 000440833066694654130621973173                
036300056751966930666946541307036051053368915023900120180326011FTB517   0070601000029880000000000000000000000000000000000000000000000000000000000000000000000000000000000000000000000000000000000000000000000000000000000000000000000000000000000000000000000000001350000002        20100933013   KONOPENIS, ALBERTO                                30708807954                                                  1                                00000000000                                                  00000000000                                                  880911208250332018043020180324000029880CIT084      02000004257071032349  171822377 20573 000425703066694654130621973173                
